{
	"lotto4d.sol": {
		"Lotto4DToken": {
			"abi": [
				{
					"inputs": [
						{
							"internalType": "uint256",
							"name": "initialSupply",
							"type": "uint256"
						}
					],
					"stateMutability": "nonpayable",
					"type": "constructor"
				},
				{
					"inputs": [
						{
							"internalType": "address",
							"name": "owner",
							"type": "address"
						}
					],
					"name": "OwnableInvalidOwner",
					"type": "error"
				},
				{
					"inputs": [
						{
							"internalType": "address",
							"name": "account",
							"type": "address"
						}
					],
					"name": "OwnableUnauthorizedAccount",
					"type": "error"
				},
				{
					"anonymous": false,
					"inputs": [
						{
							"indexed": true,
							"internalType": "address",
							"name": "owner",
							"type": "address"
						},
						{
							"indexed": true,
							"internalType": "address",
							"name": "spender",
							"type": "address"
						},
						{
							"indexed": false,
							"internalType": "uint256",
							"name": "value",
							"type": "uint256"
						}
					],
					"name": "Approval",
					"type": "event"
				},
				{
					"anonymous": false,
					"inputs": [
						{
							"indexed": true,
							"internalType": "address",
							"name": "player",
							"type": "address"
						},
						{
							"indexed": false,
							"internalType": "uint256",
							"name": "amount",
							"type": "uint256"
						},
						{
							"indexed": false,
							"internalType": "uint16",
							"name": "guess",
							"type": "uint16"
						},
						{
							"indexed": false,
							"internalType": "uint8",
							"name": "numDigit",
							"type": "uint8"
						}
					],
					"name": "BetPlaced",
					"type": "event"
				},
				{
					"anonymous": false,
					"inputs": [
						{
							"indexed": false,
							"internalType": "uint256",
							"name": "result",
							"type": "uint256"
						}
					],
					"name": "Draw",
					"type": "event"
				},
				{
					"anonymous": false,
					"inputs": [
						{
							"indexed": true,
							"internalType": "address",
							"name": "previousOwner",
							"type": "address"
						},
						{
							"indexed": true,
							"internalType": "address",
							"name": "newOwner",
							"type": "address"
						}
					],
					"name": "OwnershipTransferred",
					"type": "event"
				},
				{
					"anonymous": false,
					"inputs": [
						{
							"indexed": true,
							"internalType": "address",
							"name": "from",
							"type": "address"
						},
						{
							"indexed": true,
							"internalType": "address",
							"name": "to",
							"type": "address"
						},
						{
							"indexed": false,
							"internalType": "uint256",
							"name": "value",
							"type": "uint256"
						}
					],
					"name": "Transfer",
					"type": "event"
				},
				{
					"anonymous": false,
					"inputs": [
						{
							"indexed": true,
							"internalType": "address",
							"name": "player",
							"type": "address"
						},
						{
							"indexed": false,
							"internalType": "uint256",
							"name": "amount",
							"type": "uint256"
						}
					],
					"name": "Winner",
					"type": "event"
				},
				{
					"inputs": [
						{
							"internalType": "address",
							"name": "owner",
							"type": "address"
						},
						{
							"internalType": "address",
							"name": "spender",
							"type": "address"
						}
					],
					"name": "allowance",
					"outputs": [
						{
							"internalType": "uint256",
							"name": "",
							"type": "uint256"
						}
					],
					"stateMutability": "view",
					"type": "function"
				},
				{
					"inputs": [],
					"name": "amountTotal",
					"outputs": [
						{
							"internalType": "uint256",
							"name": "",
							"type": "uint256"
						}
					],
					"stateMutability": "view",
					"type": "function"
				},
				{
					"inputs": [
						{
							"internalType": "address",
							"name": "spender",
							"type": "address"
						},
						{
							"internalType": "uint256",
							"name": "amount",
							"type": "uint256"
						}
					],
					"name": "approve",
					"outputs": [
						{
							"internalType": "bool",
							"name": "",
							"type": "bool"
						}
					],
					"stateMutability": "nonpayable",
					"type": "function"
				},
				{
					"inputs": [
						{
							"internalType": "address",
							"name": "account",
							"type": "address"
						}
					],
					"name": "balanceOf",
					"outputs": [
						{
							"internalType": "uint256",
							"name": "",
							"type": "uint256"
						}
					],
					"stateMutability": "view",
					"type": "function"
				},
				{
					"inputs": [],
					"name": "betTotal",
					"outputs": [
						{
							"internalType": "uint256",
							"name": "",
							"type": "uint256"
						}
					],
					"stateMutability": "view",
					"type": "function"
				},
				{
					"inputs": [
						{
							"internalType": "uint256",
							"name": "",
							"type": "uint256"
						}
					],
					"name": "bets",
					"outputs": [
						{
							"internalType": "address",
							"name": "player",
							"type": "address"
						},
						{
							"internalType": "uint256",
							"name": "amount",
							"type": "uint256"
						},
						{
							"internalType": "uint256",
							"name": "guess",
							"type": "uint256"
						},
						{
							"internalType": "uint8",
							"name": "numDigit",
							"type": "uint8"
						}
					],
					"stateMutability": "view",
					"type": "function"
				},
				{
					"inputs": [],
					"name": "decimals",
					"outputs": [
						{
							"internalType": "uint8",
							"name": "",
							"type": "uint8"
						}
					],
					"stateMutability": "view",
					"type": "function"
				},
				{
					"inputs": [
						{
							"internalType": "address",
							"name": "spender",
							"type": "address"
						},
						{
							"internalType": "uint256",
							"name": "subtractedValue",
							"type": "uint256"
						}
					],
					"name": "decreaseAllowance",
					"outputs": [
						{
							"internalType": "bool",
							"name": "",
							"type": "bool"
						}
					],
					"stateMutability": "nonpayable",
					"type": "function"
				},
				{
					"inputs": [],
					"name": "draw",
					"outputs": [],
					"stateMutability": "nonpayable",
					"type": "function"
				},
				{
					"inputs": [
						{
							"internalType": "uint256",
							"name": "",
							"type": "uint256"
						}
					],
					"name": "drawResults",
					"outputs": [
						{
							"internalType": "uint256",
							"name": "result",
							"type": "uint256"
						},
						{
							"internalType": "uint256",
							"name": "timestamp",
							"type": "uint256"
						}
					],
					"stateMutability": "view",
					"type": "function"
				},
				{
					"inputs": [],
					"name": "drawTime",
					"outputs": [
						{
							"internalType": "uint256",
							"name": "",
							"type": "uint256"
						}
					],
					"stateMutability": "view",
					"type": "function"
				},
				{
					"inputs": [],
					"name": "getAllDrawResults",
					"outputs": [
						{
							"components": [
								{
									"internalType": "uint256",
									"name": "result",
									"type": "uint256"
								},
								{
									"internalType": "uint256",
									"name": "timestamp",
									"type": "uint256"
								}
							],
							"internalType": "struct Lotto4DToken.DrawResult[]",
							"name": "",
							"type": "tuple[]"
						}
					],
					"stateMutability": "view",
					"type": "function"
				},
				{
					"inputs": [],
					"name": "getBetHistory",
					"outputs": [
						{
							"components": [
								{
									"internalType": "address",
									"name": "player",
									"type": "address"
								},
								{
									"internalType": "uint256",
									"name": "amount",
									"type": "uint256"
								},
								{
									"internalType": "uint256",
									"name": "guess",
									"type": "uint256"
								},
								{
									"internalType": "uint8",
									"name": "numDigit",
									"type": "uint8"
								}
							],
							"internalType": "struct Lotto4DToken.Bet[]",
							"name": "",
							"type": "tuple[]"
						}
					],
					"stateMutability": "view",
					"type": "function"
				},
				{
					"inputs": [],
					"name": "getContractBalance",
					"outputs": [
						{
							"internalType": "uint256",
							"name": "",
							"type": "uint256"
						}
					],
					"stateMutability": "view",
					"type": "function"
				},
				{
					"inputs": [],
					"name": "getLastDrawResult",
					"outputs": [
						{
							"internalType": "uint256",
							"name": "",
							"type": "uint256"
						}
					],
					"stateMutability": "view",
					"type": "function"
				},
				{
					"inputs": [],
					"name": "getLastDrawTime",
					"outputs": [
						{
							"internalType": "uint256",
							"name": "",
							"type": "uint256"
						}
					],
					"stateMutability": "view",
					"type": "function"
				},
				{
					"inputs": [],
					"name": "getTotalAmounts",
					"outputs": [
						{
							"internalType": "uint256",
							"name": "",
							"type": "uint256"
						}
					],
					"stateMutability": "view",
					"type": "function"
				},
				{
					"inputs": [],
					"name": "getTotalBets",
					"outputs": [
						{
							"internalType": "uint256",
							"name": "",
							"type": "uint256"
						}
					],
					"stateMutability": "view",
					"type": "function"
				},
				{
					"inputs": [],
					"name": "getWinnerLists",
					"outputs": [
						{
							"components": [
								{
									"internalType": "address",
									"name": "addressWin",
									"type": "address"
								},
								{
									"internalType": "uint256",
									"name": "drawNum",
									"type": "uint256"
								},
								{
									"internalType": "uint256",
									"name": "betAmount",
									"type": "uint256"
								},
								{
									"internalType": "uint256",
									"name": "winAmount",
									"type": "uint256"
								},
								{
									"internalType": "uint8",
									"name": "digit",
									"type": "uint8"
								}
							],
							"internalType": "struct Lotto4DToken.WinnerLists[]",
							"name": "",
							"type": "tuple[]"
						}
					],
					"stateMutability": "view",
					"type": "function"
				},
				{
					"inputs": [
						{
							"internalType": "address",
							"name": "spender",
							"type": "address"
						},
						{
							"internalType": "uint256",
							"name": "addedValue",
							"type": "uint256"
						}
					],
					"name": "increaseAllowance",
					"outputs": [
						{
							"internalType": "bool",
							"name": "",
							"type": "bool"
						}
					],
					"stateMutability": "nonpayable",
					"type": "function"
				},
				{
					"inputs": [],
					"name": "lastDrawResult",
					"outputs": [
						{
							"internalType": "uint256",
							"name": "",
							"type": "uint256"
						}
					],
					"stateMutability": "view",
					"type": "function"
				},
				{
					"inputs": [],
					"name": "lastDrawTimestamp",
					"outputs": [
						{
							"internalType": "uint256",
							"name": "",
							"type": "uint256"
						}
					],
					"stateMutability": "view",
					"type": "function"
				},
				{
					"inputs": [],
					"name": "maximumBet",
					"outputs": [
						{
							"internalType": "uint256",
							"name": "",
							"type": "uint256"
						}
					],
					"stateMutability": "view",
					"type": "function"
				},
				{
					"inputs": [],
					"name": "minimumBet",
					"outputs": [
						{
							"internalType": "uint256",
							"name": "",
							"type": "uint256"
						}
					],
					"stateMutability": "view",
					"type": "function"
				},
				{
					"inputs": [],
					"name": "name",
					"outputs": [
						{
							"internalType": "string",
							"name": "",
							"type": "string"
						}
					],
					"stateMutability": "view",
					"type": "function"
				},
				{
					"inputs": [],
					"name": "owner",
					"outputs": [
						{
							"internalType": "address",
							"name": "",
							"type": "address"
						}
					],
					"stateMutability": "view",
					"type": "function"
				},
				{
					"inputs": [
						{
							"internalType": "uint16[]",
							"name": "guesses",
							"type": "uint16[]"
						},
						{
							"internalType": "uint256[]",
							"name": "amounts",
							"type": "uint256[]"
						},
						{
							"internalType": "uint8[]",
							"name": "numDigit",
							"type": "uint8[]"
						}
					],
					"name": "placeBatchBetsWithToken",
					"outputs": [],
					"stateMutability": "nonpayable",
					"type": "function"
				},
				{
					"inputs": [],
					"name": "renounceOwnership",
					"outputs": [],
					"stateMutability": "nonpayable",
					"type": "function"
				},
				{
					"inputs": [
						{
							"internalType": "uint256",
							"name": "_drawTime",
							"type": "uint256"
						}
					],
					"name": "setDrawTime",
					"outputs": [],
					"stateMutability": "nonpayable",
					"type": "function"
				},
				{
					"inputs": [
						{
							"internalType": "uint256",
							"name": "_maximumBet",
							"type": "uint256"
						}
					],
					"name": "setMaximumBet",
					"outputs": [],
					"stateMutability": "nonpayable",
					"type": "function"
				},
				{
					"inputs": [
						{
							"internalType": "uint256",
							"name": "_minimumBet",
							"type": "uint256"
						}
					],
					"name": "setMinimumBet",
					"outputs": [],
					"stateMutability": "nonpayable",
					"type": "function"
				},
				{
					"inputs": [],
					"name": "symbol",
					"outputs": [
						{
							"internalType": "string",
							"name": "",
							"type": "string"
						}
					],
					"stateMutability": "view",
					"type": "function"
				},
				{
					"inputs": [
						{
							"internalType": "string",
							"name": "s",
							"type": "string"
						}
					],
					"name": "toUint",
					"outputs": [
						{
							"internalType": "uint256",
							"name": "",
							"type": "uint256"
						}
					],
					"stateMutability": "pure",
					"type": "function"
				},
				{
					"inputs": [],
					"name": "totalSupply",
					"outputs": [
						{
							"internalType": "uint256",
							"name": "",
							"type": "uint256"
						}
					],
					"stateMutability": "view",
					"type": "function"
				},
				{
					"inputs": [
						{
							"internalType": "address",
							"name": "recipient",
							"type": "address"
						},
						{
							"internalType": "uint256",
							"name": "amount",
							"type": "uint256"
						}
					],
					"name": "transfer",
					"outputs": [
						{
							"internalType": "bool",
							"name": "",
							"type": "bool"
						}
					],
					"stateMutability": "nonpayable",
					"type": "function"
				},
				{
					"inputs": [
						{
							"internalType": "address",
							"name": "sender",
							"type": "address"
						},
						{
							"internalType": "address",
							"name": "recipient",
							"type": "address"
						},
						{
							"internalType": "uint256",
							"name": "amount",
							"type": "uint256"
						}
					],
					"name": "transferFrom",
					"outputs": [
						{
							"internalType": "bool",
							"name": "",
							"type": "bool"
						}
					],
					"stateMutability": "nonpayable",
					"type": "function"
				},
				{
					"inputs": [
						{
							"internalType": "address",
							"name": "newOwner",
							"type": "address"
						}
					],
					"name": "transferOwnership",
					"outputs": [],
					"stateMutability": "nonpayable",
					"type": "function"
				},
				{
					"inputs": [
						{
							"internalType": "uint256",
							"name": "",
							"type": "uint256"
						}
					],
					"name": "winnerLists",
					"outputs": [
						{
							"internalType": "address",
							"name": "addressWin",
							"type": "address"
						},
						{
							"internalType": "uint256",
							"name": "drawNum",
							"type": "uint256"
						},
						{
							"internalType": "uint256",
							"name": "betAmount",
							"type": "uint256"
						},
						{
							"internalType": "uint256",
							"name": "winAmount",
							"type": "uint256"
						},
						{
							"internalType": "uint8",
							"name": "digit",
							"type": "uint8"
						}
					],
					"stateMutability": "view",
					"type": "function"
				},
				{
					"inputs": [
						{
							"internalType": "uint256",
							"name": "amount",
							"type": "uint256"
						}
					],
					"name": "withdrawL4D",
					"outputs": [],
					"stateMutability": "nonpayable",
					"type": "function"
				}
			],
			"devdoc": {
				"errors": {
					"OwnableInvalidOwner(address)": [
						{
							"details": "The owner is not a valid owner account. (eg. `address(0)`)"
						}
					],
					"OwnableUnauthorizedAccount(address)": [
						{
							"details": "The caller account is not authorized to perform an operation."
						}
					]
				},
				"events": {
					"Approval(address,address,uint256)": {
						"details": "Emitted when the allowance of a `spender` for an `owner` is set by a call to {approve}. `value` is the new allowance."
					},
					"Transfer(address,address,uint256)": {
						"details": "Emitted when `value` tokens are moved from one account (`from`) to another (`to`). Note that `value` may be zero."
					}
				},
				"kind": "dev",
				"methods": {
					"allowance(address,address)": {
						"details": "Returns the remaining number of tokens that `spender` will be allowed to spend on behalf of `owner` through {transferFrom}. This is zero by default. This value changes when {approve} or {transferFrom} are called."
					},
					"balanceOf(address)": {
						"details": "Returns the value of tokens owned by `account`."
					},
					"owner()": {
						"details": "Returns the address of the current owner."
					},
					"renounceOwnership()": {
						"details": "Leaves the contract without owner. It will not be possible to call `onlyOwner` functions. Can only be called by the current owner. NOTE: Renouncing ownership will leave the contract without an owner, thereby disabling any functionality that is only available to the owner."
					},
					"totalSupply()": {
						"details": "Returns the value of tokens in existence."
					},
					"transferOwnership(address)": {
						"details": "Transfers ownership of the contract to a new account (`newOwner`). Can only be called by the current owner."
					}
				},
				"version": 1
			},
			"evm": {
				"assembly": "    /* \"lotto4d.sol\":293:330  string public name = \"Lotto 4D Token\" */\n  0xc0\n    /* \"lotto4d.sol\":193:10511  contract Lotto4DToken is IERC20, Ownable {... */\n  0x40\n    /* \"lotto4d.sol\":293:330  string public name = \"Lotto 4D Token\" */\n  mstore\n  0x0e\n    /* \"lotto4d.sol\":193:10511  contract Lotto4DToken is IERC20, Ownable {... */\n  0x80\n    /* \"lotto4d.sol\":293:330  string public name = \"Lotto 4D Token\" */\n  swap1\n  dup2\n  mstore\n  mstore(0xa0, shl(0x91, 0x2637ba3a37901a22102a37b5b2b7))\n  0x01\n  swap1\n  tag_1\n  swap1\n  dup3\n  tag_2\n  jump\t// in\ntag_1:\n  pop\n    /* \"lotto4d.sol\":336:364  string public symbol = \"L4D\" */\n  0x40\n  dup1\n  mload\n  dup1\n  dup3\n  add\n  swap1\n  swap2\n  mstore\n  0x03\n  dup2\n  mstore\n  shl(0xea, 0x130d11)\n  0x20\n  dup3\n  add\n  mstore\n  0x02\n  swap1\n  tag_3\n  swap1\n  dup3\n  tag_2\n  jump\t// in\ntag_3:\n  pop\n    /* \"lotto4d.sol\":370:395  uint8 public decimals = 9 */\n  0x03\n  dup1\n  sload\n  not(0xff)\n  and\n    /* \"lotto4d.sol\":394:395  9 */\n  0x09\n    /* \"lotto4d.sol\":370:395  uint8 public decimals = 9 */\n  swap1\n  dup2\n  or\n  swap1\n  swap2\n  sstore\n    /* \"lotto4d.sol\":741:750  100000000 */\n  0x05f5e100\n    /* \"lotto4d.sol\":711:750  uint256 public minimumBet =   100000000 */\n  0x07\n  sstore\n    /* \"lotto4d.sol\":795:807  250000000000 */\n  0x3a35294400\n    /* \"lotto4d.sol\":767:807  uint256 public maximumBet = 250000000000 */\n  0x08\n  sstore\n    /* \"lotto4d.sol\":850:855  86400 */\n  0x015180\n    /* \"lotto4d.sol\":824:855  uint256 public drawTime = 86400 */\n  swap1\n  sstore\n    /* \"lotto4d.sol\":1462:1740  constructor(uint256 initialSupply) Ownable(msg.sender) {... */\n  callvalue\n  dup1\n  iszero\n  tag_4\n  jumpi\n  0x00\n  dup1\n  revert\ntag_4:\n  pop\n  mload(0x40)\n  sub(codesize, bytecodeSize)\n  dup1\n  bytecodeSize\n  dup4\n  codecopy\n  dup2\n  add\n  0x40\n  dup2\n  swap1\n  mstore\n  tag_5\n  swap2\n  tag_6\n  jump\t// in\ntag_5:\n    /* \"lotto4d.sol\":1505:1515  msg.sender */\n  caller\n  dup1\n    /* \"@openzeppelin/contracts/access/Ownable.sol\":1269:1364  if (initialOwner == address(0)) {... */\n  tag_10\n  jumpi\n    /* \"@openzeppelin/contracts/access/Ownable.sol\":1322:1353  OwnableInvalidOwner(address(0)) */\n  mload(0x40)\n  shl(0xe0, 0x1e4fbdf7)\n  dup2\n  mstore\n    /* \"@openzeppelin/contracts/access/Ownable.sol\":1350:1351  0 */\n  0x00\n    /* \"@openzeppelin/contracts/access/Ownable.sol\":1322:1353  OwnableInvalidOwner(address(0)) */\n  0x04\n  dup3\n  add\n    /* \"#utility.yul\":3061:3112   */\n  mstore\n    /* \"#utility.yul\":3034:3052   */\n  0x24\n  add\n    /* \"@openzeppelin/contracts/access/Ownable.sol\":1322:1353  OwnableInvalidOwner(address(0)) */\n  mload(0x40)\n  dup1\n  swap2\n  sub\n  swap1\n  revert\n    /* \"@openzeppelin/contracts/access/Ownable.sol\":1269:1364  if (initialOwner == address(0)) {... */\ntag_10:\n    /* \"@openzeppelin/contracts/access/Ownable.sol\":1373:1405  _transferOwnership(initialOwner) */\n  tag_13\n    /* \"@openzeppelin/contracts/access/Ownable.sol\":1392:1404  initialOwner */\n  dup2\n    /* \"@openzeppelin/contracts/access/Ownable.sol\":1373:1391  _transferOwnership */\n  tag_14\n    /* \"@openzeppelin/contracts/access/Ownable.sol\":1373:1405  _transferOwnership(initialOwner) */\n  jump\t// in\ntag_13:\n  pop\n    /* \"lotto4d.sol\":1572:1580  decimals */\n  sload(0x03)\n    /* \"lotto4d.sol\":1558:1581  10 ** uint256(decimals) */\n  tag_16\n  swap1\n    /* \"lotto4d.sol\":1572:1580  decimals */\n  0xff\n  and\n    /* \"lotto4d.sol\":1558:1560  10 */\n  0x0a\n    /* \"lotto4d.sol\":1558:1581  10 ** uint256(decimals) */\n  tag_17\n  jump\t// in\ntag_16:\n    /* \"lotto4d.sol\":1542:1581  initialSupply * 10 ** uint256(decimals) */\n  tag_18\n  swap1\n    /* \"lotto4d.sol\":1542:1555  initialSupply */\n  dup3\n    /* \"lotto4d.sol\":1542:1581  initialSupply * 10 ** uint256(decimals) */\n  tag_19\n  jump\t// in\ntag_18:\n    /* \"lotto4d.sol\":1527:1539  _totalSupply */\n  0x04\n    /* \"lotto4d.sol\":1527:1581  _totalSupply = initialSupply * 10 ** uint256(decimals) */\n  dup2\n  swap1\n  sstore\n    /* \"lotto4d.sol\":1601:1611  msg.sender */\n  caller\n    /* \"lotto4d.sol\":1591:1612  _balances[msg.sender] */\n  0x00\n  dup2\n  dup2\n  mstore\n    /* \"lotto4d.sol\":1591:1600  _balances */\n  0x05\n    /* \"lotto4d.sol\":1591:1612  _balances[msg.sender] */\n  0x20\n  swap1\n  dup2\n  mstore\n  0x40\n  dup1\n  dup4\n  keccak256\n    /* \"lotto4d.sol\":1591:1627  _balances[msg.sender] = _totalSupply */\n  dup6\n  swap1\n  sstore\n    /* \"lotto4d.sol\":1642:1688  Transfer(address(0), msg.sender, _totalSupply) */\n  mload\n    /* \"#utility.yul\":4942:4967   */\n  swap4\n  dup5\n  mstore\n    /* \"lotto4d.sol\":1601:1611  msg.sender */\n  swap2\n  swap3\n    /* \"lotto4d.sol\":1591:1612  _balances[msg.sender] */\n  swap1\n  swap2\n    /* \"lotto4d.sol\":1642:1688  Transfer(address(0), msg.sender, _totalSupply) */\n  0xddf252ad1be2c89b69c2b068fc378daa952ba7f163c4a11628f55a4df523b3ef\n  swap2\n    /* \"#utility.yul\":4915:4933   */\n  add\n    /* \"lotto4d.sol\":1642:1688  Transfer(address(0), msg.sender, _totalSupply) */\n  mload(0x40)\n  dup1\n  swap2\n  sub\n  swap1\n  log3\n  pop\n    /* \"lotto4d.sol\":1718:1733  block.timestamp */\n  timestamp\n    /* \"lotto4d.sol\":1698:1715  lastDrawTimestamp */\n  0x0a\n    /* \"lotto4d.sol\":1698:1733  lastDrawTimestamp = block.timestamp */\n  sstore\n    /* \"lotto4d.sol\":193:10511  contract Lotto4DToken is IERC20, Ownable {... */\n  jump(tag_32)\n    /* \"@openzeppelin/contracts/access/Ownable.sol\":2912:3099  function _transferOwnership(address newOwner) internal virtual {... */\ntag_14:\n    /* \"@openzeppelin/contracts/access/Ownable.sol\":2985:3001  address oldOwner */\n  0x00\n    /* \"@openzeppelin/contracts/access/Ownable.sol\":3004:3010  _owner */\n  dup1\n  sload\n  sub(shl(0xa0, 0x01), 0x01)\n    /* \"@openzeppelin/contracts/access/Ownable.sol\":3020:3037  _owner = newOwner */\n  dup4\n  dup2\n  and\n  not(sub(shl(0xa0, 0x01), 0x01))\n  dup4\n  and\n  dup2\n  or\n  dup5\n  sstore\n    /* \"@openzeppelin/contracts/access/Ownable.sol\":3052:3092  OwnershipTransferred(oldOwner, newOwner) */\n  mload(0x40)\n    /* \"@openzeppelin/contracts/access/Ownable.sol\":3004:3010  _owner */\n  swap2\n  swap1\n  swap3\n  and\n  swap3\n  dup4\n  swap2\n    /* \"@openzeppelin/contracts/access/Ownable.sol\":3052:3092  OwnershipTransferred(oldOwner, newOwner) */\n  0x8be0079c531659141344cd1fd0a4f28419497f9722a3daafe3b4186f6b6457e0\n  swap2\n    /* \"@openzeppelin/contracts/access/Ownable.sol\":2985:3001  address oldOwner */\n  swap1\n    /* \"@openzeppelin/contracts/access/Ownable.sol\":3052:3092  OwnershipTransferred(oldOwner, newOwner) */\n  log3\n    /* \"@openzeppelin/contracts/access/Ownable.sol\":2975:3099  {... */\n  pop\n    /* \"@openzeppelin/contracts/access/Ownable.sol\":2912:3099  function _transferOwnership(address newOwner) internal virtual {... */\n  pop\n  jump\t// out\n    /* \"#utility.yul\":14:141   */\ntag_24:\n    /* \"#utility.yul\":75:85   */\n  0x4e487b71\n    /* \"#utility.yul\":70:73   */\n  0xe0\n    /* \"#utility.yul\":66:86   */\n  shl\n    /* \"#utility.yul\":63:64   */\n  0x00\n    /* \"#utility.yul\":56:87   */\n  mstore\n    /* \"#utility.yul\":106:110   */\n  0x41\n    /* \"#utility.yul\":103:104   */\n  0x04\n    /* \"#utility.yul\":96:111   */\n  mstore\n    /* \"#utility.yul\":130:134   */\n  0x24\n    /* \"#utility.yul\":127:128   */\n  0x00\n    /* \"#utility.yul\":120:135   */\n  revert\n    /* \"#utility.yul\":146:526   */\ntag_25:\n    /* \"#utility.yul\":225:226   */\n  0x01\n    /* \"#utility.yul\":221:233   */\n  dup2\n  dup2\n  shr\n  swap1\n    /* \"#utility.yul\":268:280   */\n  dup3\n  and\n  dup1\n    /* \"#utility.yul\":289:350   */\n  tag_35\n  jumpi\n    /* \"#utility.yul\":343:347   */\n  0x7f\n    /* \"#utility.yul\":335:341   */\n  dup3\n    /* \"#utility.yul\":331:348   */\n  and\n    /* \"#utility.yul\":321:348   */\n  swap2\n  pop\n    /* \"#utility.yul\":289:350   */\ntag_35:\n    /* \"#utility.yul\":396:398   */\n  0x20\n    /* \"#utility.yul\":388:394   */\n  dup3\n    /* \"#utility.yul\":385:399   */\n  lt\n    /* \"#utility.yul\":365:383   */\n  dup2\n    /* \"#utility.yul\":362:400   */\n  sub\n    /* \"#utility.yul\":359:520   */\n  tag_36\n  jumpi\n    /* \"#utility.yul\":442:452   */\n  0x4e487b71\n    /* \"#utility.yul\":437:440   */\n  0xe0\n    /* \"#utility.yul\":433:453   */\n  shl\n    /* \"#utility.yul\":430:431   */\n  0x00\n    /* \"#utility.yul\":423:454   */\n  mstore\n    /* \"#utility.yul\":477:481   */\n  0x22\n    /* \"#utility.yul\":474:475   */\n  0x04\n    /* \"#utility.yul\":467:482   */\n  mstore\n    /* \"#utility.yul\":505:509   */\n  0x24\n    /* \"#utility.yul\":502:503   */\n  0x00\n    /* \"#utility.yul\":495:510   */\n  revert\n    /* \"#utility.yul\":359:520   */\ntag_36:\n  pop\n    /* \"#utility.yul\":146:526   */\n  swap2\n  swap1\n  pop\n  jump\t// out\n    /* \"#utility.yul\":657:1200   */\ntag_27:\n    /* \"#utility.yul\":759:761   */\n  0x1f\n    /* \"#utility.yul\":754:757   */\n  dup3\n    /* \"#utility.yul\":751:762   */\n  gt\n    /* \"#utility.yul\":748:1194   */\n  iszero\n  tag_39\n  jumpi\n    /* \"#utility.yul\":795:796   */\n  0x00\n    /* \"#utility.yul\":819:824   */\n  dup2\n    /* \"#utility.yul\":816:817   */\n  0x00\n    /* \"#utility.yul\":809:825   */\n  mstore\n    /* \"#utility.yul\":863:867   */\n  0x20\n    /* \"#utility.yul\":860:861   */\n  0x00\n    /* \"#utility.yul\":850:868   */\n  keccak256\n    /* \"#utility.yul\":933:935   */\n  0x1f\n    /* \"#utility.yul\":921:931   */\n  dup6\n    /* \"#utility.yul\":917:936   */\n  add\n    /* \"#utility.yul\":914:915   */\n  0x05\n    /* \"#utility.yul\":910:937   */\n  shr\n    /* \"#utility.yul\":904:908   */\n  dup2\n    /* \"#utility.yul\":900:938   */\n  add\n    /* \"#utility.yul\":969:973   */\n  0x20\n    /* \"#utility.yul\":957:967   */\n  dup7\n    /* \"#utility.yul\":954:974   */\n  lt\n    /* \"#utility.yul\":951:998   */\n  iszero\n  tag_40\n  jumpi\n  pop\n    /* \"#utility.yul\":992:996   */\n  dup1\n    /* \"#utility.yul\":951:998   */\ntag_40:\n    /* \"#utility.yul\":1047:1049   */\n  0x1f\n    /* \"#utility.yul\":1042:1045   */\n  dup6\n    /* \"#utility.yul\":1038:1050   */\n  add\n    /* \"#utility.yul\":1035:1036   */\n  0x05\n    /* \"#utility.yul\":1031:1051   */\n  shr\n    /* \"#utility.yul\":1025:1029   */\n  dup3\n    /* \"#utility.yul\":1021:1052   */\n  add\n    /* \"#utility.yul\":1011:1052   */\n  swap2\n  pop\n    /* \"#utility.yul\":1102:1184   */\ntag_41:\n    /* \"#utility.yul\":1120:1122   */\n  dup2\n    /* \"#utility.yul\":1113:1118   */\n  dup2\n    /* \"#utility.yul\":1110:1123   */\n  lt\n    /* \"#utility.yul\":1102:1184   */\n  iszero\n  tag_43\n  jumpi\n    /* \"#utility.yul\":1165:1182   */\n  dup3\n  dup2\n  sstore\n    /* \"#utility.yul\":1146:1147   */\n  0x01\n    /* \"#utility.yul\":1135:1148   */\n  add\n    /* \"#utility.yul\":1102:1184   */\n  jump(tag_41)\ntag_43:\n    /* \"#utility.yul\":1106:1109   */\n  pop\n  pop\n  pop\n    /* \"#utility.yul\":748:1194   */\ntag_39:\n    /* \"#utility.yul\":657:1200   */\n  pop\n  pop\n  pop\n  jump\t// out\n    /* \"#utility.yul\":1376:2721   */\ntag_2:\n    /* \"#utility.yul\":1496:1506   */\n  dup2\n  mload\n  sub(shl(0x40, 0x01), 0x01)\n    /* \"#utility.yul\":1518:1548   */\n  dup2\n  gt\n    /* \"#utility.yul\":1515:1571   */\n  iszero\n  tag_47\n  jumpi\n    /* \"#utility.yul\":1551:1569   */\n  tag_47\n  tag_24\n  jump\t// in\ntag_47:\n    /* \"#utility.yul\":1580:1677   */\n  tag_48\n    /* \"#utility.yul\":1670:1676   */\n  dup2\n    /* \"#utility.yul\":1630:1668   */\n  tag_49\n    /* \"#utility.yul\":1662:1666   */\n  dup5\n    /* \"#utility.yul\":1656:1667   */\n  sload\n    /* \"#utility.yul\":1630:1668   */\n  tag_25\n  jump\t// in\ntag_49:\n    /* \"#utility.yul\":1624:1628   */\n  dup5\n    /* \"#utility.yul\":1580:1677   */\n  tag_27\n  jump\t// in\ntag_48:\n    /* \"#utility.yul\":1732:1736   */\n  0x20\n  dup1\n    /* \"#utility.yul\":1789:1791   */\n  0x1f\n    /* \"#utility.yul\":1778:1792   */\n  dup4\n  gt\n    /* \"#utility.yul\":1806:1807   */\n  0x01\n    /* \"#utility.yul\":1801:2464   */\n  dup2\n  eq\n  tag_51\n  jumpi\n    /* \"#utility.yul\":2508:2509   */\n  0x00\n    /* \"#utility.yul\":2525:2531   */\n  dup5\n    /* \"#utility.yul\":2522:2611   */\n  iszero\n  tag_52\n  jumpi\n  pop\n    /* \"#utility.yul\":2577:2596   */\n  dup6\n  dup4\n  add\n    /* \"#utility.yul\":2571:2597   */\n  mload\n    /* \"#utility.yul\":2522:2611   */\ntag_52:\n  not(0x00)\n    /* \"#utility.yul\":1333:1334   */\n  0x03\n    /* \"#utility.yul\":1329:1340   */\n  dup7\n  swap1\n  shl\n    /* \"#utility.yul\":1325:1349   */\n  shr\n    /* \"#utility.yul\":1321:1350   */\n  not\n    /* \"#utility.yul\":1311:1351   */\n  and\n    /* \"#utility.yul\":1357:1358   */\n  0x01\n    /* \"#utility.yul\":1353:1364   */\n  dup6\n  swap1\n  shl\n    /* \"#utility.yul\":1308:1365   */\n  or\n    /* \"#utility.yul\":2624:2705   */\n  dup6\n  sstore\n    /* \"#utility.yul\":1771:2715   */\n  jump(tag_43)\n    /* \"#utility.yul\":1801:2464   */\ntag_51:\n    /* \"#utility.yul\":604:605   */\n  0x00\n    /* \"#utility.yul\":597:611   */\n  dup6\n  dup2\n  mstore\n    /* \"#utility.yul\":641:645   */\n  0x20\n    /* \"#utility.yul\":628:646   */\n  dup2\n  keccak256\n  not(0x1f)\n    /* \"#utility.yul\":1837:1857   */\n  dup7\n  and\n  swap2\n    /* \"#utility.yul\":1955:2191   */\ntag_55:\n    /* \"#utility.yul\":1969:1976   */\n  dup3\n    /* \"#utility.yul\":1966:1967   */\n  dup2\n    /* \"#utility.yul\":1963:1977   */\n  lt\n    /* \"#utility.yul\":1955:2191   */\n  iszero\n  tag_57\n  jumpi\n    /* \"#utility.yul\":2058:2077   */\n  dup9\n  dup7\n  add\n    /* \"#utility.yul\":2052:2078   */\n  mload\n    /* \"#utility.yul\":2037:2079   */\n  dup3\n  sstore\n    /* \"#utility.yul\":2150:2177   */\n  swap5\n  dup5\n  add\n  swap5\n    /* \"#utility.yul\":2118:2119   */\n  0x01\n    /* \"#utility.yul\":2106:2120   */\n  swap1\n  swap2\n  add\n  swap1\n    /* \"#utility.yul\":1985:2004   */\n  dup5\n  add\n    /* \"#utility.yul\":1955:2191   */\n  jump(tag_55)\ntag_57:\n    /* \"#utility.yul\":1959:1962   */\n  pop\n    /* \"#utility.yul\":2219:2225   */\n  dup6\n    /* \"#utility.yul\":2210:2217   */\n  dup3\n    /* \"#utility.yul\":2207:2226   */\n  lt\n    /* \"#utility.yul\":2204:2405   */\n  iszero\n  tag_58\n  jumpi\n    /* \"#utility.yul\":2280:2299   */\n  dup8\n  dup6\n  add\n    /* \"#utility.yul\":2274:2300   */\n  mload\n  not(0x00)\n    /* \"#utility.yul\":2363:2364   */\n  0x03\n    /* \"#utility.yul\":2359:2373   */\n  dup9\n  swap1\n  shl\n    /* \"#utility.yul\":2375:2378   */\n  0xf8\n    /* \"#utility.yul\":2355:2379   */\n  and\n    /* \"#utility.yul\":2351:2388   */\n  shr\n    /* \"#utility.yul\":2347:2389   */\n  not\n    /* \"#utility.yul\":2332:2390   */\n  and\n    /* \"#utility.yul\":2317:2391   */\n  dup2\n  sstore\n    /* \"#utility.yul\":2204:2405   */\ntag_58:\n  pop\n  pop\n  pop\n  pop\n  pop\n    /* \"#utility.yul\":2451:2452   */\n  0x01\n    /* \"#utility.yul\":2435:2449   */\n  swap1\n  dup2\n  shl\n    /* \"#utility.yul\":2431:2453   */\n  add\n    /* \"#utility.yul\":2418:2454   */\n  swap1\n  sstore\n  pop\n    /* \"#utility.yul\":1376:2721   */\n  jump\t// out\n    /* \"#utility.yul\":2726:2910   */\ntag_6:\n    /* \"#utility.yul\":2796:2802   */\n  0x00\n    /* \"#utility.yul\":2849:2851   */\n  0x20\n    /* \"#utility.yul\":2837:2846   */\n  dup3\n    /* \"#utility.yul\":2828:2835   */\n  dup5\n    /* \"#utility.yul\":2824:2847   */\n  sub\n    /* \"#utility.yul\":2820:2852   */\n  slt\n    /* \"#utility.yul\":2817:2869   */\n  iszero\n  tag_60\n  jumpi\n    /* \"#utility.yul\":2865:2866   */\n  0x00\n    /* \"#utility.yul\":2862:2863   */\n  dup1\n    /* \"#utility.yul\":2855:2867   */\n  revert\n    /* \"#utility.yul\":2817:2869   */\ntag_60:\n  pop\n    /* \"#utility.yul\":2888:2904   */\n  mload\n  swap2\n    /* \"#utility.yul\":2726:2910   */\n  swap1\n  pop\n  jump\t// out\n    /* \"#utility.yul\":3123:3250   */\ntag_29:\n    /* \"#utility.yul\":3184:3194   */\n  0x4e487b71\n    /* \"#utility.yul\":3179:3182   */\n  0xe0\n    /* \"#utility.yul\":3175:3195   */\n  shl\n    /* \"#utility.yul\":3172:3173   */\n  0x00\n    /* \"#utility.yul\":3165:3196   */\n  mstore\n    /* \"#utility.yul\":3215:3219   */\n  0x11\n    /* \"#utility.yul\":3212:3213   */\n  0x04\n    /* \"#utility.yul\":3205:3220   */\n  mstore\n    /* \"#utility.yul\":3239:3243   */\n  0x24\n    /* \"#utility.yul\":3236:3237   */\n  0x00\n    /* \"#utility.yul\":3229:3244   */\n  revert\n    /* \"#utility.yul\":3255:3671   */\ntag_30:\n    /* \"#utility.yul\":3344:3345   */\n  0x01\n    /* \"#utility.yul\":3381:3386   */\n  dup2\n    /* \"#utility.yul\":3344:3345   */\n  dup2\n    /* \"#utility.yul\":3395:3665   */\ntag_64:\n    /* \"#utility.yul\":3416:3423   */\n  dup1\n    /* \"#utility.yul\":3406:3414   */\n  dup6\n    /* \"#utility.yul\":3403:3424   */\n  gt\n    /* \"#utility.yul\":3395:3665   */\n  iszero\n  tag_66\n  jumpi\n    /* \"#utility.yul\":3475:3479   */\n  dup2\n    /* \"#utility.yul\":3471:3472   */\n  0x00\n    /* \"#utility.yul\":3467:3473   */\n  not\n    /* \"#utility.yul\":3463:3480   */\n  div\n    /* \"#utility.yul\":3457:3461   */\n  dup3\n    /* \"#utility.yul\":3454:3481   */\n  gt\n    /* \"#utility.yul\":3451:3504   */\n  iszero\n  tag_68\n  jumpi\n    /* \"#utility.yul\":3484:3502   */\n  tag_68\n  tag_29\n  jump\t// in\ntag_68:\n    /* \"#utility.yul\":3534:3541   */\n  dup1\n    /* \"#utility.yul\":3524:3532   */\n  dup6\n    /* \"#utility.yul\":3520:3542   */\n  and\n    /* \"#utility.yul\":3517:3572   */\n  iszero\n  tag_69\n  jumpi\n    /* \"#utility.yul\":3554:3570   */\n  swap2\n  dup2\n  mul\n  swap2\n    /* \"#utility.yul\":3517:3572   */\ntag_69:\n    /* \"#utility.yul\":3633:3655   */\n  swap4\n  dup5\n  shr\n  swap4\n    /* \"#utility.yul\":3593:3608   */\n  swap1\n  dup1\n  mul\n  swap1\n    /* \"#utility.yul\":3395:3665   */\n  jump(tag_64)\ntag_66:\n    /* \"#utility.yul\":3399:3402   */\n  pop\n    /* \"#utility.yul\":3255:3671   */\n  swap3\n  pop\n  swap3\n  swap1\n  pop\n  jump\t// out\n    /* \"#utility.yul\":3676:4482   */\ntag_31:\n    /* \"#utility.yul\":3725:3730   */\n  0x00\n    /* \"#utility.yul\":3755:3763   */\n  dup3\n    /* \"#utility.yul\":3745:3825   */\n  tag_71\n  jumpi\n  pop\n    /* \"#utility.yul\":3796:3797   */\n  0x01\n    /* \"#utility.yul\":3810:3815   */\n  jump(tag_70)\n    /* \"#utility.yul\":3745:3825   */\ntag_71:\n    /* \"#utility.yul\":3844:3848   */\n  dup2\n    /* \"#utility.yul\":3834:3910   */\n  tag_72\n  jumpi\n  pop\n    /* \"#utility.yul\":3881:3882   */\n  0x00\n    /* \"#utility.yul\":3895:3900   */\n  jump(tag_70)\n    /* \"#utility.yul\":3834:3910   */\ntag_72:\n    /* \"#utility.yul\":3926:3930   */\n  dup2\n    /* \"#utility.yul\":3944:3945   */\n  0x01\n    /* \"#utility.yul\":3939:3998   */\n  dup2\n  eq\n  tag_74\n  jumpi\n    /* \"#utility.yul\":4012:4013   */\n  0x02\n    /* \"#utility.yul\":4007:4137   */\n  dup2\n  eq\n  tag_75\n  jumpi\n    /* \"#utility.yul\":3919:4137   */\n  jump(tag_73)\n    /* \"#utility.yul\":3939:3998   */\ntag_74:\n    /* \"#utility.yul\":3969:3970   */\n  0x01\n    /* \"#utility.yul\":3960:3970   */\n  swap2\n  pop\n    /* \"#utility.yul\":3983:3988   */\n  pop\n  jump(tag_70)\n    /* \"#utility.yul\":4007:4137   */\ntag_75:\n    /* \"#utility.yul\":4044:4047   */\n  0xff\n    /* \"#utility.yul\":4034:4042   */\n  dup5\n    /* \"#utility.yul\":4031:4048   */\n  gt\n    /* \"#utility.yul\":4028:4071   */\n  iszero\n  tag_77\n  jumpi\n    /* \"#utility.yul\":4051:4069   */\n  tag_77\n  tag_29\n  jump\t// in\ntag_77:\n  pop\n  pop\n    /* \"#utility.yul\":4107:4108   */\n  0x01\n    /* \"#utility.yul\":4093:4109   */\n  dup3\n  shl\n    /* \"#utility.yul\":4122:4127   */\n  jump(tag_70)\n    /* \"#utility.yul\":3919:4137   */\ntag_73:\n  pop\n    /* \"#utility.yul\":4221:4223   */\n  0x20\n    /* \"#utility.yul\":4211:4219   */\n  dup4\n    /* \"#utility.yul\":4208:4224   */\n  lt\n    /* \"#utility.yul\":4202:4205   */\n  0x0133\n    /* \"#utility.yul\":4196:4200   */\n  dup4\n    /* \"#utility.yul\":4193:4206   */\n  lt\n    /* \"#utility.yul\":4189:4225   */\n  and\n    /* \"#utility.yul\":4183:4185   */\n  0x4e\n    /* \"#utility.yul\":4173:4181   */\n  dup5\n    /* \"#utility.yul\":4170:4186   */\n  lt\n    /* \"#utility.yul\":4165:4167   */\n  0x0b\n    /* \"#utility.yul\":4159:4163   */\n  dup5\n    /* \"#utility.yul\":4156:4168   */\n  lt\n    /* \"#utility.yul\":4152:4187   */\n  and\n    /* \"#utility.yul\":4149:4226   */\n  or\n    /* \"#utility.yul\":4146:4305   */\n  iszero\n  tag_78\n  jumpi\n  pop\n    /* \"#utility.yul\":4258:4277   */\n  dup2\n  dup2\n  exp\n    /* \"#utility.yul\":4290:4295   */\n  jump(tag_70)\n    /* \"#utility.yul\":4146:4305   */\ntag_78:\n    /* \"#utility.yul\":4337:4371   */\n  tag_79\n    /* \"#utility.yul\":4362:4370   */\n  dup4\n    /* \"#utility.yul\":4356:4360   */\n  dup4\n    /* \"#utility.yul\":4337:4371   */\n  tag_30\n  jump\t// in\ntag_79:\n    /* \"#utility.yul\":4407:4413   */\n  dup1\n    /* \"#utility.yul\":4403:4404   */\n  0x00\n    /* \"#utility.yul\":4399:4405   */\n  not\n    /* \"#utility.yul\":4395:4414   */\n  div\n    /* \"#utility.yul\":4386:4393   */\n  dup3\n    /* \"#utility.yul\":4383:4415   */\n  gt\n    /* \"#utility.yul\":4380:4438   */\n  iszero\n  tag_81\n  jumpi\n    /* \"#utility.yul\":4418:4436   */\n  tag_81\n  tag_29\n  jump\t// in\ntag_81:\n    /* \"#utility.yul\":4456:4476   */\n  mul\n  swap1\n  pop\n    /* \"#utility.yul\":3676:4482   */\ntag_70:\n  swap3\n  swap2\n  pop\n  pop\n  jump\t// out\n    /* \"#utility.yul\":4487:4618   */\ntag_17:\n    /* \"#utility.yul\":4547:4552   */\n  0x00\n    /* \"#utility.yul\":4576:4612   */\n  tag_83\n    /* \"#utility.yul\":4603:4611   */\n  dup4\n    /* \"#utility.yul\":4597:4601   */\n  dup4\n    /* \"#utility.yul\":4576:4612   */\n  tag_31\n  jump\t// in\ntag_83:\n    /* \"#utility.yul\":4567:4612   */\n  swap4\n    /* \"#utility.yul\":4487:4618   */\n  swap3\n  pop\n  pop\n  pop\n  jump\t// out\n    /* \"#utility.yul\":4623:4791   */\ntag_19:\n    /* \"#utility.yul\":4696:4705   */\n  dup1\n  dup3\n  mul\n    /* \"#utility.yul\":4727:4736   */\n  dup2\n  iszero\n    /* \"#utility.yul\":4744:4759   */\n  dup3\n  dup3\n  div\n    /* \"#utility.yul\":4738:4760   */\n  dup5\n  eq\n    /* \"#utility.yul\":4724:4761   */\n  or\n    /* \"#utility.yul\":4714:4785   */\n  tag_70\n  jumpi\n    /* \"#utility.yul\":4765:4783   */\n  tag_70\n  tag_29\n  jump\t// in\n    /* \"#utility.yul\":4796:4973   */\ntag_32:\n    /* \"lotto4d.sol\":193:10511  contract Lotto4DToken is IERC20, Ownable {... */\n  dataSize(sub_0)\n  dup1\n  dataOffset(sub_0)\n  0x00\n  codecopy\n  0x00\n  return\nstop\n\nsub_0: assembly {\n        /* \"lotto4d.sol\":193:10511  contract Lotto4DToken is IERC20, Ownable {... */\n      mstore(0x40, 0x80)\n      callvalue\n      dup1\n      iszero\n      tag_1\n      jumpi\n      0x00\n      dup1\n      revert\n    tag_1:\n      pop\n      jumpi(tag_2, lt(calldatasize, 0x04))\n      shr(0xe0, calldataload(0x00))\n      dup1\n      0x8772ae3c\n      gt\n      tag_42\n      jumpi\n      dup1\n      0xa9059cbb\n      gt\n      tag_43\n      jumpi\n      dup1\n      0xc4a7761e\n      gt\n      tag_44\n      jumpi\n      dup1\n      0xc4a7761e\n      eq\n      tag_37\n      jumpi\n      dup1\n      0xd10057ad\n      eq\n      tag_38\n      jumpi\n      dup1\n      0xdd62ed3e\n      eq\n      tag_39\n      jumpi\n      dup1\n      0xea2ea085\n      eq\n      tag_40\n      jumpi\n      dup1\n      0xf2fde38b\n      eq\n      tag_41\n      jumpi\n      0x00\n      dup1\n      revert\n    tag_44:\n      dup1\n      0xa9059cbb\n      eq\n      tag_32\n      jumpi\n      dup1\n      0xb416052d\n      eq\n      tag_33\n      jumpi\n      dup1\n      0xb5ef6d86\n      eq\n      tag_34\n      jumpi\n      dup1\n      0xc32a6f6d\n      eq\n      tag_35\n      jumpi\n      dup1\n      0xc38a8afd\n      eq\n      tag_36\n      jumpi\n      0x00\n      dup1\n      revert\n    tag_43:\n      dup1\n      0x997e84d2\n      gt\n      tag_45\n      jumpi\n      dup1\n      0x997e84d2\n      eq\n      tag_27\n      jumpi\n      dup1\n      0xa167a09d\n      eq\n      tag_28\n      jumpi\n      dup1\n      0xa3cb679d\n      eq\n      tag_29\n      jumpi\n      dup1\n      0xa457c2d7\n      eq\n      tag_30\n      jumpi\n      dup1\n      0xa73c7140\n      eq\n      tag_31\n      jumpi\n      0x00\n      dup1\n      revert\n    tag_45:\n      dup1\n      0x8772ae3c\n      eq\n      tag_22\n      jumpi\n      dup1\n      0x8c21460b\n      eq\n      tag_23\n      jumpi\n      dup1\n      0x8da5cb5b\n      eq\n      tag_24\n      jumpi\n      dup1\n      0x91578f11\n      eq\n      tag_25\n      jumpi\n      dup1\n      0x95d89b41\n      eq\n      tag_26\n      jumpi\n      0x00\n      dup1\n      revert\n    tag_42:\n      dup1\n      0x24ac60a7\n      gt\n      tag_46\n      jumpi\n      dup1\n      0x6f9fb98a\n      gt\n      tag_47\n      jumpi\n      dup1\n      0x6f9fb98a\n      eq\n      tag_17\n      jumpi\n      dup1\n      0x70a08231\n      eq\n      tag_18\n      jumpi\n      dup1\n      0x715018a6\n      eq\n      tag_19\n      jumpi\n      dup1\n      0x7932f9ec\n      eq\n      tag_20\n      jumpi\n      dup1\n      0x7a20cf86\n      eq\n      tag_21\n      jumpi\n      0x00\n      dup1\n      revert\n    tag_47:\n      dup1\n      0x24ac60a7\n      eq\n      tag_12\n      jumpi\n      dup1\n      0x313ce567\n      eq\n      tag_13\n      jumpi\n      dup1\n      0x39509351\n      eq\n      tag_14\n      jumpi\n      dup1\n      0x5f2b877d\n      eq\n      tag_15\n      jumpi\n      dup1\n      0x64589654\n      eq\n      tag_16\n      jumpi\n      0x00\n      dup1\n      revert\n    tag_46:\n      dup1\n      0x186eee8b\n      gt\n      tag_48\n      jumpi\n      dup1\n      0x186eee8b\n      eq\n      tag_7\n      jumpi\n      dup1\n      0x20ae2059\n      eq\n      tag_8\n      jumpi\n      dup1\n      0x227cade5\n      eq\n      tag_9\n      jumpi\n      dup1\n      0x22af00fa\n      eq\n      tag_10\n      jumpi\n      dup1\n      0x23b872dd\n      eq\n      tag_11\n      jumpi\n      0x00\n      dup1\n      revert\n    tag_48:\n      dup1\n      0x06fdde03\n      eq\n      tag_3\n      jumpi\n      dup1\n      0x095ea7b3\n      eq\n      tag_4\n      jumpi\n      dup1\n      0x0eecae21\n      eq\n      tag_5\n      jumpi\n      dup1\n      0x18160ddd\n      eq\n      tag_6\n      jumpi\n    tag_2:\n      0x00\n      dup1\n      revert\n        /* \"lotto4d.sol\":293:330  string public name = \"Lotto 4D Token\" */\n    tag_3:\n      tag_49\n      tag_50\n      jump\t// in\n    tag_49:\n      mload(0x40)\n      tag_51\n      swap2\n      swap1\n      tag_52\n      jump\t// in\n    tag_51:\n      mload(0x40)\n      dup1\n      swap2\n      sub\n      swap1\n      return\n        /* \"lotto4d.sol\":2296:2454  function approve(address spender, uint256 amount) external override returns (bool) {... */\n    tag_4:\n      tag_53\n      tag_54\n      calldatasize\n      0x04\n      tag_55\n      jump\t// in\n    tag_54:\n      tag_56\n      jump\t// in\n    tag_53:\n      mload(0x40)\n        /* \"#utility.yul\":1169:1183   */\n      swap1\n      iszero\n        /* \"#utility.yul\":1162:1184   */\n      iszero\n        /* \"#utility.yul\":1144:1185   */\n      dup2\n      mstore\n        /* \"#utility.yul\":1132:1134   */\n      0x20\n        /* \"#utility.yul\":1117:1135   */\n      add\n        /* \"lotto4d.sol\":2296:2454  function approve(address spender, uint256 amount) external override returns (bool) {... */\n      tag_51\n        /* \"#utility.yul\":1004:1191   */\n      jump\n        /* \"lotto4d.sol\":6729:9004  function draw() external onlyAfterDrawTime {... */\n    tag_5:\n      tag_59\n      tag_60\n      jump\t// in\n    tag_59:\n      stop\n        /* \"lotto4d.sol\":1746:1846  function totalSupply() external view override returns (uint256) {... */\n    tag_6:\n        /* \"lotto4d.sol\":1827:1839  _totalSupply */\n      sload(0x04)\n        /* \"lotto4d.sol\":1746:1846  function totalSupply() external view override returns (uint256) {... */\n    tag_61:\n      mload(0x40)\n        /* \"#utility.yul\":1342:1367   */\n      swap1\n      dup2\n      mstore\n        /* \"#utility.yul\":1330:1332   */\n      0x20\n        /* \"#utility.yul\":1315:1333   */\n      add\n        /* \"lotto4d.sol\":1746:1846  function totalSupply() external view override returns (uint256) {... */\n      tag_51\n        /* \"#utility.yul\":1196:1373   */\n      jump\n        /* \"lotto4d.sol\":9019:9492  function getBetHistory() external view returns (Bet[] memory) {... */\n    tag_7:\n      tag_65\n      tag_66\n      jump\t// in\n    tag_65:\n      mload(0x40)\n      tag_51\n      swap2\n      swap1\n      tag_68\n      jump\t// in\n        /* \"lotto4d.sol\":6069:6173  function setMaximumBet(uint256 _maximumBet) external onlyOwner {... */\n    tag_8:\n      tag_59\n      tag_70\n      calldatasize\n      0x04\n      tag_71\n      jump\t// in\n    tag_70:\n      tag_72\n      jump\t// in\n        /* \"lotto4d.sol\":767:807  uint256 public maximumBet = 250000000000 */\n    tag_9:\n      tag_61\n      sload(0x08)\n      dup2\n      jump\n        /* \"lotto4d.sol\":4364:4381  Bet[] public bets */\n    tag_10:\n      tag_76\n      tag_77\n      calldatasize\n      0x04\n      tag_71\n      jump\t// in\n    tag_77:\n      tag_78\n      jump\t// in\n    tag_76:\n      0x40\n      dup1\n      mload\n      sub(shl(0xa0, 0x01), 0x01)\n        /* \"#utility.yul\":2763:2795   */\n      swap1\n      swap6\n      and\n        /* \"#utility.yul\":2745:2796   */\n      dup6\n      mstore\n        /* \"#utility.yul\":2827:2829   */\n      0x20\n        /* \"#utility.yul\":2812:2830   */\n      dup6\n      add\n        /* \"#utility.yul\":2805:2839   */\n      swap4\n      swap1\n      swap4\n      mstore\n        /* \"#utility.yul\":2855:2873   */\n      swap2\n      dup4\n      add\n        /* \"#utility.yul\":2848:2882   */\n      mstore\n        /* \"#utility.yul\":2930:2934   */\n      0xff\n        /* \"#utility.yul\":2918:2935   */\n      and\n        /* \"#utility.yul\":2913:2915   */\n      0x60\n        /* \"#utility.yul\":2898:2916   */\n      dup3\n      add\n        /* \"#utility.yul\":2891:2936   */\n      mstore\n        /* \"#utility.yul\":2732:2735   */\n      0x80\n        /* \"#utility.yul\":2717:2736   */\n      add\n        /* \"lotto4d.sol\":4364:4381  Bet[] public bets */\n      tag_51\n        /* \"#utility.yul\":2518:2942   */\n      jump\n        /* \"lotto4d.sol\":2460:2720  function transferFrom(address sender, address recipient, uint256 amount) external override returns (bool) {... */\n    tag_11:\n      tag_53\n      tag_82\n      calldatasize\n      0x04\n      tag_83\n      jump\t// in\n    tag_82:\n      tag_84\n      jump\t// in\n        /* \"lotto4d.sol\":824:855  uint256 public drawTime = 86400 */\n    tag_12:\n      tag_61\n      sload(0x09)\n      dup2\n      jump\n        /* \"lotto4d.sol\":370:395  uint8 public decimals = 9 */\n    tag_13:\n      sload(0x03)\n      tag_89\n      swap1\n      0xff\n      and\n      dup2\n      jump\n    tag_89:\n      mload(0x40)\n        /* \"#utility.yul\":3452:3456   */\n      0xff\n        /* \"#utility.yul\":3440:3457   */\n      swap1\n      swap2\n      and\n        /* \"#utility.yul\":3422:3458   */\n      dup2\n      mstore\n        /* \"#utility.yul\":3410:3412   */\n      0x20\n        /* \"#utility.yul\":3395:3413   */\n      add\n        /* \"lotto4d.sol\":370:395  uint8 public decimals = 9 */\n      tag_51\n        /* \"#utility.yul\":3280:3464   */\n      jump\n        /* \"lotto4d.sol\":2726:2928  function increaseAllowance(address spender, uint256 addedValue) external returns (bool) {... */\n    tag_14:\n      tag_53\n      tag_94\n      calldatasize\n      0x04\n      tag_55\n      jump\t// in\n    tag_94:\n      tag_95\n      jump\t// in\n        /* \"lotto4d.sol\":4864:5953  function placeBatchBetsWithToken(uint16[] memory guesses, uint256[] memory amounts, uint8[] memory numDigit) external onlyBeforeDrawTime {... */\n    tag_15:\n      tag_59\n      tag_98\n      calldatasize\n      0x04\n      tag_99\n      jump\t// in\n    tag_98:\n      tag_100\n      jump\t// in\n        /* \"lotto4d.sol\":9551:9651  function getLastDrawTime() external view returns (uint256) {... */\n    tag_16:\n        /* \"lotto4d.sol\":9627:9644  lastDrawTimestamp */\n      sload(0x0a)\n        /* \"lotto4d.sol\":9551:9651  function getLastDrawTime() external view returns (uint256) {... */\n      jump(tag_61)\n        /* \"lotto4d.sol\":10397:10507  function getContractBalance() external view returns (uint256) {... */\n    tag_17:\n        /* \"lotto4d.sol\":10494:10498  this */\n      address\n        /* \"lotto4d.sol\":10450:10457  uint256 */\n      0x00\n        /* \"lotto4d.sol\":10476:10500  _balances[address(this)] */\n      swap1\n      dup2\n      mstore\n        /* \"lotto4d.sol\":10476:10485  _balances */\n      0x05\n        /* \"lotto4d.sol\":10476:10500  _balances[address(this)] */\n      0x20\n      mstore\n      0x40\n      swap1\n      keccak256\n      sload\n        /* \"lotto4d.sol\":10397:10507  function getContractBalance() external view returns (uint256) {... */\n      jump(tag_61)\n        /* \"lotto4d.sol\":1852:1971  function balanceOf(address account) external view override returns (uint256) {... */\n    tag_18:\n      tag_61\n      tag_108\n      calldatasize\n      0x04\n      tag_109\n      jump\t// in\n    tag_108:\n      sub(shl(0xa0, 0x01), 0x01)\n        /* \"lotto4d.sol\":1946:1964  _balances[account] */\n      and\n        /* \"lotto4d.sol\":1920:1927  uint256 */\n      0x00\n        /* \"lotto4d.sol\":1946:1964  _balances[account] */\n      swap1\n      dup2\n      mstore\n        /* \"lotto4d.sol\":1946:1955  _balances */\n      0x05\n        /* \"lotto4d.sol\":1946:1964  _balances[account] */\n      0x20\n      mstore\n      0x40\n      swap1\n      keccak256\n      sload\n      swap1\n        /* \"lotto4d.sol\":1852:1971  function balanceOf(address account) external view override returns (uint256) {... */\n      jump\n        /* \"@openzeppelin/contracts/access/Ownable.sol\":2293:2394  function renounceOwnership() public virtual onlyOwner {... */\n    tag_19:\n      tag_59\n      tag_113\n      jump\t// in\n        /* \"lotto4d.sol\":10238:10344  function getWinnerLists() external view returns (WinnerLists[] memory) {... */\n    tag_20:\n      tag_114\n      tag_115\n      jump\t// in\n    tag_114:\n      mload(0x40)\n      tag_51\n      swap2\n      swap1\n      tag_117\n      jump\t// in\n        /* \"lotto4d.sol\":3970:4232  function withdrawL4D(uint256 amount) external onlyOwner {... */\n    tag_21:\n      tag_59\n      tag_119\n      calldatasize\n      0x04\n      tag_71\n      jump\t// in\n    tag_119:\n      tag_120\n      jump\t// in\n        /* \"lotto4d.sol\":5959:6063  function setMinimumBet(uint256 _minimumBet) external onlyOwner {... */\n    tag_22:\n      tag_59\n      tag_122\n      calldatasize\n      0x04\n      tag_71\n      jump\t// in\n    tag_122:\n      tag_123\n      jump\t// in\n        /* \"lotto4d.sol\":883:915  uint256 public lastDrawTimestamp */\n    tag_23:\n      tag_61\n      sload(0x0a)\n      dup2\n      jump\n        /* \"@openzeppelin/contracts/access/Ownable.sol\":1638:1723  function owner() public view virtual returns (address) {... */\n    tag_24:\n        /* \"@openzeppelin/contracts/access/Ownable.sol\":1684:1691  address */\n      0x00\n        /* \"@openzeppelin/contracts/access/Ownable.sol\":1710:1716  _owner */\n      sload\n        /* \"@openzeppelin/contracts/access/Ownable.sol\":1638:1723  function owner() public view virtual returns (address) {... */\n      mload(0x40)\n      sub(shl(0xa0, 0x01), 0x01)\n        /* \"@openzeppelin/contracts/access/Ownable.sol\":1710:1716  _owner */\n      swap1\n      swap2\n      and\n        /* \"#utility.yul\":8503:8554   */\n      dup2\n      mstore\n        /* \"#utility.yul\":8491:8493   */\n      0x20\n        /* \"#utility.yul\":8476:8494   */\n      add\n        /* \"@openzeppelin/contracts/access/Ownable.sol\":1638:1723  function owner() public view virtual returns (address) {... */\n      tag_51\n        /* \"#utility.yul\":8357:8560   */\n      jump\n        /* \"lotto4d.sol\":9706:9805  function getLastDrawResult() external view returns (uint256) {... */\n    tag_25:\n        /* \"lotto4d.sol\":9784:9798  lastDrawResult */\n      sload(0x0b)\n        /* \"lotto4d.sol\":9706:9805  function getLastDrawResult() external view returns (uint256) {... */\n      jump(tag_61)\n        /* \"lotto4d.sol\":336:364  string public symbol = \"L4D\" */\n    tag_26:\n      tag_49\n      tag_135\n      jump\t// in\n        /* \"lotto4d.sol\":6179:6275  function setDrawTime(uint256 _drawTime) external onlyOwner {... */\n    tag_27:\n      tag_59\n      tag_138\n      calldatasize\n      0x04\n      tag_71\n      jump\t// in\n    tag_138:\n      tag_139\n      jump\t// in\n        /* \"lotto4d.sol\":1423:1455  WinnerLists[] public winnerLists */\n    tag_28:\n      tag_140\n      tag_141\n      calldatasize\n      0x04\n      tag_71\n      jump\t// in\n    tag_141:\n      tag_142\n      jump\t// in\n    tag_140:\n      0x40\n      dup1\n      mload\n      sub(shl(0xa0, 0x01), 0x01)\n        /* \"#utility.yul\":8838:8870   */\n      swap1\n      swap7\n      and\n        /* \"#utility.yul\":8820:8871   */\n      dup7\n      mstore\n        /* \"#utility.yul\":8902:8904   */\n      0x20\n        /* \"#utility.yul\":8887:8905   */\n      dup7\n      add\n        /* \"#utility.yul\":8880:8914   */\n      swap5\n      swap1\n      swap5\n      mstore\n        /* \"#utility.yul\":8930:8948   */\n      swap3\n      dup5\n      add\n        /* \"#utility.yul\":8923:8957   */\n      swap2\n      swap1\n      swap2\n      mstore\n        /* \"#utility.yul\":8988:8990   */\n      0x60\n        /* \"#utility.yul\":8973:8991   */\n      dup4\n      add\n        /* \"#utility.yul\":8966:9000   */\n      mstore\n        /* \"#utility.yul\":9049:9053   */\n      0xff\n        /* \"#utility.yul\":9037:9054   */\n      and\n        /* \"#utility.yul\":9031:9034   */\n      0x80\n        /* \"#utility.yul\":9016:9035   */\n      dup3\n      add\n        /* \"#utility.yul\":9009:9055   */\n      mstore\n        /* \"#utility.yul\":8807:8810   */\n      0xa0\n        /* \"#utility.yul\":8792:8811   */\n      add\n        /* \"lotto4d.sol\":1423:1455  WinnerLists[] public winnerLists */\n      tag_51\n        /* \"#utility.yul\":8565:9061   */\n      jump\n        /* \"lotto4d.sol\":10010:10098  function getTotalBets() external view returns (uint256) {... */\n    tag_29:\n        /* \"lotto4d.sol\":10083:10091  betTotal */\n      sload(0x0d)\n        /* \"lotto4d.sol\":10010:10098  function getTotalBets() external view returns (uint256) {... */\n      jump(tag_61)\n        /* \"lotto4d.sol\":2934:3146  function decreaseAllowance(address spender, uint256 subtractedValue) external returns (bool) {... */\n    tag_30:\n      tag_53\n      tag_149\n      calldatasize\n      0x04\n      tag_55\n      jump\t// in\n    tag_149:\n      tag_150\n      jump\t// in\n        /* \"lotto4d.sol\":1195:1221  uint256 public amountTotal */\n    tag_31:\n      tag_61\n      sload(0x0e)\n      dup2\n      jump\n        /* \"lotto4d.sol\":1977:2141  function transfer(address recipient, uint256 amount) external override returns (bool) {... */\n    tag_32:\n      tag_53\n      tag_156\n      calldatasize\n      0x04\n      tag_55\n      jump\t// in\n    tag_156:\n      tag_157\n      jump\t// in\n        /* \"lotto4d.sol\":921:950  uint256 public lastDrawResult */\n    tag_33:\n      tag_61\n      sload(0x0b)\n      dup2\n      jump\n        /* \"lotto4d.sol\":9852:9960  function getAllDrawResults() external view returns (DrawResult[] memory) {... */\n    tag_34:\n      tag_162\n      tag_163\n      jump\t// in\n    tag_162:\n      mload(0x40)\n      tag_51\n      swap2\n      swap1\n      tag_165\n      jump\t// in\n        /* \"lotto4d.sol\":6466:6724  function toUint(string memory s) public pure returns (uint256) {... */\n    tag_35:\n      tag_61\n      tag_167\n      calldatasize\n      0x04\n      tag_168\n      jump\t// in\n    tag_167:\n      tag_169\n      jump\t// in\n        /* \"lotto4d.sol\":711:750  uint256 public minimumBet =   100000000 */\n    tag_36:\n      tag_61\n      sload(0x07)\n      dup2\n      jump\n        /* \"lotto4d.sol\":10103:10197  function getTotalAmounts() external view returns (uint256) {... */\n    tag_37:\n        /* \"lotto4d.sol\":10179:10190  amountTotal */\n      sload(0x0e)\n        /* \"lotto4d.sol\":10103:10197  function getTotalAmounts() external view returns (uint256) {... */\n      jump(tag_61)\n        /* \"lotto4d.sol\":1166:1189  uint256 public betTotal */\n    tag_38:\n      tag_61\n      sload(0x0d)\n      dup2\n      jump\n        /* \"lotto4d.sol\":2147:2290  function allowance(address owner, address spender) external view override returns (uint256) {... */\n    tag_39:\n      tag_61\n      tag_181\n      calldatasize\n      0x04\n      tag_182\n      jump\t// in\n    tag_181:\n      sub(shl(0xa0, 0x01), 0x01)\n        /* \"lotto4d.sol\":2256:2274  _allowances[owner] */\n      swap2\n      dup3\n      and\n        /* \"lotto4d.sol\":2230:2237  uint256 */\n      0x00\n        /* \"lotto4d.sol\":2256:2274  _allowances[owner] */\n      swap1\n      dup2\n      mstore\n        /* \"lotto4d.sol\":2256:2267  _allowances */\n      0x06\n        /* \"lotto4d.sol\":2256:2274  _allowances[owner] */\n      0x20\n      swap1\n      dup2\n      mstore\n      0x40\n      dup1\n      dup4\n      keccak256\n        /* \"lotto4d.sol\":2256:2283  _allowances[owner][spender] */\n      swap4\n      swap1\n      swap5\n      and\n      dup3\n      mstore\n      swap2\n      swap1\n      swap2\n      mstore\n      keccak256\n      sload\n      swap1\n        /* \"lotto4d.sol\":2147:2290  function allowance(address owner, address spender) external view override returns (uint256) {... */\n      jump\n        /* \"lotto4d.sol\":1077:1108  DrawResult[] public drawResults */\n    tag_40:\n      tag_185\n      tag_186\n      calldatasize\n      0x04\n      tag_71\n      jump\t// in\n    tag_186:\n      tag_187\n      jump\t// in\n    tag_185:\n      0x40\n      dup1\n      mload\n        /* \"#utility.yul\":11071:11096   */\n      swap3\n      dup4\n      mstore\n        /* \"#utility.yul\":11127:11129   */\n      0x20\n        /* \"#utility.yul\":11112:11130   */\n      dup4\n      add\n        /* \"#utility.yul\":11105:11139   */\n      swap2\n      swap1\n      swap2\n      mstore\n        /* \"#utility.yul\":11044:11062   */\n      add\n        /* \"lotto4d.sol\":1077:1108  DrawResult[] public drawResults */\n      tag_51\n        /* \"#utility.yul\":10897:11145   */\n      jump\n        /* \"@openzeppelin/contracts/access/Ownable.sol\":2543:2758  function transferOwnership(address newOwner) public virtual onlyOwner {... */\n    tag_41:\n      tag_59\n      tag_191\n      calldatasize\n      0x04\n      tag_109\n      jump\t// in\n    tag_191:\n      tag_192\n      jump\t// in\n        /* \"lotto4d.sol\":293:330  string public name = \"Lotto 4D Token\" */\n    tag_50:\n      0x01\n      dup1\n      sload\n      tag_193\n      swap1\n      tag_194\n      jump\t// in\n    tag_193:\n      dup1\n      0x1f\n      add\n      0x20\n      dup1\n      swap2\n      div\n      mul\n      0x20\n      add\n      mload(0x40)\n      swap1\n      dup2\n      add\n      0x40\n      mstore\n      dup1\n      swap3\n      swap2\n      swap1\n      dup2\n      dup2\n      mstore\n      0x20\n      add\n      dup3\n      dup1\n      sload\n      tag_195\n      swap1\n      tag_194\n      jump\t// in\n    tag_195:\n      dup1\n      iszero\n      tag_196\n      jumpi\n      dup1\n      0x1f\n      lt\n      tag_197\n      jumpi\n      0x0100\n      dup1\n      dup4\n      sload\n      div\n      mul\n      dup4\n      mstore\n      swap2\n      0x20\n      add\n      swap2\n      jump(tag_196)\n    tag_197:\n      dup3\n      add\n      swap2\n      swap1\n      0x00\n      mstore\n      keccak256(0x00, 0x20)\n      swap1\n    tag_198:\n      dup2\n      sload\n      dup2\n      mstore\n      swap1\n      0x01\n      add\n      swap1\n      0x20\n      add\n      dup1\n      dup4\n      gt\n      tag_198\n      jumpi\n      dup3\n      swap1\n      sub\n      0x1f\n      and\n      dup3\n      add\n      swap2\n    tag_196:\n      pop\n      pop\n      pop\n      pop\n      pop\n      dup2\n      jump\t// out\n        /* \"lotto4d.sol\":2296:2454  function approve(address spender, uint256 amount) external override returns (bool) {... */\n    tag_56:\n        /* \"lotto4d.sol\":2373:2377  bool */\n      0x00\n        /* \"lotto4d.sol\":2389:2426  _approve(msg.sender, spender, amount) */\n      tag_200\n        /* \"lotto4d.sol\":2398:2408  msg.sender */\n      caller\n        /* \"lotto4d.sol\":2410:2417  spender */\n      dup5\n        /* \"lotto4d.sol\":2419:2425  amount */\n      dup5\n        /* \"lotto4d.sol\":2389:2397  _approve */\n      tag_201\n        /* \"lotto4d.sol\":2389:2426  _approve(msg.sender, spender, amount) */\n      jump\t// in\n    tag_200:\n      pop\n        /* \"lotto4d.sol\":2443:2447  true */\n      0x01\n        /* \"lotto4d.sol\":2296:2454  function approve(address spender, uint256 amount) external override returns (bool) {... */\n    tag_199:\n      swap3\n      swap2\n      pop\n      pop\n      jump\t// out\n        /* \"lotto4d.sol\":6729:9004  function draw() external onlyAfterDrawTime {... */\n    tag_60:\n        /* \"lotto4d.sol\":4799:4807  drawTime */\n      sload(0x09)\n        /* \"lotto4d.sol\":4779:4796  lastDrawTimestamp */\n      sload(0x0a)\n        /* \"lotto4d.sol\":4779:4807  lastDrawTimestamp + drawTime */\n      tag_203\n      swap2\n      swap1\n      tag_204\n      jump\t// in\n    tag_203:\n        /* \"lotto4d.sol\":4760:4775  block.timestamp */\n      timestamp\n        /* \"lotto4d.sol\":4760:4807  block.timestamp >= lastDrawTimestamp + drawTime */\n      lt\n      iszero\n        /* \"lotto4d.sol\":4752:4840  require(block.timestamp >= lastDrawTimestamp + drawTime, \"Draw time has not passed yet\") */\n      tag_205\n      jumpi\n      mload(0x40)\n      shl(0xe5, 0x461bcd)\n      dup2\n      mstore\n        /* \"#utility.yul\":11999:12001   */\n      0x20\n        /* \"lotto4d.sol\":4752:4840  require(block.timestamp >= lastDrawTimestamp + drawTime, \"Draw time has not passed yet\") */\n      0x04\n      dup3\n      add\n        /* \"#utility.yul\":11981:12002   */\n      mstore\n        /* \"#utility.yul\":12038:12040   */\n      0x1c\n        /* \"#utility.yul\":12018:12036   */\n      0x24\n      dup3\n      add\n        /* \"#utility.yul\":12011:12041   */\n      mstore\n        /* \"#utility.yul\":12077:12107   */\n      0x447261772074696d6520686173206e6f74207061737365642079657400000000\n        /* \"#utility.yul\":12057:12075   */\n      0x44\n      dup3\n      add\n        /* \"#utility.yul\":12050:12108   */\n      mstore\n        /* \"#utility.yul\":12125:12143   */\n      0x64\n      add\n        /* \"lotto4d.sol\":4752:4840  require(block.timestamp >= lastDrawTimestamp + drawTime, \"Draw time has not passed yet\") */\n    tag_206:\n      mload(0x40)\n      dup1\n      swap2\n      sub\n      swap1\n      revert\n    tag_205:\n        /* \"lotto4d.sol\":6835:6849  uint256 result */\n      0x00\n        /* \"lotto4d.sol\":6926:6931  10000 */\n      0x2710\n        /* \"lotto4d.sol\":6887:6902  block.timestamp */\n      timestamp\n        /* \"lotto4d.sol\":6904:6920  block.prevrandao */\n      prevrandao\n        /* \"lotto4d.sol\":6870:6921  abi.encodePacked(block.timestamp, block.prevrandao) */\n      add(0x20, mload(0x40))\n      tag_209\n      swap3\n      swap2\n      swap1\n        /* \"#utility.yul\":12311:12330   */\n      swap2\n      dup3\n      mstore\n        /* \"#utility.yul\":12355:12357   */\n      0x20\n        /* \"#utility.yul\":12346:12358   */\n      dup3\n      add\n        /* \"#utility.yul\":12339:12367   */\n      mstore\n        /* \"#utility.yul\":12392:12394   */\n      0x40\n        /* \"#utility.yul\":12383:12395   */\n      add\n      swap1\n        /* \"#utility.yul\":12154:12401   */\n      jump\n        /* \"lotto4d.sol\":6870:6921  abi.encodePacked(block.timestamp, block.prevrandao) */\n    tag_209:\n      mload(0x40)\n      0x20\n      dup2\n      dup4\n      sub\n      sub\n      dup2\n      mstore\n      swap1\n      0x40\n      mstore\n        /* \"lotto4d.sol\":6860:6922  keccak256(abi.encodePacked(block.timestamp, block.prevrandao)) */\n      dup1\n      mload\n      swap1\n      0x20\n      add\n      keccak256\n        /* \"lotto4d.sol\":6852:6923  uint256(keccak256(abi.encodePacked(block.timestamp, block.prevrandao))) */\n      0x00\n      shr\n        /* \"lotto4d.sol\":6852:6931  uint256(keccak256(abi.encodePacked(block.timestamp, block.prevrandao))) % 10000 */\n      tag_211\n      swap2\n      swap1\n      tag_212\n      jump\t// in\n    tag_211:\n        /* \"lotto4d.sol\":6835:6931  uint256 result = uint256(keccak256(abi.encodePacked(block.timestamp, block.prevrandao))) % 10000 */\n      swap1\n      pop\n        /* \"lotto4d.sol\":6990:7019  string memory formattedResult */\n      0x00\n        /* \"lotto4d.sol\":7022:7049  uint256(result).toString(4) */\n      tag_213\n        /* \"lotto4d.sol\":6835:6931  uint256 result = uint256(keccak256(abi.encodePacked(block.timestamp, block.prevrandao))) % 10000 */\n      dup3\n        /* \"lotto4d.sol\":7047:7048  4 */\n      0x04\n        /* \"lotto4d.sol\":7022:7046  uint256(result).toString */\n      tag_214\n        /* \"lotto4d.sol\":7022:7049  uint256(result).toString(4) */\n      jump\t// in\n    tag_213:\n        /* \"lotto4d.sol\":6990:7049  string memory formattedResult = uint256(result).toString(4) */\n      swap1\n      pop\n        /* \"lotto4d.sol\":7107:7130  toUint(formattedResult) */\n      tag_215\n        /* \"lotto4d.sol\":7114:7129  formattedResult */\n      dup2\n        /* \"lotto4d.sol\":7107:7113  toUint */\n      tag_169\n        /* \"lotto4d.sol\":7107:7130  toUint(formattedResult) */\n      jump\t// in\n    tag_215:\n        /* \"lotto4d.sol\":7090:7104  lastDrawResult */\n      0x0b\n        /* \"lotto4d.sol\":7090:7130  lastDrawResult = toUint(formattedResult) */\n      dup2\n      swap1\n      sstore\n        /* \"lotto4d.sol\":7172:7192  Draw(lastDrawResult) */\n      mload(0x40)\n        /* \"#utility.yul\":1342:1367   */\n      swap1\n      dup2\n      mstore\n        /* \"lotto4d.sol\":7172:7192  Draw(lastDrawResult) */\n      0x3fd10e0b772395f38ab47fc59126002084ce1e04d2b65432f5c90bbd9e233999\n      swap1\n        /* \"#utility.yul\":1330:1332   */\n      0x20\n        /* \"#utility.yul\":1315:1333   */\n      add\n        /* \"lotto4d.sol\":7172:7192  Draw(lastDrawResult) */\n      mload(0x40)\n      dup1\n      swap2\n      sub\n      swap1\n      log1\n        /* \"lotto4d.sol\":7265:7308  DrawResult(lastDrawResult, block.timestamp) */\n      0x40\n      dup1\n      mload\n      dup1\n      dup3\n      add\n      swap1\n      swap2\n      mstore\n        /* \"lotto4d.sol\":7276:7290  lastDrawResult */\n      sload(0x0b)\n        /* \"lotto4d.sol\":7265:7308  DrawResult(lastDrawResult, block.timestamp) */\n      dup2\n      mstore\n        /* \"lotto4d.sol\":7292:7307  block.timestamp */\n      timestamp\n        /* \"lotto4d.sol\":7265:7308  DrawResult(lastDrawResult, block.timestamp) */\n      0x20\n      dup3\n      add\n      swap1\n      dup2\n      mstore\n        /* \"lotto4d.sol\":7248:7259  drawResults */\n      0x0c\n        /* \"lotto4d.sol\":7248:7309  drawResults.push(DrawResult(lastDrawResult, block.timestamp)) */\n      dup1\n      sload\n      0x01\n      dup2\n      add\n      dup3\n      sstore\n      0x00\n      swap2\n      dup3\n      mstore\n      swap3\n      mload\n      0xdf6966c971051c3d54ec59162606531493a51404a002842f56009d7e5cf4a8c7\n      0x02\n      swap1\n      swap5\n      mul\n      swap4\n      dup5\n      add\n      sstore\n      swap1\n      mload\n      0xdf6966c971051c3d54ec59162606531493a51404a002842f56009d7e5cf4a8c8\n      swap1\n      swap3\n      add\n      swap2\n      swap1\n      swap2\n      sstore\n      dup1\n        /* \"lotto4d.sol\":7340:8785  for (uint256 i = 0; i < bets.length; i++) {... */\n    tag_218:\n        /* \"lotto4d.sol\":7364:7368  bets */\n      0x10\n        /* \"lotto4d.sol\":7364:7375  bets.length */\n      sload\n        /* \"lotto4d.sol\":7360:7375  i < bets.length */\n      dup2\n      lt\n        /* \"lotto4d.sol\":7340:8785  for (uint256 i = 0; i < bets.length; i++) {... */\n      iszero\n      tag_219\n      jumpi\n        /* \"lotto4d.sol\":7396:7410  Bet memory bet */\n      0x00\n        /* \"lotto4d.sol\":7413:7417  bets */\n      0x10\n        /* \"lotto4d.sol\":7418:7419  i */\n      dup3\n        /* \"lotto4d.sol\":7413:7420  bets[i] */\n      dup2\n      sload\n      dup2\n      lt\n      tag_222\n      jumpi\n      tag_222\n      tag_223\n      jump\t// in\n    tag_222:\n      0x00\n      swap2\n      dup3\n      mstore\n      0x20\n      swap2\n      dup3\n      swap1\n      keccak256\n        /* \"lotto4d.sol\":7396:7420  Bet memory bet = bets[i] */\n      0x40\n      dup1\n      mload\n      0x80\n      dup2\n      add\n      dup3\n      mstore\n        /* \"lotto4d.sol\":7413:7420  bets[i] */\n      0x04\n      swap4\n      dup5\n      mul\n      swap1\n      swap3\n      add\n        /* \"lotto4d.sol\":7396:7420  Bet memory bet = bets[i] */\n      dup1\n      sload\n      sub(shl(0xa0, 0x01), 0x01)\n      and\n      dup4\n      mstore\n      0x01\n      dup2\n      add\n      sload\n      swap5\n      dup4\n      add\n      swap5\n      swap1\n      swap5\n      mstore\n      0x02\n      dup5\n      add\n      sload\n      swap1\n      dup3\n      add\n      mstore\n      0x03\n      swap1\n      swap3\n      add\n      sload\n      0xff\n      and\n      0x60\n      dup4\n      add\n      dup2\n      swap1\n      mstore\n      swap2\n      swap3\n      pop\n        /* \"lotto4d.sol\":7432:7449  bet.numDigit == 4 */\n      eq\n        /* \"lotto4d.sol\":7432:7480  bet.numDigit == 4 && bet.guess == lastDrawResult */\n      dup1\n      iszero\n      tag_225\n      jumpi\n      pop\n        /* \"lotto4d.sol\":7466:7480  lastDrawResult */\n      sload(0x0b)\n        /* \"lotto4d.sol\":7453:7456  bet */\n      dup2\n        /* \"lotto4d.sol\":7453:7462  bet.guess */\n      0x40\n      add\n      mload\n        /* \"lotto4d.sol\":7453:7480  bet.guess == lastDrawResult */\n      eq\n        /* \"lotto4d.sol\":7432:7480  bet.numDigit == 4 && bet.guess == lastDrawResult */\n    tag_225:\n        /* \"lotto4d.sol\":7428:8771  if (bet.numDigit == 4 && bet.guess == lastDrawResult) {... */\n      iszero\n      tag_226\n      jumpi\n        /* \"lotto4d.sol\":7500:7510  bet.amount */\n      0x20\n      dup2\n      add\n      mload\n        /* \"lotto4d.sol\":7500:7517  bet.amount * 4000 */\n      tag_227\n      swap1\n        /* \"lotto4d.sol\":7513:7517  4000 */\n      0x0fa0\n        /* \"lotto4d.sol\":7500:7517  bet.amount * 4000 */\n      tag_228\n      jump\t// in\n    tag_227:\n        /* \"lotto4d.sol\":7557:7561  this */\n      address\n        /* \"lotto4d.sol\":7539:7563  _balances[address(this)] */\n      0x00\n      swap1\n      dup2\n      mstore\n        /* \"lotto4d.sol\":7539:7548  _balances */\n      0x05\n        /* \"lotto4d.sol\":7539:7563  _balances[address(this)] */\n      0x20\n      mstore\n      0x40\n      swap1\n      keccak256\n      sload\n        /* \"lotto4d.sol\":7491:7517  payout = bet.amount * 4000 */\n      swap1\n      swap4\n      pop\n        /* \"lotto4d.sol\":7539:7573  _balances[address(this)] >= payout */\n      dup4\n      gt\n      iszero\n        /* \"lotto4d.sol\":7531:7607  require(_balances[address(this)] >= payout, \"Insufficient contract balance\") */\n      tag_229\n      jumpi\n      mload(0x40)\n      shl(0xe5, 0x461bcd)\n      dup2\n      mstore\n      0x04\n      add\n      tag_206\n      swap1\n      tag_231\n      jump\t// in\n    tag_229:\n        /* \"lotto4d.sol\":7631:7641  bet.player */\n      dup1\n      mload\n      sub(shl(0xa0, 0x01), 0x01)\n        /* \"lotto4d.sol\":7621:7642  _balances[bet.player] */\n      and\n      0x00\n      swap1\n      dup2\n      mstore\n        /* \"lotto4d.sol\":7621:7630  _balances */\n      0x05\n        /* \"lotto4d.sol\":7621:7642  _balances[bet.player] */\n      0x20\n      mstore\n      0x40\n      dup2\n      keccak256\n        /* \"lotto4d.sol\":7621:7652  _balances[bet.player] += payout */\n      dup1\n      sload\n        /* \"lotto4d.sol\":7646:7652  payout */\n      dup6\n      swap3\n        /* \"lotto4d.sol\":7621:7642  _balances[bet.player] */\n      swap1\n        /* \"lotto4d.sol\":7621:7652  _balances[bet.player] += payout */\n      tag_232\n      swap1\n        /* \"lotto4d.sol\":7646:7652  payout */\n      dup5\n      swap1\n        /* \"lotto4d.sol\":7621:7652  _balances[bet.player] += payout */\n      tag_204\n      jump\t// in\n    tag_232:\n      swap1\n      swap2\n      sstore\n      pop\n      pop\n        /* \"lotto4d.sol\":7684:7688  this */\n      address\n        /* \"lotto4d.sol\":7666:7690  _balances[address(this)] */\n      0x00\n      swap1\n      dup2\n      mstore\n        /* \"lotto4d.sol\":7666:7675  _balances */\n      0x05\n        /* \"lotto4d.sol\":7666:7690  _balances[address(this)] */\n      0x20\n      mstore\n      0x40\n      dup2\n      keccak256\n        /* \"lotto4d.sol\":7666:7700  _balances[address(this)] -= payout */\n      dup1\n      sload\n        /* \"lotto4d.sol\":7694:7700  payout */\n      dup6\n      swap3\n        /* \"lotto4d.sol\":7666:7690  _balances[address(this)] */\n      swap1\n        /* \"lotto4d.sol\":7666:7700  _balances[address(this)] -= payout */\n      tag_233\n      swap1\n        /* \"lotto4d.sol\":7694:7700  payout */\n      dup5\n      swap1\n        /* \"lotto4d.sol\":7666:7700  _balances[address(this)] -= payout */\n      tag_234\n      jump\t// in\n    tag_233:\n      swap1\n      swap2\n      sstore\n      pop\n      pop\n        /* \"lotto4d.sol\":7781:7854  WinnerLists(bet.player, lastDrawResult, bet.amount, payout, bet.numDigit) */\n      0x40\n      dup1\n      mload\n      0xa0\n      dup2\n      add\n      dup3\n      mstore\n        /* \"lotto4d.sol\":7793:7803  bet.player */\n      dup3\n      mload\n      sub(shl(0xa0, 0x01), 0x01)\n        /* \"lotto4d.sol\":7781:7854  WinnerLists(bet.player, lastDrawResult, bet.amount, payout, bet.numDigit) */\n      swap1\n      dup2\n      and\n      dup3\n      mstore\n        /* \"lotto4d.sol\":7805:7819  lastDrawResult */\n      sload(0x0b)\n        /* \"lotto4d.sol\":7781:7854  WinnerLists(bet.player, lastDrawResult, bet.amount, payout, bet.numDigit) */\n      0x20\n      dup1\n      dup5\n      add\n      swap2\n      dup3\n      mstore\n        /* \"lotto4d.sol\":7821:7831  bet.amount */\n      dup6\n      add\n      mload\n        /* \"lotto4d.sol\":7781:7854  WinnerLists(bet.player, lastDrawResult, bet.amount, payout, bet.numDigit) */\n      swap4\n      dup4\n      add\n      swap4\n      dup5\n      mstore\n      0x60\n      dup1\n      dup5\n      add\n      dup9\n      dup2\n      mstore\n        /* \"lotto4d.sol\":7841:7853  bet.numDigit */\n      swap1\n      dup7\n      add\n      mload\n        /* \"lotto4d.sol\":7781:7854  WinnerLists(bet.player, lastDrawResult, bet.amount, payout, bet.numDigit) */\n      0xff\n      swap1\n      dup2\n      and\n      0x80\n      dup7\n      add\n      swap1\n      dup2\n      mstore\n        /* \"lotto4d.sol\":7764:7775  winnerLists */\n      0x0f\n        /* \"lotto4d.sol\":7764:7855  winnerLists.push(WinnerLists(bet.player, lastDrawResult, bet.amount, payout, bet.numDigit)) */\n      dup1\n      sload\n      0x01\n      dup2\n      add\n      dup3\n      sstore\n      0x00\n      swap2\n      swap1\n      swap2\n      mstore\n      swap6\n      mload\n      0x8d1108e10bcb7c27dddfc02ed9d693a074039d026cf4ea4240b40f7d581ac802\n      0x05\n      swap1\n      swap8\n      mul\n      swap7\n      dup8\n      add\n      dup1\n      sload\n      not(sub(shl(0xa0, 0x01), 0x01))\n      and\n      swap2\n      swap1\n      swap7\n      and\n      or\n      swap1\n      swap5\n      sstore\n      swap2\n      mload\n      0x8d1108e10bcb7c27dddfc02ed9d693a074039d026cf4ea4240b40f7d581ac803\n      dup6\n      add\n      sstore\n      swap4\n      mload\n      0x8d1108e10bcb7c27dddfc02ed9d693a074039d026cf4ea4240b40f7d581ac804\n      dup5\n      add\n      sstore\n      swap3\n      mload\n      0x8d1108e10bcb7c27dddfc02ed9d693a074039d026cf4ea4240b40f7d581ac805\n      dup4\n      add\n      sstore\n      mload\n      0x8d1108e10bcb7c27dddfc02ed9d693a074039d026cf4ea4240b40f7d581ac806\n      swap1\n      swap2\n      add\n      dup1\n      sload\n      not(0xff)\n      and\n      swap2\n      swap1\n      swap3\n      and\n      or\n      swap1\n      sstore\n        /* \"lotto4d.sol\":7428:8771  if (bet.numDigit == 4 && bet.guess == lastDrawResult) {... */\n      jump(tag_251)\n    tag_226:\n        /* \"lotto4d.sol\":7874:7877  bet */\n      dup1\n        /* \"lotto4d.sol\":7874:7886  bet.numDigit */\n      0x60\n      add\n      mload\n        /* \"lotto4d.sol\":7874:7891  bet.numDigit == 3 */\n      0xff\n      and\n        /* \"lotto4d.sol\":7890:7891  3 */\n      0x03\n        /* \"lotto4d.sol\":7874:7891  bet.numDigit == 3 */\n      eq\n        /* \"lotto4d.sol\":7874:7936  bet.numDigit == 3 && bet.guess % 1000 == lastDrawResult % 1000 */\n      dup1\n      iszero\n      tag_237\n      jumpi\n      pop\n        /* \"lotto4d.sol\":7932:7936  1000 */\n      0x03e8\n        /* \"lotto4d.sol\":7915:7929  lastDrawResult */\n      sload(0x0b)\n        /* \"lotto4d.sol\":7915:7936  lastDrawResult % 1000 */\n      tag_238\n      swap2\n      swap1\n      tag_212\n      jump\t// in\n    tag_238:\n        /* \"lotto4d.sol\":7907:7911  1000 */\n      0x03e8\n        /* \"lotto4d.sol\":7895:7898  bet */\n      dup3\n        /* \"lotto4d.sol\":7895:7904  bet.guess */\n      0x40\n      add\n      mload\n        /* \"lotto4d.sol\":7895:7911  bet.guess % 1000 */\n      tag_239\n      swap2\n      swap1\n      tag_212\n      jump\t// in\n    tag_239:\n        /* \"lotto4d.sol\":7895:7936  bet.guess % 1000 == lastDrawResult % 1000 */\n      eq\n        /* \"lotto4d.sol\":7874:7936  bet.numDigit == 3 && bet.guess % 1000 == lastDrawResult % 1000 */\n    tag_237:\n        /* \"lotto4d.sol\":7870:8771  if (bet.numDigit == 3 && bet.guess % 1000 == lastDrawResult % 1000) {... */\n      iszero\n      tag_240\n      jumpi\n        /* \"lotto4d.sol\":7957:7967  bet.amount */\n      0x20\n      dup2\n      add\n      mload\n        /* \"lotto4d.sol\":7957:7973  bet.amount * 350 */\n      tag_227\n      swap1\n        /* \"lotto4d.sol\":7970:7973  350 */\n      0x015e\n        /* \"lotto4d.sol\":7957:7973  bet.amount * 350 */\n      tag_228\n      jump\t// in\n        /* \"lotto4d.sol\":7870:8771  if (bet.numDigit == 3 && bet.guess % 1000 == lastDrawResult % 1000) {... */\n    tag_240:\n        /* \"lotto4d.sol\":8330:8333  bet */\n      dup1\n        /* \"lotto4d.sol\":8330:8342  bet.numDigit */\n      0x60\n      add\n      mload\n        /* \"lotto4d.sol\":8330:8347  bet.numDigit == 2 */\n      0xff\n      and\n        /* \"lotto4d.sol\":8346:8347  2 */\n      0x02\n        /* \"lotto4d.sol\":8330:8347  bet.numDigit == 2 */\n      eq\n        /* \"lotto4d.sol\":8330:8390  bet.numDigit == 2 && bet.guess % 100 == lastDrawResult % 100 */\n      dup1\n      iszero\n      tag_248\n      jumpi\n      pop\n        /* \"lotto4d.sol\":8387:8390  100 */\n      0x64\n        /* \"lotto4d.sol\":8370:8384  lastDrawResult */\n      sload(0x0b)\n        /* \"lotto4d.sol\":8370:8390  lastDrawResult % 100 */\n      tag_249\n      swap2\n      swap1\n      tag_212\n      jump\t// in\n    tag_249:\n        /* \"lotto4d.sol\":8363:8366  100 */\n      0x64\n        /* \"lotto4d.sol\":8351:8354  bet */\n      dup3\n        /* \"lotto4d.sol\":8351:8360  bet.guess */\n      0x40\n      add\n      mload\n        /* \"lotto4d.sol\":8351:8366  bet.guess % 100 */\n      tag_250\n      swap2\n      swap1\n      tag_212\n      jump\t// in\n    tag_250:\n        /* \"lotto4d.sol\":8351:8390  bet.guess % 100 == lastDrawResult % 100 */\n      eq\n        /* \"lotto4d.sol\":8330:8390  bet.numDigit == 2 && bet.guess % 100 == lastDrawResult % 100 */\n    tag_248:\n        /* \"lotto4d.sol\":8326:8771  if (bet.numDigit == 2 && bet.guess % 100 == lastDrawResult % 100) {... */\n      iszero\n      tag_251\n      jumpi\n        /* \"lotto4d.sol\":8410:8420  bet.amount */\n      0x20\n      dup2\n      add\n      mload\n        /* \"lotto4d.sol\":8410:8425  bet.amount * 70 */\n      tag_252\n      swap1\n        /* \"lotto4d.sol\":8423:8425  70 */\n      0x46\n        /* \"lotto4d.sol\":8410:8425  bet.amount * 70 */\n      tag_228\n      jump\t// in\n    tag_252:\n        /* \"lotto4d.sol\":8465:8469  this */\n      address\n        /* \"lotto4d.sol\":8447:8471  _balances[address(this)] */\n      0x00\n      swap1\n      dup2\n      mstore\n        /* \"lotto4d.sol\":8447:8456  _balances */\n      0x05\n        /* \"lotto4d.sol\":8447:8471  _balances[address(this)] */\n      0x20\n      mstore\n      0x40\n      swap1\n      keccak256\n      sload\n        /* \"lotto4d.sol\":8401:8425  payout = bet.amount * 70 */\n      swap1\n      swap4\n      pop\n        /* \"lotto4d.sol\":8447:8481  _balances[address(this)] >= payout */\n      dup4\n      gt\n      iszero\n        /* \"lotto4d.sol\":8439:8515  require(_balances[address(this)] >= payout, \"Insufficient contract balance\") */\n      tag_253\n      jumpi\n      mload(0x40)\n      shl(0xe5, 0x461bcd)\n      dup2\n      mstore\n      0x04\n      add\n      tag_206\n      swap1\n      tag_231\n      jump\t// in\n    tag_253:\n        /* \"lotto4d.sol\":8539:8549  bet.player */\n      dup1\n      mload\n      sub(shl(0xa0, 0x01), 0x01)\n        /* \"lotto4d.sol\":8529:8550  _balances[bet.player] */\n      and\n      0x00\n      swap1\n      dup2\n      mstore\n        /* \"lotto4d.sol\":8529:8538  _balances */\n      0x05\n        /* \"lotto4d.sol\":8529:8550  _balances[bet.player] */\n      0x20\n      mstore\n      0x40\n      dup2\n      keccak256\n        /* \"lotto4d.sol\":8529:8560  _balances[bet.player] += payout */\n      dup1\n      sload\n        /* \"lotto4d.sol\":8554:8560  payout */\n      dup6\n      swap3\n        /* \"lotto4d.sol\":8529:8550  _balances[bet.player] */\n      swap1\n        /* \"lotto4d.sol\":8529:8560  _balances[bet.player] += payout */\n      tag_255\n      swap1\n        /* \"lotto4d.sol\":8554:8560  payout */\n      dup5\n      swap1\n        /* \"lotto4d.sol\":8529:8560  _balances[bet.player] += payout */\n      tag_204\n      jump\t// in\n    tag_255:\n      swap1\n      swap2\n      sstore\n      pop\n      pop\n        /* \"lotto4d.sol\":8592:8596  this */\n      address\n        /* \"lotto4d.sol\":8574:8598  _balances[address(this)] */\n      0x00\n      swap1\n      dup2\n      mstore\n        /* \"lotto4d.sol\":8574:8583  _balances */\n      0x05\n        /* \"lotto4d.sol\":8574:8598  _balances[address(this)] */\n      0x20\n      mstore\n      0x40\n      dup2\n      keccak256\n        /* \"lotto4d.sol\":8574:8608  _balances[address(this)] -= payout */\n      dup1\n      sload\n        /* \"lotto4d.sol\":8602:8608  payout */\n      dup6\n      swap3\n        /* \"lotto4d.sol\":8574:8598  _balances[address(this)] */\n      swap1\n        /* \"lotto4d.sol\":8574:8608  _balances[address(this)] -= payout */\n      tag_256\n      swap1\n        /* \"lotto4d.sol\":8602:8608  payout */\n      dup5\n      swap1\n        /* \"lotto4d.sol\":8574:8608  _balances[address(this)] -= payout */\n      tag_234\n      jump\t// in\n    tag_256:\n      swap1\n      swap2\n      sstore\n      pop\n      pop\n        /* \"lotto4d.sol\":8689:8762  WinnerLists(bet.player, lastDrawResult, bet.amount, payout, bet.numDigit) */\n      0x40\n      dup1\n      mload\n      0xa0\n      dup2\n      add\n      dup3\n      mstore\n        /* \"lotto4d.sol\":8701:8711  bet.player */\n      dup3\n      mload\n      sub(shl(0xa0, 0x01), 0x01)\n        /* \"lotto4d.sol\":8689:8762  WinnerLists(bet.player, lastDrawResult, bet.amount, payout, bet.numDigit) */\n      swap1\n      dup2\n      and\n      dup3\n      mstore\n        /* \"lotto4d.sol\":8713:8727  lastDrawResult */\n      sload(0x0b)\n        /* \"lotto4d.sol\":8689:8762  WinnerLists(bet.player, lastDrawResult, bet.amount, payout, bet.numDigit) */\n      0x20\n      dup1\n      dup5\n      add\n      swap2\n      dup3\n      mstore\n        /* \"lotto4d.sol\":8729:8739  bet.amount */\n      dup6\n      add\n      mload\n        /* \"lotto4d.sol\":8689:8762  WinnerLists(bet.player, lastDrawResult, bet.amount, payout, bet.numDigit) */\n      swap4\n      dup4\n      add\n      swap4\n      dup5\n      mstore\n      0x60\n      dup1\n      dup5\n      add\n      dup9\n      dup2\n      mstore\n        /* \"lotto4d.sol\":8749:8761  bet.numDigit */\n      swap1\n      dup7\n      add\n      mload\n        /* \"lotto4d.sol\":8689:8762  WinnerLists(bet.player, lastDrawResult, bet.amount, payout, bet.numDigit) */\n      0xff\n      swap1\n      dup2\n      and\n      0x80\n      dup7\n      add\n      swap1\n      dup2\n      mstore\n        /* \"lotto4d.sol\":8672:8683  winnerLists */\n      0x0f\n        /* \"lotto4d.sol\":8672:8763  winnerLists.push(WinnerLists(bet.player, lastDrawResult, bet.amount, payout, bet.numDigit)) */\n      dup1\n      sload\n      0x01\n      dup2\n      add\n      dup3\n      sstore\n      0x00\n      swap2\n      swap1\n      swap2\n      mstore\n      swap6\n      mload\n      0x8d1108e10bcb7c27dddfc02ed9d693a074039d026cf4ea4240b40f7d581ac802\n      0x05\n      swap1\n      swap8\n      mul\n      swap7\n      dup8\n      add\n      dup1\n      sload\n      not(sub(shl(0xa0, 0x01), 0x01))\n      and\n      swap2\n      swap1\n      swap7\n      and\n      or\n      swap1\n      swap5\n      sstore\n      swap2\n      mload\n      0x8d1108e10bcb7c27dddfc02ed9d693a074039d026cf4ea4240b40f7d581ac803\n      dup6\n      add\n      sstore\n      swap4\n      mload\n      0x8d1108e10bcb7c27dddfc02ed9d693a074039d026cf4ea4240b40f7d581ac804\n      dup5\n      add\n      sstore\n      swap3\n      mload\n      0x8d1108e10bcb7c27dddfc02ed9d693a074039d026cf4ea4240b40f7d581ac805\n      dup4\n      add\n      sstore\n      mload\n      0x8d1108e10bcb7c27dddfc02ed9d693a074039d026cf4ea4240b40f7d581ac806\n      swap1\n      swap2\n      add\n      dup1\n      sload\n      not(0xff)\n      and\n      swap2\n      swap1\n      swap3\n      and\n      or\n      swap1\n      sstore\n        /* \"lotto4d.sol\":8326:8771  if (bet.numDigit == 2 && bet.guess % 100 == lastDrawResult % 100) {... */\n    tag_251:\n      pop\n        /* \"lotto4d.sol\":7377:7380  i++ */\n      0x01\n      add\n        /* \"lotto4d.sol\":7340:8785  for (uint256 i = 0; i < bets.length; i++) {... */\n      jump(tag_218)\n    tag_219:\n      pop\n        /* \"lotto4d.sol\":8829:8838  uint256 i */\n      0x00\n        /* \"lotto4d.sol\":8824:8897  for (uint256 i = 0; i < bets.length; i++) {... */\n    tag_258:\n        /* \"lotto4d.sol\":8848:8852  bets */\n      0x10\n        /* \"lotto4d.sol\":8848:8859  bets.length */\n      sload\n        /* \"lotto4d.sol\":8844:8859  i < bets.length */\n      dup2\n      lt\n        /* \"lotto4d.sol\":8824:8897  for (uint256 i = 0; i < bets.length; i++) {... */\n      iszero\n      tag_259\n      jumpi\n        /* \"lotto4d.sol\":8883:8887  bets */\n      0x10\n        /* \"lotto4d.sol\":8888:8889  i */\n      dup2\n        /* \"lotto4d.sol\":8883:8890  bets[i] */\n      dup2\n      sload\n      dup2\n      lt\n      tag_262\n      jumpi\n      tag_262\n      tag_223\n      jump\t// in\n    tag_262:\n      0x00\n      swap2\n      dup3\n      mstore\n      0x20\n      dup3\n      keccak256\n      0x04\n      swap1\n      swap2\n      mul\n      add\n        /* \"lotto4d.sol\":8876:8890  delete bets[i] */\n      dup1\n      sload\n      not(sub(shl(0xa0, 0x01), 0x01))\n      and\n      dup2\n      sstore\n      0x01\n      dup1\n      dup3\n      add\n      dup4\n      swap1\n      sstore\n      0x02\n      dup3\n      add\n      swap3\n      swap1\n      swap3\n      sstore\n      0x03\n      add\n      dup1\n      sload\n      not(0xff)\n      and\n      swap1\n      sstore\n        /* \"lotto4d.sol\":8861:8864  i++ */\n      add\n        /* \"lotto4d.sol\":8824:8897  for (uint256 i = 0; i < bets.length; i++) {... */\n      jump(tag_258)\n    tag_259:\n      pop\n        /* \"lotto4d.sol\":8902:8953  while (bets.length > 0) {... */\n    tag_264:\n        /* \"lotto4d.sol\":8909:8913  bets */\n      0x10\n        /* \"lotto4d.sol\":8909:8920  bets.length */\n      sload\n        /* \"lotto4d.sol\":8909:8924  bets.length > 0 */\n      iszero\n        /* \"lotto4d.sol\":8902:8953  while (bets.length > 0) {... */\n      tag_265\n      jumpi\n        /* \"lotto4d.sol\":8936:8940  bets */\n      0x10\n        /* \"lotto4d.sol\":8936:8946  bets.pop() */\n      dup1\n      sload\n      dup1\n      tag_267\n      jumpi\n      tag_267\n      tag_268\n      jump\t// in\n    tag_267:\n      0x00\n      dup3\n      dup2\n      mstore\n      0x20\n      dup2\n      keccak256\n      0x04\n      not(0x00)\n      swap1\n      swap4\n      add\n      swap3\n      dup4\n      mul\n      add\n      dup1\n      sload\n      not(sub(shl(0xa0, 0x01), 0x01))\n      and\n      dup2\n      sstore\n      0x01\n      dup2\n      add\n      dup3\n      swap1\n      sstore\n      0x02\n      dup2\n      add\n      swap2\n      swap1\n      swap2\n      sstore\n      0x03\n      add\n      dup1\n      sload\n      not(0xff)\n      and\n      swap1\n      sstore\n      swap1\n      sstore\n        /* \"lotto4d.sol\":8902:8953  while (bets.length > 0) {... */\n      jump(tag_264)\n    tag_265:\n      pop\n      pop\n        /* \"lotto4d.sol\":8982:8997  block.timestamp */\n      timestamp\n        /* \"lotto4d.sol\":8962:8979  lastDrawTimestamp */\n      0x0a\n        /* \"lotto4d.sol\":8962:8997  lastDrawTimestamp = block.timestamp */\n      sstore\n      pop\n        /* \"lotto4d.sol\":6729:9004  function draw() external onlyAfterDrawTime {... */\n      jump\t// out\n        /* \"lotto4d.sol\":9019:9492  function getBetHistory() external view returns (Bet[] memory) {... */\n    tag_66:\n        /* \"lotto4d.sol\":9130:9134  bets */\n      0x10\n        /* \"lotto4d.sol\":9130:9141  bets.length */\n      sload\n        /* \"lotto4d.sol\":9067:9079  Bet[] memory */\n      0x60\n      swap1\n        /* \"lotto4d.sol\":9091:9117  Bet[] memory formattedBets */\n      0x00\n      swap1\n        /* \"lotto4d.sol\":9120:9142  new Bet[](bets.length) */\n      0xffffffffffffffff\n      dup2\n      gt\n      iszero\n      tag_273\n      jumpi\n      tag_273\n      tag_274\n      jump\t// in\n    tag_273:\n      mload(0x40)\n      swap1\n      dup1\n      dup3\n      mstore\n      dup1\n      0x20\n      mul\n      0x20\n      add\n      dup3\n      add\n      0x40\n      mstore\n      dup1\n      iszero\n      tag_275\n      jumpi\n      dup2\n      0x20\n      add\n    tag_276:\n      0x40\n      dup1\n      mload\n      0x80\n      dup2\n      add\n      dup3\n      mstore\n      0x00\n      dup1\n      dup3\n      mstore\n      0x20\n      dup1\n      dup4\n      add\n      dup3\n      swap1\n      mstore\n      swap3\n      dup3\n      add\n      dup2\n      swap1\n      mstore\n      0x60\n      dup3\n      add\n      mstore\n      dup3\n      mstore\n      not(0x00)\n      swap1\n      swap3\n      add\n      swap2\n      add\n      dup2\n      tag_276\n      jumpi\n      swap1\n      pop\n    tag_275:\n      pop\n        /* \"lotto4d.sol\":9091:9142  Bet[] memory formattedBets = new Bet[](bets.length) */\n      swap1\n      pop\n        /* \"lotto4d.sol\":9158:9167  uint256 i */\n      0x00\n        /* \"lotto4d.sol\":9153:9456  for (uint256 i = 0; i < bets.length; i++) {... */\n    tag_279:\n        /* \"lotto4d.sol\":9177:9181  bets */\n      0x10\n        /* \"lotto4d.sol\":9177:9188  bets.length */\n      sload\n        /* \"lotto4d.sol\":9173:9188  i < bets.length */\n      dup2\n      lt\n        /* \"lotto4d.sol\":9153:9456  for (uint256 i = 0; i < bets.length; i++) {... */\n      iszero\n      tag_280\n      jumpi\n        /* \"lotto4d.sol\":9208:9230  Bet memory originalBet */\n      0x00\n        /* \"lotto4d.sol\":9233:9237  bets */\n      0x10\n        /* \"lotto4d.sol\":9238:9239  i */\n      dup3\n        /* \"lotto4d.sol\":9233:9240  bets[i] */\n      dup2\n      sload\n      dup2\n      lt\n      tag_283\n      jumpi\n      tag_283\n      tag_223\n      jump\t// in\n    tag_283:\n      0x00\n      swap2\n      dup3\n      mstore\n      0x20\n      dup1\n      dup4\n      keccak256\n        /* \"lotto4d.sol\":9208:9240  Bet memory originalBet = bets[i] */\n      0x40\n      dup1\n      mload\n      0x80\n      dup2\n      add\n      dup3\n      mstore\n        /* \"lotto4d.sol\":9233:9240  bets[i] */\n      0x04\n      swap5\n      dup6\n      mul\n      swap1\n      swap3\n      add\n        /* \"lotto4d.sol\":9208:9240  Bet memory originalBet = bets[i] */\n      dup1\n      sload\n      sub(shl(0xa0, 0x01), 0x01)\n      and\n      dup4\n      mstore\n      0x01\n      dup2\n      add\n      sload\n      swap4\n      dup4\n      add\n      swap4\n      swap1\n      swap4\n      mstore\n      0x02\n      dup4\n      add\n      sload\n      swap1\n      dup3\n      add\n      dup2\n      swap1\n      mstore\n      0x03\n      swap1\n      swap3\n      add\n      sload\n      0xff\n      and\n      0x60\n      dup3\n      add\n      mstore\n      swap4\n      pop\n        /* \"lotto4d.sol\":9285:9323  uint256(originalBet.guess).toString(4) */\n      tag_285\n      swap2\n        /* \"lotto4d.sol\":9285:9320  uint256(originalBet.guess).toString */\n      tag_214\n        /* \"lotto4d.sol\":9285:9323  uint256(originalBet.guess).toString(4) */\n      jump\t// in\n    tag_285:\n        /* \"lotto4d.sol\":9254:9323  string memory formattedGuess = uint256(originalBet.guess).toString(4) */\n      swap1\n      pop\n        /* \"lotto4d.sol\":9356:9445  Bet(originalBet.player, originalBet.amount, toUint(formattedGuess), originalBet.numDigit) */\n      mload(0x40)\n      dup1\n      0x80\n      add\n      0x40\n      mstore\n      dup1\n        /* \"lotto4d.sol\":9360:9371  originalBet */\n      dup4\n        /* \"lotto4d.sol\":9360:9378  originalBet.player */\n      0x00\n      add\n      mload\n      sub(shl(0xa0, 0x01), 0x01)\n        /* \"lotto4d.sol\":9356:9445  Bet(originalBet.player, originalBet.amount, toUint(formattedGuess), originalBet.numDigit) */\n      and\n      dup2\n      mstore\n      0x20\n      add\n        /* \"lotto4d.sol\":9380:9391  originalBet */\n      dup4\n        /* \"lotto4d.sol\":9380:9398  originalBet.amount */\n      0x20\n      add\n      mload\n        /* \"lotto4d.sol\":9356:9445  Bet(originalBet.player, originalBet.amount, toUint(formattedGuess), originalBet.numDigit) */\n      dup2\n      mstore\n      0x20\n      add\n        /* \"lotto4d.sol\":9400:9422  toUint(formattedGuess) */\n      tag_286\n        /* \"lotto4d.sol\":9407:9421  formattedGuess */\n      dup4\n        /* \"lotto4d.sol\":9400:9406  toUint */\n      tag_169\n        /* \"lotto4d.sol\":9400:9422  toUint(formattedGuess) */\n      jump\t// in\n    tag_286:\n        /* \"lotto4d.sol\":9356:9445  Bet(originalBet.player, originalBet.amount, toUint(formattedGuess), originalBet.numDigit) */\n      dup2\n      mstore\n      0x20\n      add\n        /* \"lotto4d.sol\":9424:9435  originalBet */\n      dup4\n        /* \"lotto4d.sol\":9424:9444  originalBet.numDigit */\n      0x60\n      add\n      mload\n        /* \"lotto4d.sol\":9356:9445  Bet(originalBet.player, originalBet.amount, toUint(formattedGuess), originalBet.numDigit) */\n      0xff\n      and\n      dup2\n      mstore\n      pop\n        /* \"lotto4d.sol\":9337:9350  formattedBets */\n      dup5\n        /* \"lotto4d.sol\":9351:9352  i */\n      dup5\n        /* \"lotto4d.sol\":9337:9353  formattedBets[i] */\n      dup2\n      mload\n      dup2\n      lt\n      tag_288\n      jumpi\n      tag_288\n      tag_223\n      jump\t// in\n    tag_288:\n      0x20\n      swap1\n      dup2\n      mul\n      swap2\n      swap1\n      swap2\n      add\n      add\n        /* \"lotto4d.sol\":9337:9445  formattedBets[i] = Bet(originalBet.player, originalBet.amount, toUint(formattedGuess), originalBet.numDigit) */\n      mstore\n      pop\n      pop\n        /* \"lotto4d.sol\":9190:9193  i++ */\n      0x01\n      add\n        /* \"lotto4d.sol\":9153:9456  for (uint256 i = 0; i < bets.length; i++) {... */\n      jump(tag_279)\n    tag_280:\n      pop\n        /* \"lotto4d.sol\":9472:9485  formattedBets */\n      swap2\n        /* \"lotto4d.sol\":9019:9492  function getBetHistory() external view returns (Bet[] memory) {... */\n      swap1\n      pop\n      jump\t// out\n        /* \"lotto4d.sol\":6069:6173  function setMaximumBet(uint256 _maximumBet) external onlyOwner {... */\n    tag_72:\n        /* \"@openzeppelin/contracts/access/Ownable.sol\":1531:1544  _checkOwner() */\n      tag_290\n        /* \"@openzeppelin/contracts/access/Ownable.sol\":1531:1542  _checkOwner */\n      tag_291\n        /* \"@openzeppelin/contracts/access/Ownable.sol\":1531:1544  _checkOwner() */\n      jump\t// in\n    tag_290:\n        /* \"lotto4d.sol\":6142:6152  maximumBet */\n      0x08\n        /* \"lotto4d.sol\":6142:6166  maximumBet = _maximumBet */\n      sstore\n        /* \"lotto4d.sol\":6069:6173  function setMaximumBet(uint256 _maximumBet) external onlyOwner {... */\n      jump\t// out\n        /* \"lotto4d.sol\":4364:4381  Bet[] public bets */\n    tag_78:\n      0x10\n      dup2\n      dup2\n      sload\n      dup2\n      lt\n      tag_293\n      jumpi\n      0x00\n      dup1\n      revert\n    tag_293:\n      0x00\n      swap2\n      dup3\n      mstore\n      0x20\n      swap1\n      swap2\n      keccak256\n      0x04\n      swap1\n      swap2\n      mul\n      add\n      dup1\n      sload\n      0x01\n      dup3\n      add\n      sload\n      0x02\n      dup4\n      add\n      sload\n      0x03\n      swap1\n      swap4\n      add\n      sload\n      sub(shl(0xa0, 0x01), 0x01)\n      swap1\n      swap3\n      and\n      swap4\n      pop\n      swap2\n      swap1\n      0xff\n      and\n      dup5\n      jump\t// out\n        /* \"lotto4d.sol\":2460:2720  function transferFrom(address sender, address recipient, uint256 amount) external override returns (bool) {... */\n    tag_84:\n        /* \"lotto4d.sol\":2560:2564  bool */\n      0x00\n        /* \"lotto4d.sol\":2576:2612  _transfer(sender, recipient, amount) */\n      tag_296\n        /* \"lotto4d.sol\":2586:2592  sender */\n      dup5\n        /* \"lotto4d.sol\":2594:2603  recipient */\n      dup5\n        /* \"lotto4d.sol\":2605:2611  amount */\n      dup5\n        /* \"lotto4d.sol\":2576:2585  _transfer */\n      tag_297\n        /* \"lotto4d.sol\":2576:2612  _transfer(sender, recipient, amount) */\n      jump\t// in\n    tag_296:\n      sub(shl(0xa0, 0x01), 0x01)\n        /* \"lotto4d.sol\":2651:2670  _allowances[sender] */\n      dup5\n      and\n      0x00\n      swap1\n      dup2\n      mstore\n        /* \"lotto4d.sol\":2651:2662  _allowances */\n      0x06\n        /* \"lotto4d.sol\":2651:2670  _allowances[sender] */\n      0x20\n      swap1\n      dup2\n      mstore\n      0x40\n      dup1\n      dup4\n      keccak256\n        /* \"lotto4d.sol\":2639:2649  msg.sender */\n      caller\n        /* \"lotto4d.sol\":2651:2682  _allowances[sender][msg.sender] */\n      dup1\n      dup6\n      mstore\n      swap3\n      mstore\n      swap1\n      swap2\n      keccak256\n      sload\n        /* \"lotto4d.sol\":2622:2692  _approve(sender, msg.sender, _allowances[sender][msg.sender] - amount) */\n      tag_298\n      swap2\n        /* \"lotto4d.sol\":2631:2637  sender */\n      dup7\n      swap2\n        /* \"lotto4d.sol\":2651:2691  _allowances[sender][msg.sender] - amount */\n      tag_299\n      swap1\n        /* \"lotto4d.sol\":2685:2691  amount */\n      dup7\n      swap1\n        /* \"lotto4d.sol\":2651:2691  _allowances[sender][msg.sender] - amount */\n      tag_234\n      jump\t// in\n    tag_299:\n        /* \"lotto4d.sol\":2622:2630  _approve */\n      tag_201\n        /* \"lotto4d.sol\":2622:2692  _approve(sender, msg.sender, _allowances[sender][msg.sender] - amount) */\n      jump\t// in\n    tag_298:\n      pop\n        /* \"lotto4d.sol\":2709:2713  true */\n      0x01\n        /* \"lotto4d.sol\":2460:2720  function transferFrom(address sender, address recipient, uint256 amount) external override returns (bool) {... */\n      swap4\n      swap3\n      pop\n      pop\n      pop\n      jump\t// out\n        /* \"lotto4d.sol\":2726:2928  function increaseAllowance(address spender, uint256 addedValue) external returns (bool) {... */\n    tag_95:\n        /* \"lotto4d.sol\":2833:2843  msg.sender */\n      caller\n        /* \"lotto4d.sol\":2808:2812  bool */\n      0x00\n        /* \"lotto4d.sol\":2854:2877  _allowances[msg.sender] */\n      dup2\n      dup2\n      mstore\n        /* \"lotto4d.sol\":2854:2865  _allowances */\n      0x06\n        /* \"lotto4d.sol\":2854:2877  _allowances[msg.sender] */\n      0x20\n      swap1\n      dup2\n      mstore\n      0x40\n      dup1\n      dup4\n      keccak256\n      sub(shl(0xa0, 0x01), 0x01)\n        /* \"lotto4d.sol\":2854:2886  _allowances[msg.sender][spender] */\n      dup8\n      and\n      dup5\n      mstore\n      swap1\n      swap2\n      mstore\n      dup2\n      keccak256\n      sload\n        /* \"lotto4d.sol\":2808:2812  bool */\n      swap1\n      swap2\n        /* \"lotto4d.sol\":2824:2900  _approve(msg.sender, spender, _allowances[msg.sender][spender] + addedValue) */\n      tag_200\n      swap2\n        /* \"lotto4d.sol\":2845:2852  spender */\n      dup6\n      swap1\n        /* \"lotto4d.sol\":2854:2899  _allowances[msg.sender][spender] + addedValue */\n      tag_299\n      swap1\n        /* \"lotto4d.sol\":2889:2899  addedValue */\n      dup7\n      swap1\n        /* \"lotto4d.sol\":2854:2899  _allowances[msg.sender][spender] + addedValue */\n      tag_204\n      jump\t// in\n        /* \"lotto4d.sol\":4864:5953  function placeBatchBetsWithToken(uint16[] memory guesses, uint256[] memory amounts, uint8[] memory numDigit) external onlyBeforeDrawTime {... */\n    tag_100:\n        /* \"lotto4d.sol\":4656:4664  drawTime */\n      sload(0x09)\n        /* \"lotto4d.sol\":4636:4653  lastDrawTimestamp */\n      sload(0x0a)\n        /* \"lotto4d.sol\":4636:4664  lastDrawTimestamp + drawTime */\n      tag_304\n      swap2\n      swap1\n      tag_204\n      jump\t// in\n    tag_304:\n        /* \"lotto4d.sol\":4618:4633  block.timestamp */\n      timestamp\n        /* \"lotto4d.sol\":4618:4664  block.timestamp < lastDrawTimestamp + drawTime */\n      lt\n        /* \"lotto4d.sol\":4610:4689  require(block.timestamp < lastDrawTimestamp + drawTime, \"Draw time has passed\") */\n      tag_305\n      jumpi\n      mload(0x40)\n      shl(0xe5, 0x461bcd)\n      dup2\n      mstore\n        /* \"#utility.yul\":13785:13787   */\n      0x20\n        /* \"lotto4d.sol\":4610:4689  require(block.timestamp < lastDrawTimestamp + drawTime, \"Draw time has passed\") */\n      0x04\n      dup3\n      add\n        /* \"#utility.yul\":13767:13788   */\n      mstore\n        /* \"#utility.yul\":13824:13826   */\n      0x14\n        /* \"#utility.yul\":13804:13822   */\n      0x24\n      dup3\n      add\n        /* \"#utility.yul\":13797:13827   */\n      mstore\n      shl(0x62, 0x111c985dc81d1a5b59481a185cc81c185cdcd959)\n        /* \"#utility.yul\":13843:13861   */\n      0x44\n      dup3\n      add\n        /* \"#utility.yul\":13836:13886   */\n      mstore\n        /* \"#utility.yul\":13903:13921   */\n      0x64\n      add\n        /* \"lotto4d.sol\":4610:4689  require(block.timestamp < lastDrawTimestamp + drawTime, \"Draw time has passed\") */\n      tag_206\n        /* \"#utility.yul\":13583:13927   */\n      jump\n        /* \"lotto4d.sol\":4610:4689  require(block.timestamp < lastDrawTimestamp + drawTime, \"Draw time has passed\") */\n    tag_305:\n        /* \"lotto4d.sol\":5036:5037  0 */\n      0x00\n        /* \"lotto4d.sol\":5019:5026  guesses */\n      dup4\n        /* \"lotto4d.sol\":5019:5033  guesses.length */\n      mload\n        /* \"lotto4d.sol\":5019:5037  guesses.length > 0 */\n      gt\n        /* \"lotto4d.sol\":5019:5073  guesses.length > 0 && guesses.length == amounts.length */\n      dup1\n      iszero\n      tag_309\n      jumpi\n      pop\n        /* \"lotto4d.sol\":5059:5066  amounts */\n      dup2\n        /* \"lotto4d.sol\":5059:5073  amounts.length */\n      mload\n        /* \"lotto4d.sol\":5041:5048  guesses */\n      dup4\n        /* \"lotto4d.sol\":5041:5055  guesses.length */\n      mload\n        /* \"lotto4d.sol\":5041:5073  guesses.length == amounts.length */\n      eq\n        /* \"lotto4d.sol\":5019:5073  guesses.length > 0 && guesses.length == amounts.length */\n    tag_309:\n        /* \"lotto4d.sol\":5011:5100  require(guesses.length > 0 && guesses.length == amounts.length, \"Invalid batch bet data\") */\n      tag_310\n      jumpi\n      mload(0x40)\n      shl(0xe5, 0x461bcd)\n      dup2\n      mstore\n        /* \"#utility.yul\":14134:14136   */\n      0x20\n        /* \"lotto4d.sol\":5011:5100  require(guesses.length > 0 && guesses.length == amounts.length, \"Invalid batch bet data\") */\n      0x04\n      dup3\n      add\n        /* \"#utility.yul\":14116:14137   */\n      mstore\n        /* \"#utility.yul\":14173:14175   */\n      0x16\n        /* \"#utility.yul\":14153:14171   */\n      0x24\n      dup3\n      add\n        /* \"#utility.yul\":14146:14176   */\n      mstore\n      shl(0x50, 0x496e76616c6964206261746368206265742064617461)\n        /* \"#utility.yul\":14192:14210   */\n      0x44\n      dup3\n      add\n        /* \"#utility.yul\":14185:14237   */\n      mstore\n        /* \"#utility.yul\":14254:14272   */\n      0x64\n      add\n        /* \"lotto4d.sol\":5011:5100  require(guesses.length > 0 && guesses.length == amounts.length, \"Invalid batch bet data\") */\n      tag_206\n        /* \"#utility.yul\":13932:14278   */\n      jump\n        /* \"lotto4d.sol\":5011:5100  require(guesses.length > 0 && guesses.length == amounts.length, \"Invalid batch bet data\") */\n    tag_310:\n        /* \"lotto4d.sol\":5110:5134  uint256 totalBatchAmount */\n      0x00\n        /* \"lotto4d.sol\":5148:5172  uint256 totalBatchPlaced */\n      dup1\n        /* \"lotto4d.sol\":5192:5201  uint256 i */\n      0x00\n        /* \"lotto4d.sol\":5187:5778  for (uint256 i = 0; i < guesses.length; i++) {... */\n    tag_313:\n        /* \"lotto4d.sol\":5211:5218  guesses */\n      dup6\n        /* \"lotto4d.sol\":5211:5225  guesses.length */\n      mload\n        /* \"lotto4d.sol\":5207:5208  i */\n      dup2\n        /* \"lotto4d.sol\":5207:5225  i < guesses.length */\n      lt\n        /* \"lotto4d.sol\":5187:5778  for (uint256 i = 0; i < guesses.length; i++) {... */\n      iszero\n      tag_314\n      jumpi\n        /* \"lotto4d.sol\":5268:5278  minimumBet */\n      sload(0x07)\n        /* \"lotto4d.sol\":5254:5261  amounts */\n      dup6\n        /* \"lotto4d.sol\":5262:5263  i */\n      dup3\n        /* \"lotto4d.sol\":5254:5264  amounts[i] */\n      dup2\n      mload\n      dup2\n      lt\n      tag_317\n      jumpi\n      tag_317\n      tag_223\n      jump\t// in\n    tag_317:\n      0x20\n      mul\n      0x20\n      add\n      add\n      mload\n        /* \"lotto4d.sol\":5254:5278  amounts[i] >= minimumBet */\n      lt\n      iszero\n        /* \"lotto4d.sol\":5254:5306  amounts[i] >= minimumBet && amounts[i] <= maximumBet */\n      dup1\n      iszero\n      tag_318\n      jumpi\n      pop\n        /* \"lotto4d.sol\":5296:5306  maximumBet */\n      sload(0x08)\n        /* \"lotto4d.sol\":5282:5289  amounts */\n      dup6\n        /* \"lotto4d.sol\":5290:5291  i */\n      dup3\n        /* \"lotto4d.sol\":5282:5292  amounts[i] */\n      dup2\n      mload\n      dup2\n      lt\n      tag_320\n      jumpi\n      tag_320\n      tag_223\n      jump\t// in\n    tag_320:\n      0x20\n      mul\n      0x20\n      add\n      add\n      mload\n        /* \"lotto4d.sol\":5282:5306  amounts[i] <= maximumBet */\n      gt\n      iszero\n        /* \"lotto4d.sol\":5254:5306  amounts[i] >= minimumBet && amounts[i] <= maximumBet */\n    tag_318:\n        /* \"lotto4d.sol\":5246:5329  require(amounts[i] >= minimumBet && amounts[i] <= maximumBet, \"Invalid bet amount\") */\n      tag_321\n      jumpi\n      mload(0x40)\n      shl(0xe5, 0x461bcd)\n      dup2\n      mstore\n        /* \"#utility.yul\":14485:14487   */\n      0x20\n        /* \"lotto4d.sol\":5246:5329  require(amounts[i] >= minimumBet && amounts[i] <= maximumBet, \"Invalid bet amount\") */\n      0x04\n      dup3\n      add\n        /* \"#utility.yul\":14467:14488   */\n      mstore\n        /* \"#utility.yul\":14524:14526   */\n      0x12\n        /* \"#utility.yul\":14504:14522   */\n      0x24\n      dup3\n      add\n        /* \"#utility.yul\":14497:14527   */\n      mstore\n      shl(0x72, 0x125b9d985b1a590818995d08185b5bdd5b9d)\n        /* \"#utility.yul\":14543:14561   */\n      0x44\n      dup3\n      add\n        /* \"#utility.yul\":14536:14584   */\n      mstore\n        /* \"#utility.yul\":14601:14619   */\n      0x64\n      add\n        /* \"lotto4d.sol\":5246:5329  require(amounts[i] >= minimumBet && amounts[i] <= maximumBet, \"Invalid bet amount\") */\n      tag_206\n        /* \"#utility.yul\":14283:14625   */\n      jump\n        /* \"lotto4d.sol\":5246:5329  require(amounts[i] >= minimumBet && amounts[i] <= maximumBet, \"Invalid bet amount\") */\n    tag_321:\n        /* \"lotto4d.sol\":5376:5383  amounts */\n      dup5\n        /* \"lotto4d.sol\":5384:5385  i */\n      dup2\n        /* \"lotto4d.sol\":5376:5386  amounts[i] */\n      dup2\n      mload\n      dup2\n      lt\n      tag_325\n      jumpi\n      tag_325\n      tag_223\n      jump\t// in\n    tag_325:\n      0x20\n      mul\n      0x20\n      add\n      add\n      mload\n        /* \"lotto4d.sol\":5351:5360  _balances */\n      0x05\n        /* \"lotto4d.sol\":5351:5372  _balances[msg.sender] */\n      0x00\n        /* \"lotto4d.sol\":5361:5371  msg.sender */\n      caller\n      sub(shl(0xa0, 0x01), 0x01)\n        /* \"lotto4d.sol\":5351:5372  _balances[msg.sender] */\n      and\n      sub(shl(0xa0, 0x01), 0x01)\n      and\n      dup2\n      mstore\n      0x20\n      add\n      swap1\n      dup2\n      mstore\n      0x20\n      add\n      0x00\n      keccak256\n      sload\n        /* \"lotto4d.sol\":5351:5386  _balances[msg.sender] >= amounts[i] */\n      lt\n      iszero\n        /* \"lotto4d.sol\":5343:5417  require(_balances[msg.sender] >= amounts[i], \"Insufficient token balance\") */\n      tag_326\n      jumpi\n      mload(0x40)\n      shl(0xe5, 0x461bcd)\n      dup2\n      mstore\n        /* \"#utility.yul\":14832:14834   */\n      0x20\n        /* \"lotto4d.sol\":5343:5417  require(_balances[msg.sender] >= amounts[i], \"Insufficient token balance\") */\n      0x04\n      dup3\n      add\n        /* \"#utility.yul\":14814:14835   */\n      mstore\n        /* \"#utility.yul\":14871:14873   */\n      0x1a\n        /* \"#utility.yul\":14851:14869   */\n      0x24\n      dup3\n      add\n        /* \"#utility.yul\":14844:14874   */\n      mstore\n        /* \"#utility.yul\":14910:14938   */\n      0x496e73756666696369656e7420746f6b656e2062616c616e6365000000000000\n        /* \"#utility.yul\":14890:14908   */\n      0x44\n      dup3\n      add\n        /* \"#utility.yul\":14883:14939   */\n      mstore\n        /* \"#utility.yul\":14956:14974   */\n      0x64\n      add\n        /* \"lotto4d.sol\":5343:5417  require(_balances[msg.sender] >= amounts[i], \"Insufficient token balance\") */\n      tag_206\n        /* \"#utility.yul\":14630:14980   */\n      jump\n        /* \"lotto4d.sol\":5343:5417  require(_balances[msg.sender] >= amounts[i], \"Insufficient token balance\") */\n    tag_326:\n        /* \"lotto4d.sol\":5485:5533  _transfer(msg.sender, address(this), amounts[i]) */\n      tag_329\n        /* \"lotto4d.sol\":5495:5505  msg.sender */\n      caller\n        /* \"lotto4d.sol\":5515:5519  this */\n      address\n        /* \"lotto4d.sol\":5522:5529  amounts */\n      dup8\n        /* \"lotto4d.sol\":5530:5531  i */\n      dup5\n        /* \"lotto4d.sol\":5522:5532  amounts[i] */\n      dup2\n      mload\n      dup2\n      lt\n      tag_331\n      jumpi\n      tag_331\n      tag_223\n      jump\t// in\n    tag_331:\n      0x20\n      mul\n      0x20\n      add\n      add\n      mload\n        /* \"lotto4d.sol\":5485:5494  _transfer */\n      tag_297\n        /* \"lotto4d.sol\":5485:5533  _transfer(msg.sender, address(this), amounts[i]) */\n      jump\t// in\n    tag_329:\n        /* \"lotto4d.sol\":5547:5551  bets */\n      0x10\n        /* \"lotto4d.sol\":5557:5609  Bet(msg.sender, amounts[i], guesses[i], numDigit[i]) */\n      mload(0x40)\n      dup1\n      0x80\n      add\n      0x40\n      mstore\n      dup1\n        /* \"lotto4d.sol\":5561:5571  msg.sender */\n      caller\n      sub(shl(0xa0, 0x01), 0x01)\n        /* \"lotto4d.sol\":5557:5609  Bet(msg.sender, amounts[i], guesses[i], numDigit[i]) */\n      and\n      dup2\n      mstore\n      0x20\n      add\n        /* \"lotto4d.sol\":5573:5580  amounts */\n      dup8\n        /* \"lotto4d.sol\":5581:5582  i */\n      dup5\n        /* \"lotto4d.sol\":5573:5583  amounts[i] */\n      dup2\n      mload\n      dup2\n      lt\n      tag_333\n      jumpi\n      tag_333\n      tag_223\n      jump\t// in\n    tag_333:\n      0x20\n      mul\n      0x20\n      add\n      add\n      mload\n        /* \"lotto4d.sol\":5557:5609  Bet(msg.sender, amounts[i], guesses[i], numDigit[i]) */\n      dup2\n      mstore\n      0x20\n      add\n        /* \"lotto4d.sol\":5585:5592  guesses */\n      dup9\n        /* \"lotto4d.sol\":5593:5594  i */\n      dup5\n        /* \"lotto4d.sol\":5585:5595  guesses[i] */\n      dup2\n      mload\n      dup2\n      lt\n      tag_335\n      jumpi\n      tag_335\n      tag_223\n      jump\t// in\n    tag_335:\n      0x20\n      mul\n      0x20\n      add\n      add\n      mload\n        /* \"lotto4d.sol\":5557:5609  Bet(msg.sender, amounts[i], guesses[i], numDigit[i]) */\n      0xffff\n      and\n      dup2\n      mstore\n      0x20\n      add\n        /* \"lotto4d.sol\":5597:5605  numDigit */\n      dup7\n        /* \"lotto4d.sol\":5606:5607  i */\n      dup5\n        /* \"lotto4d.sol\":5597:5608  numDigit[i] */\n      dup2\n      mload\n      dup2\n      lt\n      tag_337\n      jumpi\n      tag_337\n      tag_223\n      jump\t// in\n    tag_337:\n      0x20\n      swap1\n      dup2\n      mul\n      swap2\n      swap1\n      swap2\n      add\n      dup2\n      add\n      mload\n        /* \"lotto4d.sol\":5557:5609  Bet(msg.sender, amounts[i], guesses[i], numDigit[i]) */\n      0xff\n      swap1\n      dup2\n      and\n      swap1\n      swap3\n      mstore\n        /* \"lotto4d.sol\":5547:5610  bets.push(Bet(msg.sender, amounts[i], guesses[i], numDigit[i])) */\n      dup4\n      sload\n      0x01\n      dup1\n      dup3\n      add\n      dup7\n      sstore\n      0x00\n      swap6\n      dup7\n      mstore\n      swap5\n      dup3\n      swap1\n      keccak256\n      dup5\n      mload\n      0x04\n      swap1\n      swap3\n      mul\n      add\n      dup1\n      sload\n      not(sub(shl(0xa0, 0x01), 0x01))\n      and\n      sub(shl(0xa0, 0x01), 0x01)\n      swap1\n      swap3\n      and\n      swap2\n      swap1\n      swap2\n      or\n      dup2\n      sstore\n      swap1\n      dup4\n      add\n      mload\n      swap4\n      dup2\n      add\n      swap4\n      swap1\n      swap4\n      sstore\n      0x40\n      dup3\n      add\n      mload\n      0x02\n      dup5\n      add\n      sstore\n      0x60\n      swap1\n      swap2\n      add\n      mload\n      0x03\n      swap1\n      swap3\n      add\n      dup1\n      sload\n      not(0xff)\n      and\n      swap3\n      swap1\n      swap2\n      and\n      swap2\n      swap1\n      swap2\n      or\n      swap1\n      sstore\n        /* \"lotto4d.sol\":5644:5654  amounts[i] */\n      dup5\n      mload\n      dup6\n      swap1\n        /* \"lotto4d.sol\":5652:5653  i */\n      dup3\n      swap1\n        /* \"lotto4d.sol\":5644:5654  amounts[i] */\n      dup2\n      lt\n      tag_340\n      jumpi\n      tag_340\n      tag_223\n      jump\t// in\n    tag_340:\n      0x20\n      mul\n      0x20\n      add\n      add\n      mload\n        /* \"lotto4d.sol\":5624:5654  totalBatchAmount += amounts[i] */\n      dup4\n      tag_341\n      swap2\n      swap1\n      tag_204\n      jump\t// in\n    tag_341:\n      swap3\n      pop\n        /* \"lotto4d.sol\":5668:5689  totalBatchPlaced += 1 */\n      tag_342\n        /* \"lotto4d.sol\":5688:5689  1 */\n      0x01\n        /* \"lotto4d.sol\":5668:5689  totalBatchPlaced += 1 */\n      dup4\n      tag_204\n      jump\t// in\n    tag_342:\n      swap2\n      pop\n        /* \"lotto4d.sol\":5718:5728  msg.sender */\n      caller\n      sub(shl(0xa0, 0x01), 0x01)\n        /* \"lotto4d.sol\":5708:5766  BetPlaced(msg.sender, amounts[i], guesses[i], numDigit[i]) */\n      and\n      0xf1f7ab530f4e4459175331d052687384cc5db58d6dc4a5999f06998b5c34523c\n        /* \"lotto4d.sol\":5730:5737  amounts */\n      dup7\n        /* \"lotto4d.sol\":5738:5739  i */\n      dup4\n        /* \"lotto4d.sol\":5730:5740  amounts[i] */\n      dup2\n      mload\n      dup2\n      lt\n      tag_344\n      jumpi\n      tag_344\n      tag_223\n      jump\t// in\n    tag_344:\n      0x20\n      mul\n      0x20\n      add\n      add\n      mload\n        /* \"lotto4d.sol\":5742:5749  guesses */\n      dup9\n        /* \"lotto4d.sol\":5750:5751  i */\n      dup5\n        /* \"lotto4d.sol\":5742:5752  guesses[i] */\n      dup2\n      mload\n      dup2\n      lt\n      tag_346\n      jumpi\n      tag_346\n      tag_223\n      jump\t// in\n    tag_346:\n      0x20\n      mul\n      0x20\n      add\n      add\n      mload\n        /* \"lotto4d.sol\":5754:5762  numDigit */\n      dup8\n        /* \"lotto4d.sol\":5763:5764  i */\n      dup6\n        /* \"lotto4d.sol\":5754:5765  numDigit[i] */\n      dup2\n      mload\n      dup2\n      lt\n      tag_348\n      jumpi\n      tag_348\n      tag_223\n      jump\t// in\n    tag_348:\n      0x20\n      mul\n      0x20\n      add\n      add\n      mload\n        /* \"lotto4d.sol\":5708:5766  BetPlaced(msg.sender, amounts[i], guesses[i], numDigit[i]) */\n      mload(0x40)\n      tag_349\n      swap4\n      swap3\n      swap2\n      swap1\n        /* \"#utility.yul\":15181:15206   */\n      swap3\n      dup4\n      mstore\n        /* \"#utility.yul\":15254:15260   */\n      0xffff\n        /* \"#utility.yul\":15242:15261   */\n      swap2\n      swap1\n      swap2\n      and\n        /* \"#utility.yul\":15237:15239   */\n      0x20\n        /* \"#utility.yul\":15222:15240   */\n      dup4\n      add\n        /* \"#utility.yul\":15215:15262   */\n      mstore\n        /* \"#utility.yul\":15310:15314   */\n      0xff\n        /* \"#utility.yul\":15298:15315   */\n      and\n        /* \"#utility.yul\":15293:15295   */\n      0x40\n        /* \"#utility.yul\":15278:15296   */\n      dup3\n      add\n        /* \"#utility.yul\":15271:15316   */\n      mstore\n        /* \"#utility.yul\":15169:15171   */\n      0x60\n        /* \"#utility.yul\":15154:15172   */\n      add\n      swap1\n        /* \"#utility.yul\":14985:15322   */\n      jump\n        /* \"lotto4d.sol\":5708:5766  BetPlaced(msg.sender, amounts[i], guesses[i], numDigit[i]) */\n    tag_349:\n      mload(0x40)\n      dup1\n      swap2\n      sub\n      swap1\n      log2\n        /* \"lotto4d.sol\":5227:5230  i++ */\n      0x01\n      add\n        /* \"lotto4d.sol\":5187:5778  for (uint256 i = 0; i < guesses.length; i++) {... */\n      jump(tag_313)\n    tag_314:\n      pop\n        /* \"lotto4d.sol\":5799:5815  totalBatchPlaced */\n      dup1\n        /* \"lotto4d.sol\":5787:5795  betTotal */\n      0x0d\n      0x00\n        /* \"lotto4d.sol\":5787:5815  betTotal += totalBatchPlaced */\n      dup3\n      dup3\n      sload\n      tag_351\n      swap2\n      swap1\n      tag_204\n      jump\t// in\n    tag_351:\n      swap3\n      pop\n      pop\n      dup2\n      swap1\n      sstore\n      pop\n        /* \"lotto4d.sol\":5840:5856  totalBatchAmount */\n      dup2\n        /* \"lotto4d.sol\":5825:5836  amountTotal */\n      0x0e\n      0x00\n        /* \"lotto4d.sol\":5825:5856  amountTotal += totalBatchAmount */\n      dup3\n      dup3\n      sload\n      tag_352\n      swap2\n      swap1\n      tag_204\n      jump\t// in\n    tag_352:\n      swap1\n      swap2\n      sstore\n      pop\n      pop\n        /* \"lotto4d.sol\":5904:5914  msg.sender */\n      caller\n        /* \"lotto4d.sol\":5894:5915  _balances[msg.sender] */\n      0x00\n      swap1\n      dup2\n      mstore\n        /* \"lotto4d.sol\":5894:5903  _balances */\n      0x05\n        /* \"lotto4d.sol\":5894:5915  _balances[msg.sender] */\n      0x20\n      mstore\n      0x40\n      swap1\n      keccak256\n      sload\n        /* \"lotto4d.sol\":5874:5915  totalBatchAmount <= _balances[msg.sender] */\n      dup3\n      gt\n      iszero\n        /* \"lotto4d.sol\":5866:5946  require(totalBatchAmount <= _balances[msg.sender], \"Insufficient token balance\") */\n      tag_353\n      jumpi\n      mload(0x40)\n      shl(0xe5, 0x461bcd)\n      dup2\n      mstore\n        /* \"#utility.yul\":14832:14834   */\n      0x20\n        /* \"lotto4d.sol\":5866:5946  require(totalBatchAmount <= _balances[msg.sender], \"Insufficient token balance\") */\n      0x04\n      dup3\n      add\n        /* \"#utility.yul\":14814:14835   */\n      mstore\n        /* \"#utility.yul\":14871:14873   */\n      0x1a\n        /* \"#utility.yul\":14851:14869   */\n      0x24\n      dup3\n      add\n        /* \"#utility.yul\":14844:14874   */\n      mstore\n        /* \"#utility.yul\":14910:14938   */\n      0x496e73756666696369656e7420746f6b656e2062616c616e6365000000000000\n        /* \"#utility.yul\":14890:14908   */\n      0x44\n      dup3\n      add\n        /* \"#utility.yul\":14883:14939   */\n      mstore\n        /* \"#utility.yul\":14956:14974   */\n      0x64\n      add\n        /* \"lotto4d.sol\":5866:5946  require(totalBatchAmount <= _balances[msg.sender], \"Insufficient token balance\") */\n      tag_206\n        /* \"#utility.yul\":14630:14980   */\n      jump\n        /* \"lotto4d.sol\":5866:5946  require(totalBatchAmount <= _balances[msg.sender], \"Insufficient token balance\") */\n    tag_353:\n        /* \"lotto4d.sol\":5001:5953  {... */\n      pop\n      pop\n        /* \"lotto4d.sol\":4864:5953  function placeBatchBetsWithToken(uint16[] memory guesses, uint256[] memory amounts, uint8[] memory numDigit) external onlyBeforeDrawTime {... */\n      pop\n      pop\n      pop\n      jump\t// out\n        /* \"@openzeppelin/contracts/access/Ownable.sol\":2293:2394  function renounceOwnership() public virtual onlyOwner {... */\n    tag_113:\n        /* \"@openzeppelin/contracts/access/Ownable.sol\":1531:1544  _checkOwner() */\n      tag_359\n        /* \"@openzeppelin/contracts/access/Ownable.sol\":1531:1542  _checkOwner */\n      tag_291\n        /* \"@openzeppelin/contracts/access/Ownable.sol\":1531:1544  _checkOwner() */\n      jump\t// in\n    tag_359:\n        /* \"@openzeppelin/contracts/access/Ownable.sol\":2357:2387  _transferOwnership(address(0)) */\n      tag_361\n        /* \"@openzeppelin/contracts/access/Ownable.sol\":2384:2385  0 */\n      0x00\n        /* \"@openzeppelin/contracts/access/Ownable.sol\":2357:2375  _transferOwnership */\n      tag_362\n        /* \"@openzeppelin/contracts/access/Ownable.sol\":2357:2387  _transferOwnership(address(0)) */\n      jump\t// in\n    tag_361:\n        /* \"@openzeppelin/contracts/access/Ownable.sol\":2293:2394  function renounceOwnership() public virtual onlyOwner {... */\n      jump\t// out\n        /* \"lotto4d.sol\":10238:10344  function getWinnerLists() external view returns (WinnerLists[] memory) {... */\n    tag_115:\n        /* \"lotto4d.sol\":10287:10307  WinnerLists[] memory */\n      0x60\n        /* \"lotto4d.sol\":10326:10337  winnerLists */\n      0x0f\n        /* \"lotto4d.sol\":10319:10337  return winnerLists */\n      dup1\n      sload\n      dup1\n      0x20\n      mul\n      0x20\n      add\n      mload(0x40)\n      swap1\n      dup2\n      add\n      0x40\n      mstore\n      dup1\n      swap3\n      swap2\n      swap1\n      dup2\n      dup2\n      mstore\n      0x20\n      add\n      0x00\n      swap1\n    tag_364:\n      dup3\n      dup3\n      lt\n      iszero\n      tag_365\n      jumpi\n      0x00\n      dup5\n      dup2\n      mstore\n      0x20\n      swap1\n      dup2\n      swap1\n      keccak256\n      0x40\n      dup1\n      mload\n      0xa0\n      dup2\n      add\n      dup3\n      mstore\n      0x05\n      dup7\n      mul\n      swap1\n      swap3\n      add\n      dup1\n      sload\n      sub(shl(0xa0, 0x01), 0x01)\n      and\n      dup4\n      mstore\n      0x01\n      dup1\n      dup3\n      add\n      sload\n      dup5\n      dup7\n      add\n      mstore\n      0x02\n      dup3\n      add\n      sload\n      swap3\n      dup5\n      add\n      swap3\n      swap1\n      swap3\n      mstore\n      0x03\n      dup2\n      add\n      sload\n      0x60\n      dup5\n      add\n      mstore\n      0x04\n      add\n      sload\n      0xff\n      and\n      0x80\n      dup4\n      add\n      mstore\n      swap1\n      dup4\n      mstore\n      swap1\n      swap3\n      add\n      swap2\n      add\n      jump(tag_364)\n    tag_365:\n      pop\n      pop\n      pop\n      pop\n      swap1\n      pop\n        /* \"lotto4d.sol\":10238:10344  function getWinnerLists() external view returns (WinnerLists[] memory) {... */\n      swap1\n      jump\t// out\n        /* \"lotto4d.sol\":3970:4232  function withdrawL4D(uint256 amount) external onlyOwner {... */\n    tag_120:\n        /* \"@openzeppelin/contracts/access/Ownable.sol\":1531:1544  _checkOwner() */\n      tag_368\n        /* \"@openzeppelin/contracts/access/Ownable.sol\":1531:1542  _checkOwner */\n      tag_291\n        /* \"@openzeppelin/contracts/access/Ownable.sol\":1531:1544  _checkOwner() */\n      jump\t// in\n    tag_368:\n        /* \"lotto4d.sol\":4062:4066  this */\n      address\n        /* \"lotto4d.sol\":4044:4068  _balances[address(this)] */\n      0x00\n      swap1\n      dup2\n      mstore\n        /* \"lotto4d.sol\":4044:4053  _balances */\n      0x05\n        /* \"lotto4d.sol\":4044:4068  _balances[address(this)] */\n      0x20\n      mstore\n      0x40\n      swap1\n      keccak256\n      sload\n        /* \"lotto4d.sol\":4044:4078  _balances[address(this)] >= amount */\n      dup2\n      gt\n      iszero\n        /* \"lotto4d.sol\":4036:4112  require(_balances[address(this)] >= amount, \"Insufficient contract balance\") */\n      tag_370\n      jumpi\n      mload(0x40)\n      shl(0xe5, 0x461bcd)\n      dup2\n      mstore\n      0x04\n      add\n      tag_206\n      swap1\n      tag_231\n      jump\t// in\n    tag_370:\n        /* \"lotto4d.sol\":4184:4225  _transfer(address(this), owner(), amount) */\n      tag_372\n        /* \"lotto4d.sol\":4202:4206  this */\n      address\n        /* \"lotto4d.sol\":4209:4216  owner() */\n      tag_373\n        /* \"@openzeppelin/contracts/access/Ownable.sol\":1684:1691  address */\n      0x00\n        /* \"@openzeppelin/contracts/access/Ownable.sol\":1710:1716  _owner */\n      sload\n      sub(shl(0xa0, 0x01), 0x01)\n      and\n      swap1\n        /* \"@openzeppelin/contracts/access/Ownable.sol\":1638:1723  function owner() public view virtual returns (address) {... */\n      jump\n        /* \"lotto4d.sol\":4209:4216  owner() */\n    tag_373:\n        /* \"lotto4d.sol\":4218:4224  amount */\n      dup4\n        /* \"lotto4d.sol\":4184:4193  _transfer */\n      tag_297\n        /* \"lotto4d.sol\":4184:4225  _transfer(address(this), owner(), amount) */\n      jump\t// in\n    tag_372:\n        /* \"lotto4d.sol\":3970:4232  function withdrawL4D(uint256 amount) external onlyOwner {... */\n      pop\n      jump\t// out\n        /* \"lotto4d.sol\":5959:6063  function setMinimumBet(uint256 _minimumBet) external onlyOwner {... */\n    tag_123:\n        /* \"@openzeppelin/contracts/access/Ownable.sol\":1531:1544  _checkOwner() */\n      tag_375\n        /* \"@openzeppelin/contracts/access/Ownable.sol\":1531:1542  _checkOwner */\n      tag_291\n        /* \"@openzeppelin/contracts/access/Ownable.sol\":1531:1544  _checkOwner() */\n      jump\t// in\n    tag_375:\n        /* \"lotto4d.sol\":6032:6042  minimumBet */\n      0x07\n        /* \"lotto4d.sol\":6032:6056  minimumBet = _minimumBet */\n      sstore\n        /* \"lotto4d.sol\":5959:6063  function setMinimumBet(uint256 _minimumBet) external onlyOwner {... */\n      jump\t// out\n        /* \"lotto4d.sol\":336:364  string public symbol = \"L4D\" */\n    tag_135:\n      0x02\n      dup1\n      sload\n      tag_193\n      swap1\n      tag_194\n      jump\t// in\n        /* \"lotto4d.sol\":6179:6275  function setDrawTime(uint256 _drawTime) external onlyOwner {... */\n    tag_139:\n        /* \"@openzeppelin/contracts/access/Ownable.sol\":1531:1544  _checkOwner() */\n      tag_385\n        /* \"@openzeppelin/contracts/access/Ownable.sol\":1531:1542  _checkOwner */\n      tag_291\n        /* \"@openzeppelin/contracts/access/Ownable.sol\":1531:1544  _checkOwner() */\n      jump\t// in\n    tag_385:\n        /* \"lotto4d.sol\":6248:6256  drawTime */\n      0x09\n        /* \"lotto4d.sol\":6248:6268  drawTime = _drawTime */\n      sstore\n        /* \"lotto4d.sol\":6179:6275  function setDrawTime(uint256 _drawTime) external onlyOwner {... */\n      jump\t// out\n        /* \"lotto4d.sol\":1423:1455  WinnerLists[] public winnerLists */\n    tag_142:\n      0x0f\n      dup2\n      dup2\n      sload\n      dup2\n      lt\n      tag_387\n      jumpi\n      0x00\n      dup1\n      revert\n    tag_387:\n      0x00\n      swap2\n      dup3\n      mstore\n      0x20\n      swap1\n      swap2\n      keccak256\n      0x05\n      swap1\n      swap2\n      mul\n      add\n      dup1\n      sload\n      0x01\n      dup3\n      add\n      sload\n      0x02\n      dup4\n      add\n      sload\n      0x03\n      dup5\n      add\n      sload\n      0x04\n      swap1\n      swap5\n      add\n      sload\n      sub(shl(0xa0, 0x01), 0x01)\n      swap1\n      swap4\n      and\n      swap5\n      pop\n      swap1\n      swap3\n      swap1\n      swap2\n      0xff\n      and\n      dup6\n      jump\t// out\n        /* \"lotto4d.sol\":2934:3146  function decreaseAllowance(address spender, uint256 subtractedValue) external returns (bool) {... */\n    tag_150:\n        /* \"lotto4d.sol\":3046:3056  msg.sender */\n      caller\n        /* \"lotto4d.sol\":3021:3025  bool */\n      0x00\n        /* \"lotto4d.sol\":3067:3090  _allowances[msg.sender] */\n      dup2\n      dup2\n      mstore\n        /* \"lotto4d.sol\":3067:3078  _allowances */\n      0x06\n        /* \"lotto4d.sol\":3067:3090  _allowances[msg.sender] */\n      0x20\n      swap1\n      dup2\n      mstore\n      0x40\n      dup1\n      dup4\n      keccak256\n      sub(shl(0xa0, 0x01), 0x01)\n        /* \"lotto4d.sol\":3067:3099  _allowances[msg.sender][spender] */\n      dup8\n      and\n      dup5\n      mstore\n      swap1\n      swap2\n      mstore\n      dup2\n      keccak256\n      sload\n        /* \"lotto4d.sol\":3021:3025  bool */\n      swap1\n      swap2\n        /* \"lotto4d.sol\":3037:3118  _approve(msg.sender, spender, _allowances[msg.sender][spender] - subtractedValue) */\n      tag_200\n      swap2\n        /* \"lotto4d.sol\":3058:3065  spender */\n      dup6\n      swap1\n        /* \"lotto4d.sol\":3067:3117  _allowances[msg.sender][spender] - subtractedValue */\n      tag_299\n      swap1\n        /* \"lotto4d.sol\":3102:3117  subtractedValue */\n      dup7\n      swap1\n        /* \"lotto4d.sol\":3067:3117  _allowances[msg.sender][spender] - subtractedValue */\n      tag_234\n      jump\t// in\n        /* \"lotto4d.sol\":1977:2141  function transfer(address recipient, uint256 amount) external override returns (bool) {... */\n    tag_157:\n        /* \"lotto4d.sol\":2057:2061  bool */\n      0x00\n        /* \"lotto4d.sol\":2073:2113  _transfer(msg.sender, recipient, amount) */\n      tag_200\n        /* \"lotto4d.sol\":2083:2093  msg.sender */\n      caller\n        /* \"lotto4d.sol\":2095:2104  recipient */\n      dup5\n        /* \"lotto4d.sol\":2106:2112  amount */\n      dup5\n        /* \"lotto4d.sol\":2073:2082  _transfer */\n      tag_297\n        /* \"lotto4d.sol\":2073:2113  _transfer(msg.sender, recipient, amount) */\n      jump\t// in\n        /* \"lotto4d.sol\":9852:9960  function getAllDrawResults() external view returns (DrawResult[] memory) {... */\n    tag_163:\n        /* \"lotto4d.sol\":9904:9923  DrawResult[] memory */\n      0x60\n        /* \"lotto4d.sol\":9942:9953  drawResults */\n      0x0c\n        /* \"lotto4d.sol\":9935:9953  return drawResults */\n      dup1\n      sload\n      dup1\n      0x20\n      mul\n      0x20\n      add\n      mload(0x40)\n      swap1\n      dup2\n      add\n      0x40\n      mstore\n      dup1\n      swap3\n      swap2\n      swap1\n      dup2\n      dup2\n      mstore\n      0x20\n      add\n      0x00\n      swap1\n    tag_396:\n      dup3\n      dup3\n      lt\n      iszero\n      tag_365\n      jumpi\n      dup4\n      dup3\n      swap1\n      0x00\n      mstore\n      keccak256(0x00, 0x20)\n      swap1\n      0x02\n      mul\n      add\n      mload(0x40)\n      dup1\n      0x40\n      add\n      0x40\n      mstore\n      swap1\n      dup2\n      0x00\n      dup3\n      add\n      sload\n      dup2\n      mstore\n      0x20\n      add\n      0x01\n      dup3\n      add\n      sload\n      dup2\n      mstore\n      pop\n      pop\n      dup2\n      mstore\n      0x20\n      add\n      swap1\n      0x01\n      add\n      swap1\n      jump(tag_396)\n        /* \"lotto4d.sol\":6466:6724  function toUint(string memory s) public pure returns (uint256) {... */\n    tag_169:\n        /* \"lotto4d.sol\":6520:6527  uint256 */\n      0x00\n      dup1\n      dup1\n        /* \"lotto4d.sol\":6567:6695  for (uint256 i = 0; i < bytes(s).length; i++) {... */\n    tag_400:\n        /* \"lotto4d.sol\":6597:6598  s */\n      dup4\n        /* \"lotto4d.sol\":6591:6606  bytes(s).length */\n      mload\n        /* \"lotto4d.sol\":6587:6588  i */\n      dup2\n        /* \"lotto4d.sol\":6587:6606  i < bytes(s).length */\n      lt\n        /* \"lotto4d.sol\":6567:6695  for (uint256 i = 0; i < bytes(s).length; i++) {... */\n      iszero\n      tag_401\n      jumpi\n        /* \"lotto4d.sol\":6680:6682  48 */\n      0x30\n        /* \"lotto4d.sol\":6671:6672  s */\n      dup5\n        /* \"lotto4d.sol\":6674:6675  i */\n      dup3\n        /* \"lotto4d.sol\":6665:6676  bytes(s)[i] */\n      dup2\n      mload\n      dup2\n      lt\n      tag_404\n      jumpi\n      tag_404\n      tag_223\n      jump\t// in\n    tag_404:\n      add\n      0x20\n      add\n      mload\n        /* \"lotto4d.sol\":6659:6682  uint8(bytes(s)[i]) - 48 */\n      tag_405\n      swap2\n      swap1\n        /* \"lotto4d.sol\":6665:6676  bytes(s)[i] */\n      0xf8\n      shr\n        /* \"lotto4d.sol\":6659:6682  uint8(bytes(s)[i]) - 48 */\n      tag_406\n      jump\t// in\n    tag_405:\n        /* \"lotto4d.sol\":6651:6683  uint256(uint8(bytes(s)[i]) - 48) */\n      0xff\n      and\n        /* \"lotto4d.sol\":6636:6647  result * 10 */\n      tag_407\n        /* \"lotto4d.sol\":6636:6642  result */\n      dup4\n        /* \"lotto4d.sol\":6645:6647  10 */\n      0x0a\n        /* \"lotto4d.sol\":6636:6647  result * 10 */\n      tag_228\n      jump\t// in\n    tag_407:\n        /* \"lotto4d.sol\":6636:6684  result * 10 + (uint256(uint8(bytes(s)[i]) - 48)) */\n      tag_408\n      swap2\n      swap1\n      tag_204\n      jump\t// in\n    tag_408:\n        /* \"lotto4d.sol\":6627:6684  result = result * 10 + (uint256(uint8(bytes(s)[i]) - 48)) */\n      swap2\n      pop\n        /* \"lotto4d.sol\":6608:6611  i++ */\n      0x01\n      add\n        /* \"lotto4d.sol\":6567:6695  for (uint256 i = 0; i < bytes(s).length; i++) {... */\n      jump(tag_400)\n    tag_401:\n      pop\n        /* \"lotto4d.sol\":6711:6717  result */\n      swap3\n        /* \"lotto4d.sol\":6466:6724  function toUint(string memory s) public pure returns (uint256) {... */\n      swap2\n      pop\n      pop\n      jump\t// out\n        /* \"lotto4d.sol\":1077:1108  DrawResult[] public drawResults */\n    tag_187:\n      0x0c\n      dup2\n      dup2\n      sload\n      dup2\n      lt\n      tag_411\n      jumpi\n      0x00\n      dup1\n      revert\n    tag_411:\n      0x00\n      swap2\n      dup3\n      mstore\n      0x20\n      swap1\n      swap2\n      keccak256\n      0x02\n      swap1\n      swap2\n      mul\n      add\n      dup1\n      sload\n      0x01\n      swap1\n      swap2\n      add\n      sload\n      swap1\n      swap2\n      pop\n      dup3\n      jump\t// out\n        /* \"@openzeppelin/contracts/access/Ownable.sol\":2543:2758  function transferOwnership(address newOwner) public virtual onlyOwner {... */\n    tag_192:\n        /* \"@openzeppelin/contracts/access/Ownable.sol\":1531:1544  _checkOwner() */\n      tag_414\n        /* \"@openzeppelin/contracts/access/Ownable.sol\":1531:1542  _checkOwner */\n      tag_291\n        /* \"@openzeppelin/contracts/access/Ownable.sol\":1531:1544  _checkOwner() */\n      jump\t// in\n    tag_414:\n      sub(shl(0xa0, 0x01), 0x01)\n        /* \"@openzeppelin/contracts/access/Ownable.sol\":2627:2649  newOwner == address(0) */\n      dup2\n      and\n        /* \"@openzeppelin/contracts/access/Ownable.sol\":2623:2714  if (newOwner == address(0)) {... */\n      tag_416\n      jumpi\n        /* \"@openzeppelin/contracts/access/Ownable.sol\":2672:2703  OwnableInvalidOwner(address(0)) */\n      mload(0x40)\n      shl(0xe0, 0x1e4fbdf7)\n      dup2\n      mstore\n        /* \"@openzeppelin/contracts/access/Ownable.sol\":2700:2701  0 */\n      0x00\n        /* \"@openzeppelin/contracts/access/Ownable.sol\":2672:2703  OwnableInvalidOwner(address(0)) */\n      0x04\n      dup3\n      add\n        /* \"#utility.yul\":8503:8554   */\n      mstore\n        /* \"#utility.yul\":8476:8494   */\n      0x24\n      add\n        /* \"@openzeppelin/contracts/access/Ownable.sol\":2672:2703  OwnableInvalidOwner(address(0)) */\n      tag_206\n        /* \"#utility.yul\":8357:8560   */\n      jump\n        /* \"@openzeppelin/contracts/access/Ownable.sol\":2623:2714  if (newOwner == address(0)) {... */\n    tag_416:\n        /* \"@openzeppelin/contracts/access/Ownable.sol\":2723:2751  _transferOwnership(newOwner) */\n      tag_372\n        /* \"@openzeppelin/contracts/access/Ownable.sol\":2742:2750  newOwner */\n      dup2\n        /* \"@openzeppelin/contracts/access/Ownable.sol\":2723:2741  _transferOwnership */\n      tag_362\n        /* \"@openzeppelin/contracts/access/Ownable.sol\":2723:2751  _transferOwnership(newOwner) */\n      jump\t// in\n        /* \"lotto4d.sol\":3588:3905  function _approve(address owner, address spender, uint256 amount) internal {... */\n    tag_201:\n      sub(shl(0xa0, 0x01), 0x01)\n        /* \"lotto4d.sol\":3681:3700  owner != address(0) */\n      dup4\n      and\n        /* \"lotto4d.sol\":3673:3734  require(owner != address(0), \"Approve from the zero address\") */\n      tag_420\n      jumpi\n      mload(0x40)\n      shl(0xe5, 0x461bcd)\n      dup2\n      mstore\n        /* \"#utility.yul\":15685:15687   */\n      0x20\n        /* \"lotto4d.sol\":3673:3734  require(owner != address(0), \"Approve from the zero address\") */\n      0x04\n      dup3\n      add\n        /* \"#utility.yul\":15667:15688   */\n      mstore\n        /* \"#utility.yul\":15724:15726   */\n      0x1d\n        /* \"#utility.yul\":15704:15722   */\n      0x24\n      dup3\n      add\n        /* \"#utility.yul\":15697:15727   */\n      mstore\n        /* \"#utility.yul\":15763:15794   */\n      0x417070726f76652066726f6d20746865207a65726f2061646472657373000000\n        /* \"#utility.yul\":15743:15761   */\n      0x44\n      dup3\n      add\n        /* \"#utility.yul\":15736:15795   */\n      mstore\n        /* \"#utility.yul\":15812:15830   */\n      0x64\n      add\n        /* \"lotto4d.sol\":3673:3734  require(owner != address(0), \"Approve from the zero address\") */\n      tag_206\n        /* \"#utility.yul\":15483:15836   */\n      jump\n        /* \"lotto4d.sol\":3673:3734  require(owner != address(0), \"Approve from the zero address\") */\n    tag_420:\n      sub(shl(0xa0, 0x01), 0x01)\n        /* \"lotto4d.sol\":3752:3773  spender != address(0) */\n      dup3\n      and\n        /* \"lotto4d.sol\":3744:3805  require(spender != address(0), \"Approve to the zero address\") */\n      tag_423\n      jumpi\n      mload(0x40)\n      shl(0xe5, 0x461bcd)\n      dup2\n      mstore\n        /* \"#utility.yul\":16043:16045   */\n      0x20\n        /* \"lotto4d.sol\":3744:3805  require(spender != address(0), \"Approve to the zero address\") */\n      0x04\n      dup3\n      add\n        /* \"#utility.yul\":16025:16046   */\n      mstore\n        /* \"#utility.yul\":16082:16084   */\n      0x1b\n        /* \"#utility.yul\":16062:16080   */\n      0x24\n      dup3\n      add\n        /* \"#utility.yul\":16055:16085   */\n      mstore\n        /* \"#utility.yul\":16121:16150   */\n      0x417070726f766520746f20746865207a65726f20616464726573730000000000\n        /* \"#utility.yul\":16101:16119   */\n      0x44\n      dup3\n      add\n        /* \"#utility.yul\":16094:16151   */\n      mstore\n        /* \"#utility.yul\":16168:16186   */\n      0x64\n      add\n        /* \"lotto4d.sol\":3744:3805  require(spender != address(0), \"Approve to the zero address\") */\n      tag_206\n        /* \"#utility.yul\":15841:16192   */\n      jump\n        /* \"lotto4d.sol\":3744:3805  require(spender != address(0), \"Approve to the zero address\") */\n    tag_423:\n      sub(shl(0xa0, 0x01), 0x01)\n        /* \"lotto4d.sol\":3815:3833  _allowances[owner] */\n      dup4\n      dup2\n      and\n      0x00\n      dup2\n      dup2\n      mstore\n        /* \"lotto4d.sol\":3815:3826  _allowances */\n      0x06\n        /* \"lotto4d.sol\":3815:3833  _allowances[owner] */\n      0x20\n      swap1\n      dup2\n      mstore\n      0x40\n      dup1\n      dup4\n      keccak256\n        /* \"lotto4d.sol\":3815:3842  _allowances[owner][spender] */\n      swap5\n      dup8\n      and\n      dup1\n      dup5\n      mstore\n      swap5\n      dup3\n      mstore\n      swap2\n      dup3\n      swap1\n      keccak256\n        /* \"lotto4d.sol\":3815:3851  _allowances[owner][spender] = amount */\n      dup6\n      swap1\n      sstore\n        /* \"lotto4d.sol\":3866:3898  Approval(owner, spender, amount) */\n      swap1\n      mload\n        /* \"#utility.yul\":1342:1367   */\n      dup5\n      dup2\n      mstore\n        /* \"lotto4d.sol\":3866:3898  Approval(owner, spender, amount) */\n      0x8c5be1e5ebec7d5bd14f71427d1e84f3dd0314c0f7b2291e5b200ac8c7c3b925\n      swap2\n        /* \"#utility.yul\":1315:1333   */\n      add\n        /* \"lotto4d.sol\":3866:3898  Approval(owner, spender, amount) */\n    tag_426:\n      mload(0x40)\n      dup1\n      swap2\n      sub\n      swap1\n      log3\n        /* \"lotto4d.sol\":3588:3905  function _approve(address owner, address spender, uint256 amount) internal {... */\n      pop\n      pop\n      pop\n      jump\t// out\n        /* \"strutils.sol\":148:456  function toString(uint256 value, uint8 digits) internal pure returns (string memory) {... */\n    tag_214:\n        /* \"strutils.sol\":218:231  string memory */\n      0x60\n        /* \"strutils.sol\":243:262  bytes memory result */\n      0x00\n        /* \"strutils.sol\":275:281  digits */\n      dup3\n        /* \"strutils.sol\":265:282  new bytes(digits) */\n      0xff\n      and\n      0xffffffffffffffff\n      dup2\n      gt\n      iszero\n      tag_429\n      jumpi\n      tag_429\n      tag_274\n      jump\t// in\n    tag_429:\n      mload(0x40)\n      swap1\n      dup1\n      dup3\n      mstore\n      dup1\n      0x1f\n      add\n      not(0x1f)\n      and\n      0x20\n      add\n      dup3\n      add\n      0x40\n      mstore\n      dup1\n      iszero\n      tag_430\n      jumpi\n      0x20\n      dup3\n      add\n      dup2\n      dup1\n      calldatasize\n      dup4\n      calldatacopy\n      add\n      swap1\n      pop\n    tag_430:\n      pop\n        /* \"strutils.sol\":243:282  bytes memory result = new bytes(digits) */\n      swap1\n      pop\n        /* \"strutils.sol\":297:304  uint8 i */\n      0x00\n        /* \"strutils.sol\":292:419  for (uint8 i = 0; i < digits; i++) {... */\n    tag_431:\n        /* \"strutils.sol\":314:320  digits */\n      dup4\n        /* \"strutils.sol\":310:320  i < digits */\n      0xff\n      and\n        /* \"strutils.sol\":310:311  i */\n      dup2\n        /* \"strutils.sol\":310:320  i < digits */\n      0xff\n      and\n      lt\n        /* \"strutils.sol\":292:419  for (uint8 i = 0; i < digits; i++) {... */\n      iszero\n      tag_432\n      jumpi\n        /* \"strutils.sol\":404:406  10 */\n      0x0a\n        /* \"strutils.sol\":394:399  10**i */\n      tag_434\n        /* \"strutils.sol\":398:399  i */\n      dup3\n        /* \"strutils.sol\":404:406  10 */\n      dup3\n        /* \"strutils.sol\":394:399  10**i */\n      tag_435\n      jump\t// in\n    tag_434:\n        /* \"strutils.sol\":385:400  value / (10**i) */\n      tag_436\n      swap1\n        /* \"strutils.sol\":385:390  value */\n      dup8\n        /* \"strutils.sol\":385:400  value / (10**i) */\n      tag_437\n      jump\t// in\n    tag_436:\n        /* \"strutils.sol\":384:406  (value / (10**i)) % 10 */\n      tag_438\n      swap2\n      swap1\n      tag_212\n      jump\t// in\n    tag_438:\n        /* \"strutils.sol\":379:406  48 + (value / (10**i)) % 10 */\n      tag_439\n      swap1\n        /* \"strutils.sol\":379:381  48 */\n      0x30\n        /* \"strutils.sol\":379:406  48 + (value / (10**i)) % 10 */\n      tag_204\n      jump\t// in\n    tag_439:\n        /* \"strutils.sol\":366:408  bytes1(uint8(48 + (value / (10**i)) % 10)) */\n      0xf8\n      shl\n        /* \"strutils.sol\":341:347  result */\n      dup3\n        /* \"strutils.sol\":361:362  i */\n      dup3\n        /* \"strutils.sol\":348:358  digits - 1 */\n      tag_440\n        /* \"strutils.sol\":357:358  1 */\n      0x01\n        /* \"strutils.sol\":348:354  digits */\n      dup9\n        /* \"strutils.sol\":348:358  digits - 1 */\n      tag_406\n      jump\t// in\n    tag_440:\n        /* \"strutils.sol\":348:362  digits - 1 - i */\n      tag_441\n      swap2\n      swap1\n      tag_406\n      jump\t// in\n    tag_441:\n        /* \"strutils.sol\":341:363  result[digits - 1 - i] */\n      0xff\n      and\n      dup2\n      mload\n      dup2\n      lt\n      tag_443\n      jumpi\n      tag_443\n      tag_223\n      jump\t// in\n    tag_443:\n      0x20\n      add\n      add\n        /* \"strutils.sol\":341:408  result[digits - 1 - i] = bytes1(uint8(48 + (value / (10**i)) % 10)) */\n      swap1\n      not(sub(shl(0xf8, 0x01), 0x01))\n      and\n      swap1\n      dup2\n      0x00\n      byte\n      swap1\n      mstore8\n      pop\n        /* \"strutils.sol\":322:325  i++ */\n      0x01\n      add\n        /* \"strutils.sol\":292:419  for (uint8 i = 0; i < digits; i++) {... */\n      jump(tag_431)\n    tag_432:\n      pop\n        /* \"strutils.sol\":442:448  result */\n      swap4\n        /* \"strutils.sol\":148:456  function toString(uint256 value, uint8 digits) internal pure returns (string memory) {... */\n      swap3\n      pop\n      pop\n      pop\n      jump\t// out\n        /* \"@openzeppelin/contracts/access/Ownable.sol\":1796:1958  function _checkOwner() internal view virtual {... */\n    tag_291:\n        /* \"@openzeppelin/contracts/access/Ownable.sol\":1684:1691  address */\n      0x00\n        /* \"@openzeppelin/contracts/access/Ownable.sol\":1710:1716  _owner */\n      sload\n      sub(shl(0xa0, 0x01), 0x01)\n      and\n        /* \"@openzeppelin/contracts/utils/Context.sol\":735:745  msg.sender */\n      caller\n        /* \"@openzeppelin/contracts/access/Ownable.sol\":1855:1878  owner() != _msgSender() */\n      eq\n        /* \"@openzeppelin/contracts/access/Ownable.sol\":1851:1952  if (owner() != _msgSender()) {... */\n      tag_361\n      jumpi\n        /* \"@openzeppelin/contracts/access/Ownable.sol\":1901:1941  OwnableUnauthorizedAccount(_msgSender()) */\n      mload(0x40)\n      shl(0xe0, 0x118cdaa7)\n      dup2\n      mstore\n        /* \"@openzeppelin/contracts/utils/Context.sol\":735:745  msg.sender */\n      caller\n        /* \"@openzeppelin/contracts/access/Ownable.sol\":1901:1941  OwnableUnauthorizedAccount(_msgSender()) */\n      0x04\n      dup3\n      add\n        /* \"#utility.yul\":8503:8554   */\n      mstore\n        /* \"#utility.yul\":8476:8494   */\n      0x24\n      add\n        /* \"@openzeppelin/contracts/access/Ownable.sol\":1901:1941  OwnableUnauthorizedAccount(_msgSender()) */\n      tag_206\n        /* \"#utility.yul\":8357:8560   */\n      jump\n        /* \"lotto4d.sol\":3152:3582  function _transfer(address sender, address recipient, uint256 amount) internal {... */\n    tag_297:\n      sub(shl(0xa0, 0x01), 0x01)\n        /* \"lotto4d.sol\":3249:3269  sender != address(0) */\n      dup4\n      and\n        /* \"lotto4d.sol\":3241:3304  require(sender != address(0), \"Transfer from the zero address\") */\n      tag_452\n      jumpi\n      mload(0x40)\n      shl(0xe5, 0x461bcd)\n      dup2\n      mstore\n        /* \"#utility.yul\":17901:17903   */\n      0x20\n        /* \"lotto4d.sol\":3241:3304  require(sender != address(0), \"Transfer from the zero address\") */\n      0x04\n      dup3\n      add\n        /* \"#utility.yul\":17883:17904   */\n      mstore\n        /* \"#utility.yul\":17940:17942   */\n      0x1e\n        /* \"#utility.yul\":17920:17938   */\n      0x24\n      dup3\n      add\n        /* \"#utility.yul\":17913:17943   */\n      mstore\n        /* \"#utility.yul\":17979:18011   */\n      0x5472616e736665722066726f6d20746865207a65726f20616464726573730000\n        /* \"#utility.yul\":17959:17977   */\n      0x44\n      dup3\n      add\n        /* \"#utility.yul\":17952:18012   */\n      mstore\n        /* \"#utility.yul\":18029:18047   */\n      0x64\n      add\n        /* \"lotto4d.sol\":3241:3304  require(sender != address(0), \"Transfer from the zero address\") */\n      tag_206\n        /* \"#utility.yul\":17699:18053   */\n      jump\n        /* \"lotto4d.sol\":3241:3304  require(sender != address(0), \"Transfer from the zero address\") */\n    tag_452:\n      sub(shl(0xa0, 0x01), 0x01)\n        /* \"lotto4d.sol\":3322:3345  recipient != address(0) */\n      dup3\n      and\n        /* \"lotto4d.sol\":3314:3378  require(recipient != address(0), \"Transfer to the zero address\") */\n      tag_455\n      jumpi\n      mload(0x40)\n      shl(0xe5, 0x461bcd)\n      dup2\n      mstore\n        /* \"#utility.yul\":18260:18262   */\n      0x20\n        /* \"lotto4d.sol\":3314:3378  require(recipient != address(0), \"Transfer to the zero address\") */\n      0x04\n      dup3\n      add\n        /* \"#utility.yul\":18242:18263   */\n      mstore\n        /* \"#utility.yul\":18299:18301   */\n      0x1c\n        /* \"#utility.yul\":18279:18297   */\n      0x24\n      dup3\n      add\n        /* \"#utility.yul\":18272:18302   */\n      mstore\n        /* \"#utility.yul\":18338:18368   */\n      0x5472616e7366657220746f20746865207a65726f206164647265737300000000\n        /* \"#utility.yul\":18318:18336   */\n      0x44\n      dup3\n      add\n        /* \"#utility.yul\":18311:18369   */\n      mstore\n        /* \"#utility.yul\":18386:18404   */\n      0x64\n      add\n        /* \"lotto4d.sol\":3314:3378  require(recipient != address(0), \"Transfer to the zero address\") */\n      tag_206\n        /* \"#utility.yul\":18058:18410   */\n      jump\n        /* \"lotto4d.sol\":3314:3378  require(recipient != address(0), \"Transfer to the zero address\") */\n    tag_455:\n      sub(shl(0xa0, 0x01), 0x01)\n        /* \"lotto4d.sol\":3396:3413  _balances[sender] */\n      dup4\n      and\n      0x00\n      swap1\n      dup2\n      mstore\n        /* \"lotto4d.sol\":3396:3405  _balances */\n      0x05\n        /* \"lotto4d.sol\":3396:3413  _balances[sender] */\n      0x20\n      mstore\n      0x40\n      swap1\n      keccak256\n      sload\n        /* \"lotto4d.sol\":3396:3423  _balances[sender] >= amount */\n      dup2\n      gt\n      iszero\n        /* \"lotto4d.sol\":3388:3448  require(_balances[sender] >= amount, \"Insufficient balance\") */\n      tag_458\n      jumpi\n      mload(0x40)\n      shl(0xe5, 0x461bcd)\n      dup2\n      mstore\n        /* \"#utility.yul\":18617:18619   */\n      0x20\n        /* \"lotto4d.sol\":3388:3448  require(_balances[sender] >= amount, \"Insufficient balance\") */\n      0x04\n      dup3\n      add\n        /* \"#utility.yul\":18599:18620   */\n      mstore\n        /* \"#utility.yul\":18656:18658   */\n      0x14\n        /* \"#utility.yul\":18636:18654   */\n      0x24\n      dup3\n      add\n        /* \"#utility.yul\":18629:18659   */\n      mstore\n      shl(0x60, 0x496e73756666696369656e742062616c616e6365)\n        /* \"#utility.yul\":18675:18693   */\n      0x44\n      dup3\n      add\n        /* \"#utility.yul\":18668:18718   */\n      mstore\n        /* \"#utility.yul\":18735:18753   */\n      0x64\n      add\n        /* \"lotto4d.sol\":3388:3448  require(_balances[sender] >= amount, \"Insufficient balance\") */\n      tag_206\n        /* \"#utility.yul\":18415:18759   */\n      jump\n        /* \"lotto4d.sol\":3388:3448  require(_balances[sender] >= amount, \"Insufficient balance\") */\n    tag_458:\n      sub(shl(0xa0, 0x01), 0x01)\n        /* \"lotto4d.sol\":3458:3475  _balances[sender] */\n      dup4\n      and\n      0x00\n      swap1\n      dup2\n      mstore\n        /* \"lotto4d.sol\":3458:3467  _balances */\n      0x05\n        /* \"lotto4d.sol\":3458:3475  _balances[sender] */\n      0x20\n      mstore\n      0x40\n      dup2\n      keccak256\n        /* \"lotto4d.sol\":3458:3485  _balances[sender] -= amount */\n      dup1\n      sload\n        /* \"lotto4d.sol\":3479:3485  amount */\n      dup4\n      swap3\n        /* \"lotto4d.sol\":3458:3475  _balances[sender] */\n      swap1\n        /* \"lotto4d.sol\":3458:3485  _balances[sender] -= amount */\n      tag_461\n      swap1\n        /* \"lotto4d.sol\":3479:3485  amount */\n      dup5\n      swap1\n        /* \"lotto4d.sol\":3458:3485  _balances[sender] -= amount */\n      tag_234\n      jump\t// in\n    tag_461:\n      swap1\n      swap2\n      sstore\n      pop\n      pop\n      sub(shl(0xa0, 0x01), 0x01)\n        /* \"lotto4d.sol\":3495:3515  _balances[recipient] */\n      dup3\n      and\n      0x00\n      swap1\n      dup2\n      mstore\n        /* \"lotto4d.sol\":3495:3504  _balances */\n      0x05\n        /* \"lotto4d.sol\":3495:3515  _balances[recipient] */\n      0x20\n      mstore\n      0x40\n      dup2\n      keccak256\n        /* \"lotto4d.sol\":3495:3525  _balances[recipient] += amount */\n      dup1\n      sload\n        /* \"lotto4d.sol\":3519:3525  amount */\n      dup4\n      swap3\n        /* \"lotto4d.sol\":3495:3515  _balances[recipient] */\n      swap1\n        /* \"lotto4d.sol\":3495:3525  _balances[recipient] += amount */\n      tag_462\n      swap1\n        /* \"lotto4d.sol\":3519:3525  amount */\n      dup5\n      swap1\n        /* \"lotto4d.sol\":3495:3525  _balances[recipient] += amount */\n      tag_204\n      jump\t// in\n    tag_462:\n      swap3\n      pop\n      pop\n      dup2\n      swap1\n      sstore\n      pop\n        /* \"lotto4d.sol\":3557:3566  recipient */\n      dup2\n      sub(shl(0xa0, 0x01), 0x01)\n        /* \"lotto4d.sol\":3540:3575  Transfer(sender, recipient, amount) */\n      and\n        /* \"lotto4d.sol\":3549:3555  sender */\n      dup4\n      sub(shl(0xa0, 0x01), 0x01)\n        /* \"lotto4d.sol\":3540:3575  Transfer(sender, recipient, amount) */\n      and\n      0xddf252ad1be2c89b69c2b068fc378daa952ba7f163c4a11628f55a4df523b3ef\n        /* \"lotto4d.sol\":3568:3574  amount */\n      dup4\n        /* \"lotto4d.sol\":3540:3575  Transfer(sender, recipient, amount) */\n      mload(0x40)\n      tag_426\n      swap2\n        /* \"#utility.yul\":1342:1367   */\n      dup2\n      mstore\n        /* \"#utility.yul\":1330:1332   */\n      0x20\n        /* \"#utility.yul\":1315:1333   */\n      add\n      swap1\n        /* \"#utility.yul\":1196:1373   */\n      jump\n        /* \"@openzeppelin/contracts/access/Ownable.sol\":2912:3099  function _transferOwnership(address newOwner) internal virtual {... */\n    tag_362:\n        /* \"@openzeppelin/contracts/access/Ownable.sol\":2985:3001  address oldOwner */\n      0x00\n        /* \"@openzeppelin/contracts/access/Ownable.sol\":3004:3010  _owner */\n      dup1\n      sload\n      sub(shl(0xa0, 0x01), 0x01)\n        /* \"@openzeppelin/contracts/access/Ownable.sol\":3020:3037  _owner = newOwner */\n      dup4\n      dup2\n      and\n      not(sub(shl(0xa0, 0x01), 0x01))\n      dup4\n      and\n      dup2\n      or\n      dup5\n      sstore\n        /* \"@openzeppelin/contracts/access/Ownable.sol\":3052:3092  OwnershipTransferred(oldOwner, newOwner) */\n      mload(0x40)\n        /* \"@openzeppelin/contracts/access/Ownable.sol\":3004:3010  _owner */\n      swap2\n      swap1\n      swap3\n      and\n      swap3\n      dup4\n      swap2\n        /* \"@openzeppelin/contracts/access/Ownable.sol\":3052:3092  OwnershipTransferred(oldOwner, newOwner) */\n      0x8be0079c531659141344cd1fd0a4f28419497f9722a3daafe3b4186f6b6457e0\n      swap2\n        /* \"@openzeppelin/contracts/access/Ownable.sol\":2985:3001  address oldOwner */\n      swap1\n        /* \"@openzeppelin/contracts/access/Ownable.sol\":3052:3092  OwnershipTransferred(oldOwner, newOwner) */\n      log3\n        /* \"@openzeppelin/contracts/access/Ownable.sol\":2975:3099  {... */\n      pop\n        /* \"@openzeppelin/contracts/access/Ownable.sol\":2912:3099  function _transferOwnership(address newOwner) internal virtual {... */\n      pop\n      jump\t// out\n        /* \"#utility.yul\":14:562   */\n    tag_52:\n        /* \"#utility.yul\":126:130   */\n      0x00\n        /* \"#utility.yul\":155:157   */\n      0x20\n        /* \"#utility.yul\":184:186   */\n      dup1\n        /* \"#utility.yul\":173:182   */\n      dup4\n        /* \"#utility.yul\":166:187   */\n      mstore\n        /* \"#utility.yul\":216:222   */\n      dup4\n        /* \"#utility.yul\":210:223   */\n      mload\n        /* \"#utility.yul\":259:265   */\n      dup1\n        /* \"#utility.yul\":254:256   */\n      0x20\n        /* \"#utility.yul\":243:252   */\n      dup6\n        /* \"#utility.yul\":239:257   */\n      add\n        /* \"#utility.yul\":232:266   */\n      mstore\n        /* \"#utility.yul\":284:285   */\n      0x00\n        /* \"#utility.yul\":294:434   */\n    tag_477:\n        /* \"#utility.yul\":308:314   */\n      dup2\n        /* \"#utility.yul\":305:306   */\n      dup2\n        /* \"#utility.yul\":302:315   */\n      lt\n        /* \"#utility.yul\":294:434   */\n      iszero\n      tag_479\n      jumpi\n        /* \"#utility.yul\":403:417   */\n      dup6\n      dup2\n      add\n        /* \"#utility.yul\":399:422   */\n      dup4\n      add\n        /* \"#utility.yul\":393:423   */\n      mload\n        /* \"#utility.yul\":369:386   */\n      dup6\n      dup3\n      add\n        /* \"#utility.yul\":388:390   */\n      0x40\n        /* \"#utility.yul\":365:391   */\n      add\n        /* \"#utility.yul\":358:424   */\n      mstore\n        /* \"#utility.yul\":323:333   */\n      dup3\n      add\n        /* \"#utility.yul\":294:434   */\n      jump(tag_477)\n    tag_479:\n        /* \"#utility.yul\":298:301   */\n      pop\n        /* \"#utility.yul\":483:484   */\n      0x00\n        /* \"#utility.yul\":478:480   */\n      0x40\n        /* \"#utility.yul\":469:475   */\n      dup3\n        /* \"#utility.yul\":458:467   */\n      dup7\n        /* \"#utility.yul\":454:476   */\n      add\n        /* \"#utility.yul\":450:481   */\n      add\n        /* \"#utility.yul\":443:485   */\n      mstore\n        /* \"#utility.yul\":553:555   */\n      0x40\n        /* \"#utility.yul\":546:548   */\n      0x1f\n        /* \"#utility.yul\":542:549   */\n      not\n        /* \"#utility.yul\":537:539   */\n      0x1f\n        /* \"#utility.yul\":529:535   */\n      dup4\n        /* \"#utility.yul\":525:540   */\n      add\n        /* \"#utility.yul\":521:550   */\n      and\n        /* \"#utility.yul\":510:519   */\n      dup6\n        /* \"#utility.yul\":506:551   */\n      add\n        /* \"#utility.yul\":502:556   */\n      add\n        /* \"#utility.yul\":494:556   */\n      swap3\n      pop\n      pop\n      pop\n        /* \"#utility.yul\":14:562   */\n      swap3\n      swap2\n      pop\n      pop\n      jump\t// out\n        /* \"#utility.yul\":567:740   */\n    tag_466:\n        /* \"#utility.yul\":635:655   */\n      dup1\n      calldataload\n      sub(shl(0xa0, 0x01), 0x01)\n        /* \"#utility.yul\":684:715   */\n      dup2\n      and\n        /* \"#utility.yul\":674:716   */\n      dup2\n      eq\n        /* \"#utility.yul\":664:734   */\n      tag_481\n      jumpi\n        /* \"#utility.yul\":730:731   */\n      0x00\n        /* \"#utility.yul\":727:728   */\n      dup1\n        /* \"#utility.yul\":720:732   */\n      revert\n        /* \"#utility.yul\":664:734   */\n    tag_481:\n        /* \"#utility.yul\":567:740   */\n      swap2\n      swap1\n      pop\n      jump\t// out\n        /* \"#utility.yul\":745:999   */\n    tag_55:\n        /* \"#utility.yul\":813:819   */\n      0x00\n        /* \"#utility.yul\":821:827   */\n      dup1\n        /* \"#utility.yul\":874:876   */\n      0x40\n        /* \"#utility.yul\":862:871   */\n      dup4\n        /* \"#utility.yul\":853:860   */\n      dup6\n        /* \"#utility.yul\":849:872   */\n      sub\n        /* \"#utility.yul\":845:877   */\n      slt\n        /* \"#utility.yul\":842:894   */\n      iszero\n      tag_483\n      jumpi\n        /* \"#utility.yul\":890:891   */\n      0x00\n        /* \"#utility.yul\":887:888   */\n      dup1\n        /* \"#utility.yul\":880:892   */\n      revert\n        /* \"#utility.yul\":842:894   */\n    tag_483:\n        /* \"#utility.yul\":913:942   */\n      tag_484\n        /* \"#utility.yul\":932:941   */\n      dup4\n        /* \"#utility.yul\":913:942   */\n      tag_466\n      jump\t// in\n    tag_484:\n        /* \"#utility.yul\":903:942   */\n      swap5\n        /* \"#utility.yul\":989:991   */\n      0x20\n        /* \"#utility.yul\":974:992   */\n      swap4\n      swap1\n      swap4\n      add\n        /* \"#utility.yul\":961:993   */\n      calldataload\n      swap4\n      pop\n      pop\n      pop\n        /* \"#utility.yul\":745:999   */\n      jump\t// out\n        /* \"#utility.yul\":1378:2328   */\n    tag_68:\n        /* \"#utility.yul\":1589:1591   */\n      0x20\n        /* \"#utility.yul\":1641:1662   */\n      dup1\n      dup3\n      mstore\n        /* \"#utility.yul\":1711:1724   */\n      dup3\n      mload\n        /* \"#utility.yul\":1614:1632   */\n      dup3\n      dup3\n      add\n        /* \"#utility.yul\":1733:1755   */\n      dup2\n      swap1\n      mstore\n        /* \"#utility.yul\":1560:1564   */\n      0x00\n      swap2\n        /* \"#utility.yul\":1589:1591   */\n      swap1\n        /* \"#utility.yul\":1774:1776   */\n      0x40\n      swap1\n        /* \"#utility.yul\":1792:1810   */\n      dup2\n      dup6\n      add\n      swap1\n        /* \"#utility.yul\":1833:1848   */\n      dup7\n      dup5\n      add\n        /* \"#utility.yul\":1560:1564   */\n      dup6\n        /* \"#utility.yul\":1876:2302   */\n    tag_488:\n        /* \"#utility.yul\":1890:1896   */\n      dup3\n        /* \"#utility.yul\":1887:1888   */\n      dup2\n        /* \"#utility.yul\":1884:1897   */\n      lt\n        /* \"#utility.yul\":1876:2302   */\n      iszero\n      tag_490\n      jumpi\n        /* \"#utility.yul\":1949:1962   */\n      dup2\n      mload\n        /* \"#utility.yul\":1991:2000   */\n      dup1\n      mload\n      sub(shl(0xa0, 0x01), 0x01)\n        /* \"#utility.yul\":1987:2022   */\n      and\n        /* \"#utility.yul\":1975:2023   */\n      dup6\n      mstore\n        /* \"#utility.yul\":2063:2074   */\n      dup7\n      dup2\n      add\n        /* \"#utility.yul\":2057:2075   */\n      mload\n        /* \"#utility.yul\":2043:2055   */\n      dup8\n      dup7\n      add\n        /* \"#utility.yul\":2036:2076   */\n      mstore\n        /* \"#utility.yul\":2116:2127   */\n      dup6\n      dup2\n      add\n        /* \"#utility.yul\":2110:2128   */\n      mload\n        /* \"#utility.yul\":2096:2108   */\n      dup7\n      dup7\n      add\n        /* \"#utility.yul\":2089:2129   */\n      mstore\n        /* \"#utility.yul\":2152:2156   */\n      0x60\n        /* \"#utility.yul\":2200:2211   */\n      swap1\n      dup2\n      add\n        /* \"#utility.yul\":2194:2212   */\n      mload\n        /* \"#utility.yul\":2214:2218   */\n      0xff\n        /* \"#utility.yul\":2190:2219   */\n      and\n        /* \"#utility.yul\":2176:2188   */\n      swap1\n      dup6\n      add\n        /* \"#utility.yul\":2169:2220   */\n      mstore\n        /* \"#utility.yul\":2249:2253   */\n      0x80\n        /* \"#utility.yul\":2240:2254   */\n      swap1\n      swap4\n      add\n      swap3\n        /* \"#utility.yul\":2277:2292   */\n      swap1\n      dup6\n      add\n      swap1\n        /* \"#utility.yul\":2019:2020   */\n      0x01\n        /* \"#utility.yul\":1905:1914   */\n      add\n        /* \"#utility.yul\":1876:2302   */\n      jump(tag_488)\n    tag_490:\n      pop\n        /* \"#utility.yul\":2319:2322   */\n      swap2\n      swap8\n        /* \"#utility.yul\":1378:2328   */\n      swap7\n      pop\n      pop\n      pop\n      pop\n      pop\n      pop\n      pop\n      jump\t// out\n        /* \"#utility.yul\":2333:2513   */\n    tag_71:\n        /* \"#utility.yul\":2392:2398   */\n      0x00\n        /* \"#utility.yul\":2445:2447   */\n      0x20\n        /* \"#utility.yul\":2433:2442   */\n      dup3\n        /* \"#utility.yul\":2424:2431   */\n      dup5\n        /* \"#utility.yul\":2420:2443   */\n      sub\n        /* \"#utility.yul\":2416:2448   */\n      slt\n        /* \"#utility.yul\":2413:2465   */\n      iszero\n      tag_492\n      jumpi\n        /* \"#utility.yul\":2461:2462   */\n      0x00\n        /* \"#utility.yul\":2458:2459   */\n      dup1\n        /* \"#utility.yul\":2451:2463   */\n      revert\n        /* \"#utility.yul\":2413:2465   */\n    tag_492:\n      pop\n        /* \"#utility.yul\":2484:2507   */\n      calldataload\n      swap2\n        /* \"#utility.yul\":2333:2513   */\n      swap1\n      pop\n      jump\t// out\n        /* \"#utility.yul\":2947:3275   */\n    tag_83:\n        /* \"#utility.yul\":3024:3030   */\n      0x00\n        /* \"#utility.yul\":3032:3038   */\n      dup1\n        /* \"#utility.yul\":3040:3046   */\n      0x00\n        /* \"#utility.yul\":3093:3095   */\n      0x60\n        /* \"#utility.yul\":3081:3090   */\n      dup5\n        /* \"#utility.yul\":3072:3079   */\n      dup7\n        /* \"#utility.yul\":3068:3091   */\n      sub\n        /* \"#utility.yul\":3064:3096   */\n      slt\n        /* \"#utility.yul\":3061:3113   */\n      iszero\n      tag_495\n      jumpi\n        /* \"#utility.yul\":3109:3110   */\n      0x00\n        /* \"#utility.yul\":3106:3107   */\n      dup1\n        /* \"#utility.yul\":3099:3111   */\n      revert\n        /* \"#utility.yul\":3061:3113   */\n    tag_495:\n        /* \"#utility.yul\":3132:3161   */\n      tag_496\n        /* \"#utility.yul\":3151:3160   */\n      dup5\n        /* \"#utility.yul\":3132:3161   */\n      tag_466\n      jump\t// in\n    tag_496:\n        /* \"#utility.yul\":3122:3161   */\n      swap3\n      pop\n        /* \"#utility.yul\":3180:3218   */\n      tag_497\n        /* \"#utility.yul\":3214:3216   */\n      0x20\n        /* \"#utility.yul\":3203:3212   */\n      dup6\n        /* \"#utility.yul\":3199:3217   */\n      add\n        /* \"#utility.yul\":3180:3218   */\n      tag_466\n      jump\t// in\n    tag_497:\n        /* \"#utility.yul\":3170:3218   */\n      swap2\n      pop\n        /* \"#utility.yul\":3265:3267   */\n      0x40\n        /* \"#utility.yul\":3254:3263   */\n      dup5\n        /* \"#utility.yul\":3250:3268   */\n      add\n        /* \"#utility.yul\":3237:3269   */\n      calldataload\n        /* \"#utility.yul\":3227:3269   */\n      swap1\n      pop\n        /* \"#utility.yul\":2947:3275   */\n      swap3\n      pop\n      swap3\n      pop\n      swap3\n      jump\t// out\n        /* \"#utility.yul\":3469:3596   */\n    tag_274:\n        /* \"#utility.yul\":3530:3540   */\n      0x4e487b71\n        /* \"#utility.yul\":3525:3528   */\n      0xe0\n        /* \"#utility.yul\":3521:3541   */\n      shl\n        /* \"#utility.yul\":3518:3519   */\n      0x00\n        /* \"#utility.yul\":3511:3542   */\n      mstore\n        /* \"#utility.yul\":3561:3565   */\n      0x41\n        /* \"#utility.yul\":3558:3559   */\n      0x04\n        /* \"#utility.yul\":3551:3566   */\n      mstore\n        /* \"#utility.yul\":3585:3589   */\n      0x24\n        /* \"#utility.yul\":3582:3583   */\n      0x00\n        /* \"#utility.yul\":3575:3590   */\n      revert\n        /* \"#utility.yul\":3601:3876   */\n    tag_467:\n        /* \"#utility.yul\":3672:3674   */\n      0x40\n        /* \"#utility.yul\":3666:3675   */\n      mload\n        /* \"#utility.yul\":3737:3739   */\n      0x1f\n        /* \"#utility.yul\":3718:3731   */\n      dup3\n      add\n      not(0x1f)\n        /* \"#utility.yul\":3714:3741   */\n      and\n        /* \"#utility.yul\":3702:3742   */\n      dup2\n      add\n        /* \"#utility.yul\":3772:3790   */\n      0xffffffffffffffff\n        /* \"#utility.yul\":3757:3791   */\n      dup2\n      gt\n        /* \"#utility.yul\":3793:3815   */\n      dup3\n      dup3\n      lt\n        /* \"#utility.yul\":3754:3816   */\n      or\n        /* \"#utility.yul\":3751:3839   */\n      iszero\n      tag_502\n      jumpi\n        /* \"#utility.yul\":3819:3837   */\n      tag_502\n      tag_274\n      jump\t// in\n    tag_502:\n        /* \"#utility.yul\":3855:3857   */\n      0x40\n        /* \"#utility.yul\":3848:3870   */\n      mstore\n        /* \"#utility.yul\":3601:3876   */\n      swap2\n      swap1\n      pop\n      jump\t// out\n        /* \"#utility.yul\":3881:4063   */\n    tag_468:\n        /* \"#utility.yul\":3940:3944   */\n      0x00\n        /* \"#utility.yul\":3973:3991   */\n      0xffffffffffffffff\n        /* \"#utility.yul\":3965:3971   */\n      dup3\n        /* \"#utility.yul\":3962:3992   */\n      gt\n        /* \"#utility.yul\":3959:4015   */\n      iszero\n      tag_505\n      jumpi\n        /* \"#utility.yul\":3995:4013   */\n      tag_505\n      tag_274\n      jump\t// in\n    tag_505:\n      pop\n        /* \"#utility.yul\":4040:4041   */\n      0x05\n        /* \"#utility.yul\":4036:4050   */\n      shl\n        /* \"#utility.yul\":4052:4056   */\n      0x20\n        /* \"#utility.yul\":4032:4057   */\n      add\n      swap1\n        /* \"#utility.yul\":3881:4063   */\n      jump\t// out\n        /* \"#utility.yul\":4068:4735   */\n    tag_469:\n        /* \"#utility.yul\":4122:4127   */\n      0x00\n        /* \"#utility.yul\":4175:4178   */\n      dup3\n        /* \"#utility.yul\":4168:4172   */\n      0x1f\n        /* \"#utility.yul\":4160:4166   */\n      dup4\n        /* \"#utility.yul\":4156:4173   */\n      add\n        /* \"#utility.yul\":4152:4179   */\n      slt\n        /* \"#utility.yul\":4142:4197   */\n      tag_507\n      jumpi\n        /* \"#utility.yul\":4193:4194   */\n      0x00\n        /* \"#utility.yul\":4190:4191   */\n      dup1\n        /* \"#utility.yul\":4183:4195   */\n      revert\n        /* \"#utility.yul\":4142:4197   */\n    tag_507:\n        /* \"#utility.yul\":4229:4235   */\n      dup2\n        /* \"#utility.yul\":4216:4236   */\n      calldataload\n        /* \"#utility.yul\":4255:4259   */\n      0x20\n        /* \"#utility.yul\":4279:4338   */\n      tag_508\n        /* \"#utility.yul\":4295:4337   */\n      tag_509\n        /* \"#utility.yul\":4334:4336   */\n      dup4\n        /* \"#utility.yul\":4295:4337   */\n      tag_468\n      jump\t// in\n    tag_509:\n        /* \"#utility.yul\":4279:4338   */\n      tag_467\n      jump\t// in\n    tag_508:\n        /* \"#utility.yul\":4360:4363   */\n      dup1\n        /* \"#utility.yul\":4384:4386   */\n      dup4\n        /* \"#utility.yul\":4379:4382   */\n      dup3\n        /* \"#utility.yul\":4372:4387   */\n      mstore\n        /* \"#utility.yul\":4412:4416   */\n      0x20\n        /* \"#utility.yul\":4407:4410   */\n      dup3\n        /* \"#utility.yul\":4403:4417   */\n      add\n        /* \"#utility.yul\":4396:4417   */\n      swap2\n      pop\n        /* \"#utility.yul\":4469:4473   */\n      0x20\n        /* \"#utility.yul\":4463:4465   */\n      dup5\n        /* \"#utility.yul\":4460:4461   */\n      0x05\n        /* \"#utility.yul\":4456:4466   */\n      shl\n        /* \"#utility.yul\":4448:4454   */\n      dup8\n        /* \"#utility.yul\":4444:4467   */\n      add\n        /* \"#utility.yul\":4440:4474   */\n      add\n        /* \"#utility.yul\":4426:4474   */\n      swap4\n      pop\n        /* \"#utility.yul\":4497:4500   */\n      dup7\n        /* \"#utility.yul\":4489:4495   */\n      dup5\n        /* \"#utility.yul\":4486:4501   */\n      gt\n        /* \"#utility.yul\":4483:4518   */\n      iszero\n      tag_510\n      jumpi\n        /* \"#utility.yul\":4514:4515   */\n      0x00\n        /* \"#utility.yul\":4511:4512   */\n      dup1\n        /* \"#utility.yul\":4504:4516   */\n      revert\n        /* \"#utility.yul\":4483:4518   */\n    tag_510:\n        /* \"#utility.yul\":4550:4554   */\n      0x20\n        /* \"#utility.yul\":4542:4548   */\n      dup7\n        /* \"#utility.yul\":4538:4555   */\n      add\n        /* \"#utility.yul\":4564:4706   */\n    tag_511:\n        /* \"#utility.yul\":4580:4586   */\n      dup5\n        /* \"#utility.yul\":4575:4578   */\n      dup2\n        /* \"#utility.yul\":4572:4587   */\n      lt\n        /* \"#utility.yul\":4564:4706   */\n      iszero\n      tag_513\n      jumpi\n        /* \"#utility.yul\":4646:4663   */\n      dup1\n      calldataload\n        /* \"#utility.yul\":4634:4664   */\n      dup4\n      mstore\n        /* \"#utility.yul\":4684:4696   */\n      swap2\n      dup4\n      add\n      swap2\n        /* \"#utility.yul\":4597:4609   */\n      dup4\n      add\n        /* \"#utility.yul\":4564:4706   */\n      jump(tag_511)\n    tag_513:\n      pop\n        /* \"#utility.yul\":4724:4729   */\n      swap7\n        /* \"#utility.yul\":4068:4735   */\n      swap6\n      pop\n      pop\n      pop\n      pop\n      pop\n      pop\n      jump\t// out\n        /* \"#utility.yul\":4740:5574   */\n    tag_470:\n        /* \"#utility.yul\":4792:4797   */\n      0x00\n        /* \"#utility.yul\":4845:4848   */\n      dup3\n        /* \"#utility.yul\":4838:4842   */\n      0x1f\n        /* \"#utility.yul\":4830:4836   */\n      dup4\n        /* \"#utility.yul\":4826:4843   */\n      add\n        /* \"#utility.yul\":4822:4849   */\n      slt\n        /* \"#utility.yul\":4812:4867   */\n      tag_515\n      jumpi\n        /* \"#utility.yul\":4863:4864   */\n      0x00\n        /* \"#utility.yul\":4860:4861   */\n      dup1\n        /* \"#utility.yul\":4853:4865   */\n      revert\n        /* \"#utility.yul\":4812:4867   */\n    tag_515:\n        /* \"#utility.yul\":4899:4905   */\n      dup2\n        /* \"#utility.yul\":4886:4906   */\n      calldataload\n        /* \"#utility.yul\":4925:4929   */\n      0x20\n        /* \"#utility.yul\":4949:5008   */\n      tag_516\n        /* \"#utility.yul\":4965:5007   */\n      tag_509\n        /* \"#utility.yul\":5004:5006   */\n      dup4\n        /* \"#utility.yul\":4965:5007   */\n      tag_468\n      jump\t// in\n        /* \"#utility.yul\":4949:5008   */\n    tag_516:\n        /* \"#utility.yul\":5030:5033   */\n      dup1\n        /* \"#utility.yul\":5054:5056   */\n      dup4\n        /* \"#utility.yul\":5049:5052   */\n      dup3\n        /* \"#utility.yul\":5042:5057   */\n      mstore\n        /* \"#utility.yul\":5082:5086   */\n      0x20\n        /* \"#utility.yul\":5077:5080   */\n      dup3\n        /* \"#utility.yul\":5073:5087   */\n      add\n        /* \"#utility.yul\":5066:5087   */\n      swap2\n      pop\n        /* \"#utility.yul\":5139:5143   */\n      0x20\n        /* \"#utility.yul\":5133:5135   */\n      dup5\n        /* \"#utility.yul\":5130:5131   */\n      0x05\n        /* \"#utility.yul\":5126:5136   */\n      shl\n        /* \"#utility.yul\":5118:5124   */\n      dup8\n        /* \"#utility.yul\":5114:5137   */\n      add\n        /* \"#utility.yul\":5110:5144   */\n      add\n        /* \"#utility.yul\":5096:5144   */\n      swap4\n      pop\n        /* \"#utility.yul\":5167:5170   */\n      dup7\n        /* \"#utility.yul\":5159:5165   */\n      dup5\n        /* \"#utility.yul\":5156:5171   */\n      gt\n        /* \"#utility.yul\":5153:5188   */\n      iszero\n      tag_518\n      jumpi\n        /* \"#utility.yul\":5184:5185   */\n      0x00\n        /* \"#utility.yul\":5181:5182   */\n      dup1\n        /* \"#utility.yul\":5174:5186   */\n      revert\n        /* \"#utility.yul\":5153:5188   */\n    tag_518:\n        /* \"#utility.yul\":5220:5224   */\n      0x20\n        /* \"#utility.yul\":5212:5218   */\n      dup7\n        /* \"#utility.yul\":5208:5225   */\n      add\n        /* \"#utility.yul\":5234:5545   */\n    tag_519:\n        /* \"#utility.yul\":5250:5256   */\n      dup5\n        /* \"#utility.yul\":5245:5248   */\n      dup2\n        /* \"#utility.yul\":5242:5257   */\n      lt\n        /* \"#utility.yul\":5234:5545   */\n      iszero\n      tag_513\n      jumpi\n        /* \"#utility.yul\":5330:5333   */\n      dup1\n        /* \"#utility.yul\":5317:5334   */\n      calldataload\n        /* \"#utility.yul\":5378:5382   */\n      0xff\n        /* \"#utility.yul\":5371:5376   */\n      dup2\n        /* \"#utility.yul\":5367:5383   */\n      and\n        /* \"#utility.yul\":5360:5365   */\n      dup2\n        /* \"#utility.yul\":5357:5384   */\n      eq\n        /* \"#utility.yul\":5347:5472   */\n      tag_522\n      jumpi\n        /* \"#utility.yul\":5426:5427   */\n      0x00\n        /* \"#utility.yul\":5455:5457   */\n      dup1\n        /* \"#utility.yul\":5451:5453   */\n      dup2\n        /* \"#utility.yul\":5444:5458   */\n      revert\n        /* \"#utility.yul\":5347:5472   */\n    tag_522:\n        /* \"#utility.yul\":5485:5503   */\n      dup4\n      mstore\n        /* \"#utility.yul\":5523:5535   */\n      swap2\n      dup4\n      add\n      swap2\n        /* \"#utility.yul\":5267:5279   */\n      dup4\n      add\n        /* \"#utility.yul\":5234:5545   */\n      jump(tag_519)\n        /* \"#utility.yul\":5579:7110   */\n    tag_99:\n        /* \"#utility.yul\":5728:5734   */\n      0x00\n        /* \"#utility.yul\":5736:5742   */\n      dup1\n        /* \"#utility.yul\":5744:5750   */\n      0x00\n        /* \"#utility.yul\":5797:5799   */\n      0x60\n        /* \"#utility.yul\":5785:5794   */\n      dup5\n        /* \"#utility.yul\":5776:5783   */\n      dup7\n        /* \"#utility.yul\":5772:5795   */\n      sub\n        /* \"#utility.yul\":5768:5800   */\n      slt\n        /* \"#utility.yul\":5765:5817   */\n      iszero\n      tag_524\n      jumpi\n        /* \"#utility.yul\":5813:5814   */\n      0x00\n        /* \"#utility.yul\":5810:5811   */\n      dup1\n        /* \"#utility.yul\":5803:5815   */\n      revert\n        /* \"#utility.yul\":5765:5817   */\n    tag_524:\n        /* \"#utility.yul\":5853:5862   */\n      dup4\n        /* \"#utility.yul\":5840:5863   */\n      calldataload\n        /* \"#utility.yul\":5882:5900   */\n      0xffffffffffffffff\n        /* \"#utility.yul\":5923:5925   */\n      dup1\n        /* \"#utility.yul\":5915:5921   */\n      dup3\n        /* \"#utility.yul\":5912:5926   */\n      gt\n        /* \"#utility.yul\":5909:5943   */\n      iszero\n      tag_525\n      jumpi\n        /* \"#utility.yul\":5939:5940   */\n      0x00\n        /* \"#utility.yul\":5936:5937   */\n      dup1\n        /* \"#utility.yul\":5929:5941   */\n      revert\n        /* \"#utility.yul\":5909:5943   */\n    tag_525:\n        /* \"#utility.yul\":5977:5983   */\n      dup2\n        /* \"#utility.yul\":5966:5975   */\n      dup7\n        /* \"#utility.yul\":5962:5984   */\n      add\n        /* \"#utility.yul\":5952:5984   */\n      swap2\n      pop\n        /* \"#utility.yul\":6022:6029   */\n      dup7\n        /* \"#utility.yul\":6015:6019   */\n      0x1f\n        /* \"#utility.yul\":6011:6013   */\n      dup4\n        /* \"#utility.yul\":6007:6020   */\n      add\n        /* \"#utility.yul\":6003:6030   */\n      slt\n        /* \"#utility.yul\":5993:6048   */\n      tag_526\n      jumpi\n        /* \"#utility.yul\":6044:6045   */\n      0x00\n        /* \"#utility.yul\":6041:6042   */\n      dup1\n        /* \"#utility.yul\":6034:6046   */\n      revert\n        /* \"#utility.yul\":5993:6048   */\n    tag_526:\n        /* \"#utility.yul\":6080:6082   */\n      dup2\n        /* \"#utility.yul\":6067:6083   */\n      calldataload\n        /* \"#utility.yul\":6102:6106   */\n      0x20\n        /* \"#utility.yul\":6126:6185   */\n      tag_527\n        /* \"#utility.yul\":6142:6184   */\n      tag_509\n        /* \"#utility.yul\":6181:6183   */\n      dup4\n        /* \"#utility.yul\":6142:6184   */\n      tag_468\n      jump\t// in\n        /* \"#utility.yul\":6126:6185   */\n    tag_527:\n        /* \"#utility.yul\":6219:6234   */\n      dup3\n      dup2\n      mstore\n        /* \"#utility.yul\":6301:6302   */\n      0x05\n        /* \"#utility.yul\":6297:6307   */\n      swap3\n      swap1\n      swap3\n      shl\n        /* \"#utility.yul\":6289:6308   */\n      dup5\n      add\n        /* \"#utility.yul\":6285:6313   */\n      dup2\n      add\n      swap2\n        /* \"#utility.yul\":6250:6262   */\n      dup2\n      dup2\n      add\n      swap1\n        /* \"#utility.yul\":6325:6344   */\n      dup11\n      dup5\n      gt\n        /* \"#utility.yul\":6322:6361   */\n      iszero\n      tag_529\n      jumpi\n        /* \"#utility.yul\":6357:6358   */\n      0x00\n        /* \"#utility.yul\":6354:6355   */\n      dup1\n        /* \"#utility.yul\":6347:6359   */\n      revert\n        /* \"#utility.yul\":6322:6361   */\n    tag_529:\n        /* \"#utility.yul\":6381:6392   */\n      swap5\n      dup3\n      add\n      swap5\n        /* \"#utility.yul\":6401:6714   */\n    tag_530:\n        /* \"#utility.yul\":6417:6423   */\n      dup4\n        /* \"#utility.yul\":6412:6415   */\n      dup7\n        /* \"#utility.yul\":6409:6424   */\n      lt\n        /* \"#utility.yul\":6401:6714   */\n      iszero\n      tag_532\n      jumpi\n        /* \"#utility.yul\":6497:6500   */\n      dup6\n        /* \"#utility.yul\":6484:6501   */\n      calldataload\n        /* \"#utility.yul\":6545:6551   */\n      0xffff\n        /* \"#utility.yul\":6538:6543   */\n      dup2\n        /* \"#utility.yul\":6534:6552   */\n      and\n        /* \"#utility.yul\":6527:6532   */\n      dup2\n        /* \"#utility.yul\":6524:6553   */\n      eq\n        /* \"#utility.yul\":6514:6641   */\n      tag_533\n      jumpi\n        /* \"#utility.yul\":6595:6596   */\n      0x00\n        /* \"#utility.yul\":6624:6626   */\n      dup1\n        /* \"#utility.yul\":6620:6622   */\n      dup2\n        /* \"#utility.yul\":6613:6627   */\n      revert\n        /* \"#utility.yul\":6514:6641   */\n    tag_533:\n        /* \"#utility.yul\":6654:6672   */\n      dup3\n      mstore\n        /* \"#utility.yul\":6434:6446   */\n      swap5\n      dup3\n      add\n      swap5\n        /* \"#utility.yul\":6692:6704   */\n      swap1\n      dup3\n      add\n      swap1\n        /* \"#utility.yul\":6401:6714   */\n      jump(tag_530)\n    tag_532:\n        /* \"#utility.yul\":6733:6738   */\n      swap8\n      pop\n      pop\n        /* \"#utility.yul\":6776:6794   */\n      dup8\n      add\n        /* \"#utility.yul\":6763:6795   */\n      calldataload\n      swap3\n      pop\n      pop\n        /* \"#utility.yul\":6807:6823   */\n      dup1\n      dup3\n      gt\n        /* \"#utility.yul\":6804:6840   */\n      iszero\n      tag_534\n      jumpi\n        /* \"#utility.yul\":6836:6837   */\n      0x00\n        /* \"#utility.yul\":6833:6834   */\n      dup1\n        /* \"#utility.yul\":6826:6838   */\n      revert\n        /* \"#utility.yul\":6804:6840   */\n    tag_534:\n        /* \"#utility.yul\":6859:6922   */\n      tag_535\n        /* \"#utility.yul\":6914:6921   */\n      dup8\n        /* \"#utility.yul\":6903:6911   */\n      dup4\n        /* \"#utility.yul\":6892:6901   */\n      dup9\n        /* \"#utility.yul\":6888:6912   */\n      add\n        /* \"#utility.yul\":6859:6922   */\n      tag_469\n      jump\t// in\n    tag_535:\n        /* \"#utility.yul\":6849:6922   */\n      swap4\n      pop\n        /* \"#utility.yul\":6975:6977   */\n      0x40\n        /* \"#utility.yul\":6964:6973   */\n      dup7\n        /* \"#utility.yul\":6960:6978   */\n      add\n        /* \"#utility.yul\":6947:6979   */\n      calldataload\n        /* \"#utility.yul\":6931:6979   */\n      swap2\n      pop\n        /* \"#utility.yul\":7004:7006   */\n      dup1\n        /* \"#utility.yul\":6994:7002   */\n      dup3\n        /* \"#utility.yul\":6991:7007   */\n      gt\n        /* \"#utility.yul\":6988:7024   */\n      iszero\n      tag_536\n      jumpi\n        /* \"#utility.yul\":7020:7021   */\n      0x00\n        /* \"#utility.yul\":7017:7018   */\n      dup1\n        /* \"#utility.yul\":7010:7022   */\n      revert\n        /* \"#utility.yul\":6988:7024   */\n    tag_536:\n      pop\n        /* \"#utility.yul\":7043:7104   */\n      tag_537\n        /* \"#utility.yul\":7096:7103   */\n      dup7\n        /* \"#utility.yul\":7085:7093   */\n      dup3\n        /* \"#utility.yul\":7074:7083   */\n      dup8\n        /* \"#utility.yul\":7070:7094   */\n      add\n        /* \"#utility.yul\":7043:7104   */\n      tag_470\n      jump\t// in\n    tag_537:\n        /* \"#utility.yul\":7033:7104   */\n      swap2\n      pop\n      pop\n        /* \"#utility.yul\":5579:7110   */\n      swap3\n      pop\n      swap3\n      pop\n      swap3\n      jump\t// out\n        /* \"#utility.yul\":7115:7301   */\n    tag_109:\n        /* \"#utility.yul\":7174:7180   */\n      0x00\n        /* \"#utility.yul\":7227:7229   */\n      0x20\n        /* \"#utility.yul\":7215:7224   */\n      dup3\n        /* \"#utility.yul\":7206:7213   */\n      dup5\n        /* \"#utility.yul\":7202:7225   */\n      sub\n        /* \"#utility.yul\":7198:7230   */\n      slt\n        /* \"#utility.yul\":7195:7247   */\n      iszero\n      tag_539\n      jumpi\n        /* \"#utility.yul\":7243:7244   */\n      0x00\n        /* \"#utility.yul\":7240:7241   */\n      dup1\n        /* \"#utility.yul\":7233:7245   */\n      revert\n        /* \"#utility.yul\":7195:7247   */\n    tag_539:\n        /* \"#utility.yul\":7266:7295   */\n      tag_540\n        /* \"#utility.yul\":7285:7294   */\n      dup3\n        /* \"#utility.yul\":7266:7295   */\n      tag_466\n      jump\t// in\n    tag_540:\n        /* \"#utility.yul\":7256:7295   */\n      swap4\n        /* \"#utility.yul\":7115:7301   */\n      swap3\n      pop\n      pop\n      pop\n      jump\t// out\n        /* \"#utility.yul\":7306:8352   */\n    tag_117:\n        /* \"#utility.yul\":7533:7535   */\n      0x20\n        /* \"#utility.yul\":7585:7606   */\n      dup1\n      dup3\n      mstore\n        /* \"#utility.yul\":7655:7668   */\n      dup3\n      mload\n        /* \"#utility.yul\":7558:7576   */\n      dup3\n      dup3\n      add\n        /* \"#utility.yul\":7677:7699   */\n      dup2\n      swap1\n      mstore\n        /* \"#utility.yul\":7504:7508   */\n      0x00\n      swap2\n        /* \"#utility.yul\":7533:7535   */\n      swap1\n        /* \"#utility.yul\":7718:7720   */\n      0x40\n      swap1\n        /* \"#utility.yul\":7736:7754   */\n      dup2\n      dup6\n      add\n      swap1\n        /* \"#utility.yul\":7777:7792   */\n      dup7\n      dup5\n      add\n        /* \"#utility.yul\":7504:7508   */\n      dup6\n        /* \"#utility.yul\":7820:8326   */\n    tag_542:\n        /* \"#utility.yul\":7834:7840   */\n      dup3\n        /* \"#utility.yul\":7831:7832   */\n      dup2\n        /* \"#utility.yul\":7828:7841   */\n      lt\n        /* \"#utility.yul\":7820:8326   */\n      iszero\n      tag_490\n      jumpi\n        /* \"#utility.yul\":7893:7906   */\n      dup2\n      mload\n        /* \"#utility.yul\":7935:7944   */\n      dup1\n      mload\n      sub(shl(0xa0, 0x01), 0x01)\n        /* \"#utility.yul\":7931:7966   */\n      and\n        /* \"#utility.yul\":7919:7967   */\n      dup6\n      mstore\n        /* \"#utility.yul\":8007:8018   */\n      dup7\n      dup2\n      add\n        /* \"#utility.yul\":8001:8019   */\n      mload\n        /* \"#utility.yul\":7987:7999   */\n      dup8\n      dup7\n      add\n        /* \"#utility.yul\":7980:8020   */\n      mstore\n        /* \"#utility.yul\":8060:8071   */\n      dup6\n      dup2\n      add\n        /* \"#utility.yul\":8054:8072   */\n      mload\n        /* \"#utility.yul\":8040:8052   */\n      dup7\n      dup7\n      add\n        /* \"#utility.yul\":8033:8073   */\n      mstore\n        /* \"#utility.yul\":8096:8100   */\n      0x60\n        /* \"#utility.yul\":8140:8151   */\n      dup1\n      dup3\n      add\n        /* \"#utility.yul\":8134:8152   */\n      mload\n        /* \"#utility.yul\":8120:8132   */\n      swap1\n      dup7\n      add\n        /* \"#utility.yul\":8113:8153   */\n      mstore\n        /* \"#utility.yul\":8176:8180   */\n      0x80\n        /* \"#utility.yul\":8224:8235   */\n      swap1\n      dup2\n      add\n        /* \"#utility.yul\":8218:8236   */\n      mload\n        /* \"#utility.yul\":8238:8242   */\n      0xff\n        /* \"#utility.yul\":8214:8243   */\n      and\n        /* \"#utility.yul\":8200:8212   */\n      swap1\n      dup6\n      add\n        /* \"#utility.yul\":8193:8244   */\n      mstore\n        /* \"#utility.yul\":7954:7957   */\n      0xa0\n        /* \"#utility.yul\":8264:8278   */\n      swap1\n      swap4\n      add\n      swap3\n        /* \"#utility.yul\":8301:8316   */\n      swap1\n      dup6\n      add\n      swap1\n        /* \"#utility.yul\":7963:7964   */\n      0x01\n        /* \"#utility.yul\":7849:7858   */\n      add\n        /* \"#utility.yul\":7820:8326   */\n      jump(tag_542)\n        /* \"#utility.yul\":9066:9858   */\n    tag_165:\n        /* \"#utility.yul\":9291:9293   */\n      0x20\n        /* \"#utility.yul\":9343:9364   */\n      dup1\n      dup3\n      mstore\n        /* \"#utility.yul\":9413:9426   */\n      dup3\n      mload\n        /* \"#utility.yul\":9316:9334   */\n      dup3\n      dup3\n      add\n        /* \"#utility.yul\":9435:9457   */\n      dup2\n      swap1\n      mstore\n        /* \"#utility.yul\":9262:9266   */\n      0x00\n      swap2\n        /* \"#utility.yul\":9291:9293   */\n      swap1\n        /* \"#utility.yul\":9476:9478   */\n      0x40\n      swap1\n        /* \"#utility.yul\":9494:9512   */\n      dup2\n      dup6\n      add\n      swap1\n        /* \"#utility.yul\":9535:9550   */\n      dup7\n      dup5\n      add\n        /* \"#utility.yul\":9262:9266   */\n      dup6\n        /* \"#utility.yul\":9578:9832   */\n    tag_548:\n        /* \"#utility.yul\":9592:9598   */\n      dup3\n        /* \"#utility.yul\":9589:9590   */\n      dup2\n        /* \"#utility.yul\":9586:9599   */\n      lt\n        /* \"#utility.yul\":9578:9832   */\n      iszero\n      tag_490\n      jumpi\n        /* \"#utility.yul\":9651:9664   */\n      dup2\n      mload\n        /* \"#utility.yul\":9689:9698   */\n      dup1\n      mload\n        /* \"#utility.yul\":9677:9699   */\n      dup6\n      mstore\n        /* \"#utility.yul\":9739:9750   */\n      dup7\n      add\n        /* \"#utility.yul\":9733:9751   */\n      mload\n        /* \"#utility.yul\":9719:9731   */\n      dup7\n      dup6\n      add\n        /* \"#utility.yul\":9712:9752   */\n      mstore\n        /* \"#utility.yul\":9772:9784   */\n      swap3\n      dup5\n      add\n      swap3\n        /* \"#utility.yul\":9807:9822   */\n      swap1\n      dup6\n      add\n      swap1\n        /* \"#utility.yul\":9614:9615   */\n      0x01\n        /* \"#utility.yul\":9607:9616   */\n      add\n        /* \"#utility.yul\":9578:9832   */\n      jump(tag_548)\n        /* \"#utility.yul\":9863:10627   */\n    tag_168:\n        /* \"#utility.yul\":9932:9938   */\n      0x00\n        /* \"#utility.yul\":9963:9965   */\n      0x20\n        /* \"#utility.yul\":10006:10008   */\n      dup1\n        /* \"#utility.yul\":9994:10003   */\n      dup4\n        /* \"#utility.yul\":9985:9992   */\n      dup6\n        /* \"#utility.yul\":9981:10004   */\n      sub\n        /* \"#utility.yul\":9977:10009   */\n      slt\n        /* \"#utility.yul\":9974:10026   */\n      iszero\n      tag_552\n      jumpi\n        /* \"#utility.yul\":10022:10023   */\n      0x00\n        /* \"#utility.yul\":10019:10020   */\n      dup1\n        /* \"#utility.yul\":10012:10024   */\n      revert\n        /* \"#utility.yul\":9974:10026   */\n    tag_552:\n        /* \"#utility.yul\":10062:10071   */\n      dup3\n        /* \"#utility.yul\":10049:10072   */\n      calldataload\n        /* \"#utility.yul\":10091:10109   */\n      0xffffffffffffffff\n        /* \"#utility.yul\":10132:10134   */\n      dup1\n        /* \"#utility.yul\":10124:10130   */\n      dup3\n        /* \"#utility.yul\":10121:10135   */\n      gt\n        /* \"#utility.yul\":10118:10152   */\n      iszero\n      tag_553\n      jumpi\n        /* \"#utility.yul\":10148:10149   */\n      0x00\n        /* \"#utility.yul\":10145:10146   */\n      dup1\n        /* \"#utility.yul\":10138:10150   */\n      revert\n        /* \"#utility.yul\":10118:10152   */\n    tag_553:\n        /* \"#utility.yul\":10186:10192   */\n      dup2\n        /* \"#utility.yul\":10175:10184   */\n      dup6\n        /* \"#utility.yul\":10171:10193   */\n      add\n        /* \"#utility.yul\":10161:10193   */\n      swap2\n      pop\n        /* \"#utility.yul\":10231:10238   */\n      dup6\n        /* \"#utility.yul\":10224:10228   */\n      0x1f\n        /* \"#utility.yul\":10220:10222   */\n      dup4\n        /* \"#utility.yul\":10216:10229   */\n      add\n        /* \"#utility.yul\":10212:10239   */\n      slt\n        /* \"#utility.yul\":10202:10257   */\n      tag_554\n      jumpi\n        /* \"#utility.yul\":10253:10254   */\n      0x00\n        /* \"#utility.yul\":10250:10251   */\n      dup1\n        /* \"#utility.yul\":10243:10255   */\n      revert\n        /* \"#utility.yul\":10202:10257   */\n    tag_554:\n        /* \"#utility.yul\":10289:10291   */\n      dup2\n        /* \"#utility.yul\":10276:10292   */\n      calldataload\n        /* \"#utility.yul\":10311:10313   */\n      dup2\n        /* \"#utility.yul\":10307:10309   */\n      dup2\n        /* \"#utility.yul\":10304:10314   */\n      gt\n        /* \"#utility.yul\":10301:10337   */\n      iszero\n      tag_556\n      jumpi\n        /* \"#utility.yul\":10317:10335   */\n      tag_556\n      tag_274\n      jump\t// in\n    tag_556:\n        /* \"#utility.yul\":10359:10412   */\n      tag_557\n        /* \"#utility.yul\":10402:10404   */\n      0x1f\n        /* \"#utility.yul\":10383:10396   */\n      dup3\n      add\n      not(0x1f)\n        /* \"#utility.yul\":10379:10406   */\n      and\n        /* \"#utility.yul\":10375:10411   */\n      dup6\n      add\n        /* \"#utility.yul\":10359:10412   */\n      tag_467\n      jump\t// in\n    tag_557:\n        /* \"#utility.yul\":10346:10412   */\n      swap2\n      pop\n        /* \"#utility.yul\":10435:10437   */\n      dup1\n        /* \"#utility.yul\":10428:10433   */\n      dup3\n        /* \"#utility.yul\":10421:10438   */\n      mstore\n        /* \"#utility.yul\":10475:10482   */\n      dup7\n        /* \"#utility.yul\":10470:10472   */\n      dup5\n        /* \"#utility.yul\":10465:10467   */\n      dup3\n        /* \"#utility.yul\":10461:10463   */\n      dup6\n        /* \"#utility.yul\":10457:10468   */\n      add\n        /* \"#utility.yul\":10453:10473   */\n      add\n        /* \"#utility.yul\":10450:10483   */\n      gt\n        /* \"#utility.yul\":10447:10500   */\n      iszero\n      tag_558\n      jumpi\n        /* \"#utility.yul\":10496:10497   */\n      0x00\n        /* \"#utility.yul\":10493:10494   */\n      dup1\n        /* \"#utility.yul\":10486:10498   */\n      revert\n        /* \"#utility.yul\":10447:10500   */\n    tag_558:\n        /* \"#utility.yul\":10551:10553   */\n      dup1\n        /* \"#utility.yul\":10546:10548   */\n      dup5\n        /* \"#utility.yul\":10542:10544   */\n      dup5\n        /* \"#utility.yul\":10538:10549   */\n      add\n        /* \"#utility.yul\":10533:10535   */\n      dup6\n        /* \"#utility.yul\":10526:10531   */\n      dup5\n        /* \"#utility.yul\":10522:10536   */\n      add\n        /* \"#utility.yul\":10509:10554   */\n      calldatacopy\n        /* \"#utility.yul\":10595:10596   */\n      0x00\n        /* \"#utility.yul\":10574:10588   */\n      swap1\n      dup3\n      add\n        /* \"#utility.yul\":10570:10593   */\n      swap1\n      swap4\n      add\n        /* \"#utility.yul\":10563:10597   */\n      swap3\n      swap1\n      swap3\n      mstore\n      pop\n        /* \"#utility.yul\":10578:10583   */\n      swap4\n        /* \"#utility.yul\":9863:10627   */\n      swap3\n      pop\n      pop\n      pop\n      jump\t// out\n        /* \"#utility.yul\":10632:10892   */\n    tag_182:\n        /* \"#utility.yul\":10700:10706   */\n      0x00\n        /* \"#utility.yul\":10708:10714   */\n      dup1\n        /* \"#utility.yul\":10761:10763   */\n      0x40\n        /* \"#utility.yul\":10749:10758   */\n      dup4\n        /* \"#utility.yul\":10740:10747   */\n      dup6\n        /* \"#utility.yul\":10736:10759   */\n      sub\n        /* \"#utility.yul\":10732:10764   */\n      slt\n        /* \"#utility.yul\":10729:10781   */\n      iszero\n      tag_560\n      jumpi\n        /* \"#utility.yul\":10777:10778   */\n      0x00\n        /* \"#utility.yul\":10774:10775   */\n      dup1\n        /* \"#utility.yul\":10767:10779   */\n      revert\n        /* \"#utility.yul\":10729:10781   */\n    tag_560:\n        /* \"#utility.yul\":10800:10829   */\n      tag_561\n        /* \"#utility.yul\":10819:10828   */\n      dup4\n        /* \"#utility.yul\":10800:10829   */\n      tag_466\n      jump\t// in\n    tag_561:\n        /* \"#utility.yul\":10790:10829   */\n      swap2\n      pop\n        /* \"#utility.yul\":10848:10886   */\n      tag_562\n        /* \"#utility.yul\":10882:10884   */\n      0x20\n        /* \"#utility.yul\":10871:10880   */\n      dup5\n        /* \"#utility.yul\":10867:10885   */\n      add\n        /* \"#utility.yul\":10848:10886   */\n      tag_466\n      jump\t// in\n    tag_562:\n        /* \"#utility.yul\":10838:10886   */\n      swap1\n      pop\n        /* \"#utility.yul\":10632:10892   */\n      swap3\n      pop\n      swap3\n      swap1\n      pop\n      jump\t// out\n        /* \"#utility.yul\":11150:11530   */\n    tag_194:\n        /* \"#utility.yul\":11229:11230   */\n      0x01\n        /* \"#utility.yul\":11225:11237   */\n      dup2\n      dup2\n      shr\n      swap1\n        /* \"#utility.yul\":11272:11284   */\n      dup3\n      and\n      dup1\n        /* \"#utility.yul\":11293:11354   */\n      tag_565\n      jumpi\n        /* \"#utility.yul\":11347:11351   */\n      0x7f\n        /* \"#utility.yul\":11339:11345   */\n      dup3\n        /* \"#utility.yul\":11335:11352   */\n      and\n        /* \"#utility.yul\":11325:11352   */\n      swap2\n      pop\n        /* \"#utility.yul\":11293:11354   */\n    tag_565:\n        /* \"#utility.yul\":11400:11402   */\n      0x20\n        /* \"#utility.yul\":11392:11398   */\n      dup3\n        /* \"#utility.yul\":11389:11403   */\n      lt\n        /* \"#utility.yul\":11369:11387   */\n      dup2\n        /* \"#utility.yul\":11366:11404   */\n      sub\n        /* \"#utility.yul\":11363:11524   */\n      tag_280\n      jumpi\n        /* \"#utility.yul\":11446:11456   */\n      0x4e487b71\n        /* \"#utility.yul\":11441:11444   */\n      0xe0\n        /* \"#utility.yul\":11437:11457   */\n      shl\n        /* \"#utility.yul\":11434:11435   */\n      0x00\n        /* \"#utility.yul\":11427:11458   */\n      mstore\n        /* \"#utility.yul\":11481:11485   */\n      0x22\n        /* \"#utility.yul\":11478:11479   */\n      0x04\n        /* \"#utility.yul\":11471:11486   */\n      mstore\n        /* \"#utility.yul\":11509:11513   */\n      0x24\n        /* \"#utility.yul\":11506:11507   */\n      0x00\n        /* \"#utility.yul\":11499:11514   */\n      revert\n        /* \"#utility.yul\":11535:11662   */\n    tag_471:\n        /* \"#utility.yul\":11596:11606   */\n      0x4e487b71\n        /* \"#utility.yul\":11591:11594   */\n      0xe0\n        /* \"#utility.yul\":11587:11607   */\n      shl\n        /* \"#utility.yul\":11584:11585   */\n      0x00\n        /* \"#utility.yul\":11577:11608   */\n      mstore\n        /* \"#utility.yul\":11627:11631   */\n      0x11\n        /* \"#utility.yul\":11624:11625   */\n      0x04\n        /* \"#utility.yul\":11617:11632   */\n      mstore\n        /* \"#utility.yul\":11651:11655   */\n      0x24\n        /* \"#utility.yul\":11648:11649   */\n      0x00\n        /* \"#utility.yul\":11641:11656   */\n      revert\n        /* \"#utility.yul\":11667:11792   */\n    tag_204:\n        /* \"#utility.yul\":11732:11741   */\n      dup1\n      dup3\n      add\n        /* \"#utility.yul\":11753:11763   */\n      dup1\n      dup3\n      gt\n        /* \"#utility.yul\":11750:11786   */\n      iszero\n      tag_199\n      jumpi\n        /* \"#utility.yul\":11766:11784   */\n      tag_199\n      tag_471\n      jump\t// in\n        /* \"#utility.yul\":12406:12533   */\n    tag_472:\n        /* \"#utility.yul\":12467:12477   */\n      0x4e487b71\n        /* \"#utility.yul\":12462:12465   */\n      0xe0\n        /* \"#utility.yul\":12458:12478   */\n      shl\n        /* \"#utility.yul\":12455:12456   */\n      0x00\n        /* \"#utility.yul\":12448:12479   */\n      mstore\n        /* \"#utility.yul\":12498:12502   */\n      0x12\n        /* \"#utility.yul\":12495:12496   */\n      0x04\n        /* \"#utility.yul\":12488:12503   */\n      mstore\n        /* \"#utility.yul\":12522:12526   */\n      0x24\n        /* \"#utility.yul\":12519:12520   */\n      0x00\n        /* \"#utility.yul\":12512:12527   */\n      revert\n        /* \"#utility.yul\":12538:12650   */\n    tag_212:\n        /* \"#utility.yul\":12570:12571   */\n      0x00\n        /* \"#utility.yul\":12596:12597   */\n      dup3\n        /* \"#utility.yul\":12586:12621   */\n      tag_576\n      jumpi\n        /* \"#utility.yul\":12601:12619   */\n      tag_576\n      tag_472\n      jump\t// in\n    tag_576:\n      pop\n        /* \"#utility.yul\":12635:12644   */\n      mod\n      swap1\n        /* \"#utility.yul\":12538:12650   */\n      jump\t// out\n        /* \"#utility.yul\":12655:12782   */\n    tag_223:\n        /* \"#utility.yul\":12716:12726   */\n      0x4e487b71\n        /* \"#utility.yul\":12711:12714   */\n      0xe0\n        /* \"#utility.yul\":12707:12727   */\n      shl\n        /* \"#utility.yul\":12704:12705   */\n      0x00\n        /* \"#utility.yul\":12697:12728   */\n      mstore\n        /* \"#utility.yul\":12747:12751   */\n      0x32\n        /* \"#utility.yul\":12744:12745   */\n      0x04\n        /* \"#utility.yul\":12737:12752   */\n      mstore\n        /* \"#utility.yul\":12771:12775   */\n      0x24\n        /* \"#utility.yul\":12768:12769   */\n      0x00\n        /* \"#utility.yul\":12761:12776   */\n      revert\n        /* \"#utility.yul\":12787:12955   */\n    tag_228:\n        /* \"#utility.yul\":12860:12869   */\n      dup1\n      dup3\n      mul\n        /* \"#utility.yul\":12891:12900   */\n      dup2\n      iszero\n        /* \"#utility.yul\":12908:12923   */\n      dup3\n      dup3\n      div\n        /* \"#utility.yul\":12902:12924   */\n      dup5\n      eq\n        /* \"#utility.yul\":12888:12925   */\n      or\n        /* \"#utility.yul\":12878:12949   */\n      tag_199\n      jumpi\n        /* \"#utility.yul\":12929:12947   */\n      tag_199\n      tag_471\n      jump\t// in\n        /* \"#utility.yul\":12960:13313   */\n    tag_231:\n        /* \"#utility.yul\":13162:13164   */\n      0x20\n        /* \"#utility.yul\":13144:13165   */\n      dup1\n      dup3\n      mstore\n        /* \"#utility.yul\":13201:13203   */\n      0x1d\n        /* \"#utility.yul\":13181:13199   */\n      swap1\n      dup3\n      add\n        /* \"#utility.yul\":13174:13204   */\n      mstore\n        /* \"#utility.yul\":13240:13271   */\n      0x496e73756666696369656e7420636f6e74726163742062616c616e6365000000\n        /* \"#utility.yul\":13235:13237   */\n      0x40\n        /* \"#utility.yul\":13220:13238   */\n      dup3\n      add\n        /* \"#utility.yul\":13213:13272   */\n      mstore\n        /* \"#utility.yul\":13304:13306   */\n      0x60\n        /* \"#utility.yul\":13289:13307   */\n      add\n      swap1\n        /* \"#utility.yul\":12960:13313   */\n      jump\t// out\n        /* \"#utility.yul\":13318:13446   */\n    tag_234:\n        /* \"#utility.yul\":13385:13394   */\n      dup2\n      dup2\n      sub\n        /* \"#utility.yul\":13406:13417   */\n      dup2\n      dup2\n      gt\n        /* \"#utility.yul\":13403:13440   */\n      iszero\n      tag_199\n      jumpi\n        /* \"#utility.yul\":13420:13438   */\n      tag_199\n      tag_471\n      jump\t// in\n        /* \"#utility.yul\":13451:13578   */\n    tag_268:\n        /* \"#utility.yul\":13512:13522   */\n      0x4e487b71\n        /* \"#utility.yul\":13507:13510   */\n      0xe0\n        /* \"#utility.yul\":13503:13523   */\n      shl\n        /* \"#utility.yul\":13500:13501   */\n      0x00\n        /* \"#utility.yul\":13493:13524   */\n      mstore\n        /* \"#utility.yul\":13543:13547   */\n      0x31\n        /* \"#utility.yul\":13540:13541   */\n      0x04\n        /* \"#utility.yul\":13533:13548   */\n      mstore\n        /* \"#utility.yul\":13567:13571   */\n      0x24\n        /* \"#utility.yul\":13564:13565   */\n      0x00\n        /* \"#utility.yul\":13557:13572   */\n      revert\n        /* \"#utility.yul\":15327:15478   */\n    tag_406:\n        /* \"#utility.yul\":15417:15421   */\n      0xff\n        /* \"#utility.yul\":15410:15422   */\n      dup3\n      dup2\n      and\n        /* \"#utility.yul\":15396:15408   */\n      dup3\n      dup3\n      and\n        /* \"#utility.yul\":15392:15423   */\n      sub\n      swap1\n        /* \"#utility.yul\":15435:15449   */\n      dup2\n      gt\n        /* \"#utility.yul\":15432:15472   */\n      iszero\n      tag_199\n      jumpi\n        /* \"#utility.yul\":15452:15470   */\n      tag_199\n      tag_471\n      jump\t// in\n        /* \"#utility.yul\":16197:16613   */\n    tag_473:\n        /* \"#utility.yul\":16286:16287   */\n      0x01\n        /* \"#utility.yul\":16323:16328   */\n      dup2\n        /* \"#utility.yul\":16286:16287   */\n      dup2\n        /* \"#utility.yul\":16337:16607   */\n    tag_597:\n        /* \"#utility.yul\":16358:16365   */\n      dup1\n        /* \"#utility.yul\":16348:16356   */\n      dup6\n        /* \"#utility.yul\":16345:16366   */\n      gt\n        /* \"#utility.yul\":16337:16607   */\n      iszero\n      tag_599\n      jumpi\n        /* \"#utility.yul\":16417:16421   */\n      dup2\n        /* \"#utility.yul\":16413:16414   */\n      0x00\n        /* \"#utility.yul\":16409:16415   */\n      not\n        /* \"#utility.yul\":16405:16422   */\n      div\n        /* \"#utility.yul\":16399:16403   */\n      dup3\n        /* \"#utility.yul\":16396:16423   */\n      gt\n        /* \"#utility.yul\":16393:16446   */\n      iszero\n      tag_601\n      jumpi\n        /* \"#utility.yul\":16426:16444   */\n      tag_601\n      tag_471\n      jump\t// in\n    tag_601:\n        /* \"#utility.yul\":16476:16483   */\n      dup1\n        /* \"#utility.yul\":16466:16474   */\n      dup6\n        /* \"#utility.yul\":16462:16484   */\n      and\n        /* \"#utility.yul\":16459:16514   */\n      iszero\n      tag_602\n      jumpi\n        /* \"#utility.yul\":16496:16512   */\n      swap2\n      dup2\n      mul\n      swap2\n        /* \"#utility.yul\":16459:16514   */\n    tag_602:\n        /* \"#utility.yul\":16575:16597   */\n      swap4\n      dup5\n      shr\n      swap4\n        /* \"#utility.yul\":16535:16550   */\n      swap1\n      dup1\n      mul\n      swap1\n        /* \"#utility.yul\":16337:16607   */\n      jump(tag_597)\n    tag_599:\n        /* \"#utility.yul\":16341:16344   */\n      pop\n        /* \"#utility.yul\":16197:16613   */\n      swap3\n      pop\n      swap3\n      swap1\n      pop\n      jump\t// out\n        /* \"#utility.yul\":16618:17424   */\n    tag_474:\n        /* \"#utility.yul\":16667:16672   */\n      0x00\n        /* \"#utility.yul\":16697:16705   */\n      dup3\n        /* \"#utility.yul\":16687:16767   */\n      tag_604\n      jumpi\n      pop\n        /* \"#utility.yul\":16738:16739   */\n      0x01\n        /* \"#utility.yul\":16752:16757   */\n      jump(tag_199)\n        /* \"#utility.yul\":16687:16767   */\n    tag_604:\n        /* \"#utility.yul\":16786:16790   */\n      dup2\n        /* \"#utility.yul\":16776:16852   */\n      tag_605\n      jumpi\n      pop\n        /* \"#utility.yul\":16823:16824   */\n      0x00\n        /* \"#utility.yul\":16837:16842   */\n      jump(tag_199)\n        /* \"#utility.yul\":16776:16852   */\n    tag_605:\n        /* \"#utility.yul\":16868:16872   */\n      dup2\n        /* \"#utility.yul\":16886:16887   */\n      0x01\n        /* \"#utility.yul\":16881:16940   */\n      dup2\n      eq\n      tag_607\n      jumpi\n        /* \"#utility.yul\":16954:16955   */\n      0x02\n        /* \"#utility.yul\":16949:17079   */\n      dup2\n      eq\n      tag_608\n      jumpi\n        /* \"#utility.yul\":16861:17079   */\n      jump(tag_606)\n        /* \"#utility.yul\":16881:16940   */\n    tag_607:\n        /* \"#utility.yul\":16911:16912   */\n      0x01\n        /* \"#utility.yul\":16902:16912   */\n      swap2\n      pop\n        /* \"#utility.yul\":16925:16930   */\n      pop\n      jump(tag_199)\n        /* \"#utility.yul\":16949:17079   */\n    tag_608:\n        /* \"#utility.yul\":16986:16989   */\n      0xff\n        /* \"#utility.yul\":16976:16984   */\n      dup5\n        /* \"#utility.yul\":16973:16990   */\n      gt\n        /* \"#utility.yul\":16970:17013   */\n      iszero\n      tag_610\n      jumpi\n        /* \"#utility.yul\":16993:17011   */\n      tag_610\n      tag_471\n      jump\t// in\n    tag_610:\n      pop\n      pop\n        /* \"#utility.yul\":17049:17050   */\n      0x01\n        /* \"#utility.yul\":17035:17051   */\n      dup3\n      shl\n        /* \"#utility.yul\":17064:17069   */\n      jump(tag_199)\n        /* \"#utility.yul\":16861:17079   */\n    tag_606:\n      pop\n        /* \"#utility.yul\":17163:17165   */\n      0x20\n        /* \"#utility.yul\":17153:17161   */\n      dup4\n        /* \"#utility.yul\":17150:17166   */\n      lt\n        /* \"#utility.yul\":17144:17147   */\n      0x0133\n        /* \"#utility.yul\":17138:17142   */\n      dup4\n        /* \"#utility.yul\":17135:17148   */\n      lt\n        /* \"#utility.yul\":17131:17167   */\n      and\n        /* \"#utility.yul\":17125:17127   */\n      0x4e\n        /* \"#utility.yul\":17115:17123   */\n      dup5\n        /* \"#utility.yul\":17112:17128   */\n      lt\n        /* \"#utility.yul\":17107:17109   */\n      0x0b\n        /* \"#utility.yul\":17101:17105   */\n      dup5\n        /* \"#utility.yul\":17098:17110   */\n      lt\n        /* \"#utility.yul\":17094:17129   */\n      and\n        /* \"#utility.yul\":17091:17168   */\n      or\n        /* \"#utility.yul\":17088:17247   */\n      iszero\n      tag_611\n      jumpi\n      pop\n        /* \"#utility.yul\":17200:17219   */\n      dup2\n      dup2\n      exp\n        /* \"#utility.yul\":17232:17237   */\n      jump(tag_199)\n        /* \"#utility.yul\":17088:17247   */\n    tag_611:\n        /* \"#utility.yul\":17279:17313   */\n      tag_612\n        /* \"#utility.yul\":17304:17312   */\n      dup4\n        /* \"#utility.yul\":17298:17302   */\n      dup4\n        /* \"#utility.yul\":17279:17313   */\n      tag_473\n      jump\t// in\n    tag_612:\n        /* \"#utility.yul\":17349:17355   */\n      dup1\n        /* \"#utility.yul\":17345:17346   */\n      0x00\n        /* \"#utility.yul\":17341:17347   */\n      not\n        /* \"#utility.yul\":17337:17356   */\n      div\n        /* \"#utility.yul\":17328:17335   */\n      dup3\n        /* \"#utility.yul\":17325:17357   */\n      gt\n        /* \"#utility.yul\":17322:17380   */\n      iszero\n      tag_614\n      jumpi\n        /* \"#utility.yul\":17360:17378   */\n      tag_614\n      tag_471\n      jump\t// in\n    tag_614:\n        /* \"#utility.yul\":17398:17418   */\n      mul\n      swap4\n        /* \"#utility.yul\":16618:17424   */\n      swap3\n      pop\n      pop\n      pop\n      jump\t// out\n        /* \"#utility.yul\":17429:17569   */\n    tag_435:\n        /* \"#utility.yul\":17487:17492   */\n      0x00\n        /* \"#utility.yul\":17516:17563   */\n      tag_540\n        /* \"#utility.yul\":17557:17561   */\n      0xff\n        /* \"#utility.yul\":17547:17555   */\n      dup5\n        /* \"#utility.yul\":17543:17562   */\n      and\n        /* \"#utility.yul\":17537:17541   */\n      dup4\n        /* \"#utility.yul\":17516:17563   */\n      tag_474\n      jump\t// in\n        /* \"#utility.yul\":17574:17694   */\n    tag_437:\n        /* \"#utility.yul\":17614:17615   */\n      0x00\n        /* \"#utility.yul\":17640:17641   */\n      dup3\n        /* \"#utility.yul\":17630:17665   */\n      tag_619\n      jumpi\n        /* \"#utility.yul\":17645:17663   */\n      tag_619\n      tag_472\n      jump\t// in\n    tag_619:\n      pop\n        /* \"#utility.yul\":17679:17688   */\n      div\n      swap1\n        /* \"#utility.yul\":17574:17694   */\n      jump\t// out\n\n    auxdata: 0xa2646970667358221220891365ecdbef2aefc9fa4b3c42959906ac973d0ff3094efdf0c75d221550dd8864736f6c63430008160033\n}\n",
				"bytecode": {
					"linkReferences": {},
					"object": "60c0604052600e60809081526d2637ba3a37901a22102a37b5b2b760911b60a0526001906200002f908262000252565b50604080518082019091526003815262130d1160ea1b602082015260029062000059908262000252565b506003805460ff191660099081179091556305f5e100600755643a352944006008556201518090553480156200008e57600080fd5b50604051620026d0380380620026d0833981016040819052620000b1916200031e565b3380620000d857604051631e4fbdf760e01b81526000600482015260240160405180910390fd5b620000e3816200015b565b50600354620000f79060ff16600a6200044d565b62000103908262000462565b600481905533600081815260056020908152604080832085905551938452919290917fddf252ad1be2c89b69c2b068fc378daa952ba7f163c4a11628f55a4df523b3ef910160405180910390a35042600a556200047c565b600080546001600160a01b038381166001600160a01b0319831681178455604051919092169283917f8be0079c531659141344cd1fd0a4f28419497f9722a3daafe3b4186f6b6457e09190a35050565b634e487b7160e01b600052604160045260246000fd5b600181811c90821680620001d657607f821691505b602082108103620001f757634e487b7160e01b600052602260045260246000fd5b50919050565b601f8211156200024d576000816000526020600020601f850160051c81016020861015620002285750805b601f850160051c820191505b81811015620002495782815560010162000234565b5050505b505050565b81516001600160401b038111156200026e576200026e620001ab565b62000286816200027f8454620001c1565b84620001fd565b602080601f831160018114620002be5760008415620002a55750858301515b600019600386901b1c1916600185901b17855562000249565b600085815260208120601f198616915b82811015620002ef57888601518255948401946001909101908401620002ce565b50858210156200030e5787850151600019600388901b60f8161c191681555b5050505050600190811b01905550565b6000602082840312156200033157600080fd5b5051919050565b634e487b7160e01b600052601160045260246000fd5b600181815b808511156200038f57816000190482111562000373576200037362000338565b808516156200038157918102915b93841c939080029062000353565b509250929050565b600082620003a85750600162000447565b81620003b75750600062000447565b8160018114620003d05760028114620003db57620003fb565b600191505062000447565b60ff841115620003ef57620003ef62000338565b50506001821b62000447565b5060208310610133831016604e8410600b841016171562000420575081810a62000447565b6200042c83836200034e565b806000190482111562000443576200044362000338565b0290505b92915050565b60006200045b838362000397565b9392505050565b808202811582820484141762000447576200044762000338565b612244806200048c6000396000f3fe608060405234801561001057600080fd5b506004361061023d5760003560e01c80638772ae3c1161013b578063a9059cbb116100b8578063c4a7761e1161007c578063c4a7761e146104fa578063d10057ad14610502578063dd62ed3e1461050b578063ea2ea08514610544578063f2fde38b1461056c57600080fd5b8063a9059cbb146104ad578063b416052d146104c0578063b5ef6d86146104c9578063c32a6f6d146104de578063c38a8afd146104f157600080fd5b8063997e84d2116100ff578063997e84d21461042e578063a167a09d14610441578063a3cb679d14610489578063a457c2d714610491578063a73c7140146104a457600080fd5b80638772ae3c146103e75780638c21460b146103fa5780638da5cb5b1461040357806391578f111461041e57806395d89b411461042657600080fd5b806324ac60a7116101c95780636f9fb98a1161018d5780636f9fb98a1461037957806370a082311461038e578063715018a6146103b75780637932f9ec146103bf5780637a20cf86146103d457600080fd5b806324ac60a714610323578063313ce5671461032c578063395093511461034b5780635f2b877d1461035e578063645896541461037157600080fd5b8063186eee8b11610210578063186eee8b1461029f57806320ae2059146102b4578063227cade5146102c757806322af00fa146102d057806323b872dd1461031057600080fd5b806306fdde0314610242578063095ea7b3146102605780630eecae211461028357806318160ddd1461028d575b600080fd5b61024a61057f565b6040516102579190611ab0565b60405180910390f35b61027361026e366004611b1b565b61060d565b6040519015158152602001610257565b61028b610624565b005b6004545b604051908152602001610257565b6102a7610d18565b6040516102579190611b45565b61028b6102c2366004611bb5565b610e79565b61029160085481565b6102e36102de366004611bb5565b610e86565b604080516001600160a01b03909516855260208501939093529183015260ff166060820152608001610257565b61027361031e366004611bce565b610ecd565b61029160095481565b6003546103399060ff1681565b60405160ff9091168152602001610257565b610273610359366004611b1b565b610f1f565b61028b61036c366004611d53565b610f56565b600a54610291565b30600090815260056020526040902054610291565b61029161039c366004611e41565b6001600160a01b031660009081526005602052604090205490565b61028b6113b2565b6103c76113c6565b6040516102579190611e63565b61028b6103e2366004611bb5565b61145d565b61028b6103f5366004611bb5565b6114b3565b610291600a5481565b6000546040516001600160a01b039091168152602001610257565b600b54610291565b61024a6114c0565b61028b61043c366004611bb5565b6114cd565b61045461044f366004611bb5565b6114da565b604080516001600160a01b039096168652602086019490945292840191909152606083015260ff16608082015260a001610257565b600d54610291565b61027361049f366004611b1b565b611528565b610291600e5481565b6102736104bb366004611b1b565b61155f565b610291600b5481565b6104d161156c565b6040516102579190611ed0565b6102916104ec366004611f12565b6115d6565b61029160075481565b600e54610291565b610291600d5481565b610291610519366004611fa7565b6001600160a01b03918216600090815260066020908152604080832093909416825291909152205490565b610557610552366004611bb5565b611633565b60408051928352602083019190915201610257565b61028b61057a366004611e41565b611661565b6001805461058c90611fda565b80601f01602080910402602001604051908101604052809291908181526020018280546105b890611fda565b80156106055780601f106105da57610100808354040283529160200191610605565b820191906000526020600020905b8154815290600101906020018083116105e857829003601f168201915b505050505081565b600061061a33848461169c565b5060015b92915050565b600954600a546106349190612024565b4210156106885760405162461bcd60e51b815260206004820152601c60248201527f447261772074696d6520686173206e6f7420706173736564207965740000000060448201526064015b60405180910390fd5b600061271042446040516020016106a9929190918252602082015260400190565b6040516020818303038152906040528051906020012060001c6106cc919061204d565b905060006106db8260046117aa565b90506106e6816115d6565b600b8190556040519081527f3fd10e0b772395f38ab47fc59126002084ce1e04d2b65432f5c90bbd9e2339999060200160405180910390a160408051808201909152600b5481524260208201908152600c8054600181018255600091825292517fdf6966c971051c3d54ec59162606531493a51404a002842f56009d7e5cf4a8c760029094029384015590517fdf6966c971051c3d54ec59162606531493a51404a002842f56009d7e5cf4a8c890920191909155805b601054811015610c51576000601082815481106107bb576107bb612061565b600091825260209182902060408051608081018252600493840290920180546001600160a01b0316835260018101549483019490945260028401549082015260039092015460ff166060830181905291925014801561081f5750600b548160400151145b156109f657602081015161083590610fa0612077565b306000908152600560205260409020549093508311156108675760405162461bcd60e51b815260040161067f9061208e565b80516001600160a01b031660009081526005602052604081208054859290610890908490612024565b909155505030600090815260056020526040812080548592906108b49084906120c5565b90915550506040805160a08101825282516001600160a01b039081168252600b54602080840191825285015193830193845260608084018881529086015160ff90811660808601908152600f805460018101825560009190915295517f8d1108e10bcb7c27dddfc02ed9d693a074039d026cf4ea4240b40f7d581ac802600590970296870180546001600160a01b031916919096161790945591517f8d1108e10bcb7c27dddfc02ed9d693a074039d026cf4ea4240b40f7d581ac80385015593517f8d1108e10bcb7c27dddfc02ed9d693a074039d026cf4ea4240b40f7d581ac80484015592517f8d1108e10bcb7c27dddfc02ed9d693a074039d026cf4ea4240b40f7d581ac805830155517f8d1108e10bcb7c27dddfc02ed9d693a074039d026cf4ea4240b40f7d581ac806909101805460ff191691909216179055610c48565b806060015160ff166003148015610a2c57506103e8600b54610a18919061204d565b6103e88260400151610a2a919061204d565b145b15610a425760208101516108359061015e612077565b806060015160ff166002148015610a7657506064600b54610a63919061204d565b60648260400151610a74919061204d565b145b15610c48576020810151610a8b906046612077565b30600090815260056020526040902054909350831115610abd5760405162461bcd60e51b815260040161067f9061208e565b80516001600160a01b031660009081526005602052604081208054859290610ae6908490612024565b90915550503060009081526005602052604081208054859290610b0a9084906120c5565b90915550506040805160a08101825282516001600160a01b039081168252600b54602080840191825285015193830193845260608084018881529086015160ff90811660808601908152600f805460018101825560009190915295517f8d1108e10bcb7c27dddfc02ed9d693a074039d026cf4ea4240b40f7d581ac802600590970296870180546001600160a01b031916919096161790945591517f8d1108e10bcb7c27dddfc02ed9d693a074039d026cf4ea4240b40f7d581ac80385015593517f8d1108e10bcb7c27dddfc02ed9d693a074039d026cf4ea4240b40f7d581ac80484015592517f8d1108e10bcb7c27dddfc02ed9d693a074039d026cf4ea4240b40f7d581ac805830155517f8d1108e10bcb7c27dddfc02ed9d693a074039d026cf4ea4240b40f7d581ac806909101805460ff1916919092161790555b5060010161079c565b5060005b601054811015610cb05760108181548110610c7257610c72612061565b60009182526020822060049091020180546001600160a01b031916815560018082018390556002820192909255600301805460ff1916905501610c55565b505b60105415610d0f576010805480610ccb57610ccb6120d8565b60008281526020812060046000199093019283020180546001600160a01b0319168155600181018290556002810191909155600301805460ff191690559055610cb2565b505042600a5550565b60105460609060009067ffffffffffffffff811115610d3957610d39611c0a565b604051908082528060200260200182016040528015610d8b57816020015b604080516080810182526000808252602080830182905292820181905260608201528252600019909201910181610d575790505b50905060005b601054811015610e7357600060108281548110610db057610db0612061565b6000918252602080832060408051608081018252600494850290920180546001600160a01b03168352600181015493830193909352600283015490820181905260039092015460ff1660608201529350610e09916117aa565b9050604051806080016040528083600001516001600160a01b0316815260200183602001518152602001610e3c836115d6565b8152602001836060015160ff16815250848481518110610e5e57610e5e612061565b60209081029190910101525050600101610d91565b50919050565b610e81611887565b600855565b60108181548110610e9657600080fd5b600091825260209091206004909102018054600182015460028301546003909301546001600160a01b039092169350919060ff1684565b6000610eda8484846118b4565b6001600160a01b038416600090815260066020908152604080832033808552925290912054610f15918691610f109086906120c5565b61169c565b5060019392505050565b3360008181526006602090815260408083206001600160a01b0387168452909152812054909161061a918590610f10908690612024565b600954600a54610f669190612024565b4210610fab5760405162461bcd60e51b8152602060048201526014602482015273111c985dc81d1a5b59481a185cc81c185cdcd95960621b604482015260640161067f565b60008351118015610fbd575081518351145b6110025760405162461bcd60e51b8152602060048201526016602482015275496e76616c696420626174636820626574206461746160501b604482015260640161067f565b60008060005b855181101561131b5760075485828151811061102657611026612061565b602002602001015110158015611057575060085485828151811061104c5761104c612061565b602002602001015111155b6110985760405162461bcd60e51b8152602060048201526012602482015271125b9d985b1a590818995d08185b5bdd5b9d60721b604482015260640161067f565b8481815181106110aa576110aa612061565b602002602001015160056000336001600160a01b03166001600160a01b031681526020019081526020016000205410156111265760405162461bcd60e51b815260206004820152601a60248201527f496e73756666696369656e7420746f6b656e2062616c616e6365000000000000604482015260640161067f565b61114a333087848151811061113d5761113d612061565b60200260200101516118b4565b60106040518060800160405280336001600160a01b0316815260200187848151811061117857611178612061565b6020026020010151815260200188848151811061119757611197612061565b602002602001015161ffff1681526020018684815181106111ba576111ba612061565b60209081029190910181015160ff908116909252835460018082018655600095865294829020845160049092020180546001600160a01b0319166001600160a01b039092169190911781559083015193810193909355604082015160028401556060909101516003909201805460ff191692909116919091179055845185908290811061124957611249612061565b60200260200101518361125c9190612024565b9250611269600183612024565b9150336001600160a01b03167ff1f7ab530f4e4459175331d052687384cc5db58d6dc4a5999f06998b5c34523c8683815181106112a8576112a8612061565b60200260200101518884815181106112c2576112c2612061565b60200260200101518785815181106112dc576112dc612061565b602002602001015160405161130b9392919092835261ffff91909116602083015260ff16604082015260600190565b60405180910390a2600101611008565b5080600d600082825461132e9190612024565b9250508190555081600e60008282546113479190612024565b9091555050336000908152600560205260409020548211156113ab5760405162461bcd60e51b815260206004820152601a60248201527f496e73756666696369656e7420746f6b656e2062616c616e6365000000000000604482015260640161067f565b5050505050565b6113ba611887565b6113c46000611a60565b565b6060600f805480602002602001604051908101604052809291908181526020016000905b828210156114545760008481526020908190206040805160a0810182526005860290920180546001600160a01b0316835260018082015484860152600282015492840192909252600381015460608401526004015460ff16608083015290835290920191016113ea565b50505050905090565b611465611887565b306000908152600560205260409020548111156114945760405162461bcd60e51b815260040161067f9061208e565b6114b0306114aa6000546001600160a01b031690565b836118b4565b50565b6114bb611887565b600755565b6002805461058c90611fda565b6114d5611887565b600955565b600f81815481106114ea57600080fd5b6000918252602090912060059091020180546001820154600283015460038401546004909401546001600160a01b0390931694509092909160ff1685565b3360008181526006602090815260408083206001600160a01b0387168452909152812054909161061a918590610f109086906120c5565b600061061a3384846118b4565b6060600c805480602002602001604051908101604052809291908181526020016000905b8282101561145457838290600052602060002090600202016040518060400160405290816000820154815260200160018201548152505081526020019060010190611590565b600080805b835181101561162c5760308482815181106115f8576115f8612061565b016020015161160a919060f81c6120ee565b60ff1661161883600a612077565b6116229190612024565b91506001016115db565b5092915050565b600c818154811061164357600080fd5b60009182526020909120600290910201805460019091015490915082565b611669611887565b6001600160a01b03811661169357604051631e4fbdf760e01b81526000600482015260240161067f565b6114b081611a60565b6001600160a01b0383166116f25760405162461bcd60e51b815260206004820152601d60248201527f417070726f76652066726f6d20746865207a65726f2061646472657373000000604482015260640161067f565b6001600160a01b0382166117485760405162461bcd60e51b815260206004820152601b60248201527f417070726f766520746f20746865207a65726f20616464726573730000000000604482015260640161067f565b6001600160a01b0383811660008181526006602090815260408083209487168084529482529182902085905590518481527f8c5be1e5ebec7d5bd14f71427d1e84f3dd0314c0f7b2291e5b200ac8c7c3b92591015b60405180910390a3505050565b606060008260ff1667ffffffffffffffff8111156117ca576117ca611c0a565b6040519080825280601f01601f1916602001820160405280156117f4576020820181803683370190505b50905060005b8360ff168160ff16101561187f57600a61181482826121eb565b61181e90876121fa565b611828919061204d565b611833906030612024565b60f81b82826118436001886120ee565b61184d91906120ee565b60ff168151811061186057611860612061565b60200101906001600160f81b031916908160001a9053506001016117fa565b509392505050565b6000546001600160a01b031633146113c45760405163118cdaa760e01b815233600482015260240161067f565b6001600160a01b03831661190a5760405162461bcd60e51b815260206004820152601e60248201527f5472616e736665722066726f6d20746865207a65726f20616464726573730000604482015260640161067f565b6001600160a01b0382166119605760405162461bcd60e51b815260206004820152601c60248201527f5472616e7366657220746f20746865207a65726f206164647265737300000000604482015260640161067f565b6001600160a01b0383166000908152600560205260409020548111156119bf5760405162461bcd60e51b8152602060048201526014602482015273496e73756666696369656e742062616c616e636560601b604482015260640161067f565b6001600160a01b038316600090815260056020526040812080548392906119e79084906120c5565b90915550506001600160a01b03821660009081526005602052604081208054839290611a14908490612024565b92505081905550816001600160a01b0316836001600160a01b03167fddf252ad1be2c89b69c2b068fc378daa952ba7f163c4a11628f55a4df523b3ef8360405161179d91815260200190565b600080546001600160a01b038381166001600160a01b0319831681178455604051919092169283917f8be0079c531659141344cd1fd0a4f28419497f9722a3daafe3b4186f6b6457e09190a35050565b60006020808352835180602085015260005b81811015611ade57858101830151858201604001528201611ac2565b506000604082860101526040601f19601f8301168501019250505092915050565b80356001600160a01b0381168114611b1657600080fd5b919050565b60008060408385031215611b2e57600080fd5b611b3783611aff565b946020939093013593505050565b602080825282518282018190526000919060409081850190868401855b82811015611ba857815180516001600160a01b031685528681015187860152858101518686015260609081015160ff169085015260809093019290850190600101611b62565b5091979650505050505050565b600060208284031215611bc757600080fd5b5035919050565b600080600060608486031215611be357600080fd5b611bec84611aff565b9250611bfa60208501611aff565b9150604084013590509250925092565b634e487b7160e01b600052604160045260246000fd5b604051601f8201601f1916810167ffffffffffffffff81118282101715611c4957611c49611c0a565b604052919050565b600067ffffffffffffffff821115611c6b57611c6b611c0a565b5060051b60200190565b600082601f830112611c8657600080fd5b81356020611c9b611c9683611c51565b611c20565b8083825260208201915060208460051b870101935086841115611cbd57600080fd5b602086015b84811015611cd95780358352918301918301611cc2565b509695505050505050565b600082601f830112611cf557600080fd5b81356020611d05611c9683611c51565b8083825260208201915060208460051b870101935086841115611d2757600080fd5b602086015b84811015611cd957803560ff81168114611d465760008081fd5b8352918301918301611d2c565b600080600060608486031215611d6857600080fd5b833567ffffffffffffffff80821115611d8057600080fd5b818601915086601f830112611d9457600080fd5b81356020611da4611c9683611c51565b82815260059290921b8401810191818101908a841115611dc357600080fd5b948201945b83861015611df257853561ffff81168114611de35760008081fd5b82529482019490820190611dc8565b97505087013592505080821115611e0857600080fd5b611e1487838801611c75565b93506040860135915080821115611e2a57600080fd5b50611e3786828701611ce4565b9150509250925092565b600060208284031215611e5357600080fd5b611e5c82611aff565b9392505050565b602080825282518282018190526000919060409081850190868401855b82811015611ba857815180516001600160a01b03168552868101518786015285810151868601526060808201519086015260809081015160ff169085015260a09093019290850190600101611e80565b602080825282518282018190526000919060409081850190868401855b82811015611ba857815180518552860151868501529284019290850190600101611eed565b60006020808385031215611f2557600080fd5b823567ffffffffffffffff80821115611f3d57600080fd5b818501915085601f830112611f5157600080fd5b813581811115611f6357611f63611c0a565b611f75601f8201601f19168501611c20565b91508082528684828501011115611f8b57600080fd5b8084840185840137600090820190930192909252509392505050565b60008060408385031215611fba57600080fd5b611fc383611aff565b9150611fd160208401611aff565b90509250929050565b600181811c90821680611fee57607f821691505b602082108103610e7357634e487b7160e01b600052602260045260246000fd5b634e487b7160e01b600052601160045260246000fd5b8082018082111561061e5761061e61200e565b634e487b7160e01b600052601260045260246000fd5b60008261205c5761205c612037565b500690565b634e487b7160e01b600052603260045260246000fd5b808202811582820484141761061e5761061e61200e565b6020808252601d908201527f496e73756666696369656e7420636f6e74726163742062616c616e6365000000604082015260600190565b8181038181111561061e5761061e61200e565b634e487b7160e01b600052603160045260246000fd5b60ff828116828216039081111561061e5761061e61200e565b600181815b808511156121425781600019048211156121285761212861200e565b8085161561213557918102915b93841c939080029061210c565b509250929050565b6000826121595750600161061e565b816121665750600061061e565b816001811461217c5760028114612186576121a2565b600191505061061e565b60ff8411156121975761219761200e565b50506001821b61061e565b5060208310610133831016604e8410600b84101617156121c5575081810a61061e565b6121cf8383612107565b80600019048211156121e3576121e361200e565b029392505050565b6000611e5c60ff84168361214a565b60008261220957612209612037565b50049056fea2646970667358221220891365ecdbef2aefc9fa4b3c42959906ac973d0ff3094efdf0c75d221550dd8864736f6c63430008160033",
					"opcodes": "PUSH1 0xC0 PUSH1 0x40 MSTORE PUSH1 0xE PUSH1 0x80 SWAP1 DUP2 MSTORE PUSH14 0x2637BA3A37901A22102A37B5B2B7 PUSH1 0x91 SHL PUSH1 0xA0 MSTORE PUSH1 0x1 SWAP1 PUSH3 0x2F SWAP1 DUP3 PUSH3 0x252 JUMP JUMPDEST POP PUSH1 0x40 DUP1 MLOAD DUP1 DUP3 ADD SWAP1 SWAP2 MSTORE PUSH1 0x3 DUP2 MSTORE PUSH3 0x130D11 PUSH1 0xEA SHL PUSH1 0x20 DUP3 ADD MSTORE PUSH1 0x2 SWAP1 PUSH3 0x59 SWAP1 DUP3 PUSH3 0x252 JUMP JUMPDEST POP PUSH1 0x3 DUP1 SLOAD PUSH1 0xFF NOT AND PUSH1 0x9 SWAP1 DUP2 OR SWAP1 SWAP2 SSTORE PUSH4 0x5F5E100 PUSH1 0x7 SSTORE PUSH5 0x3A35294400 PUSH1 0x8 SSTORE PUSH3 0x15180 SWAP1 SSTORE CALLVALUE DUP1 ISZERO PUSH3 0x8E JUMPI PUSH1 0x0 DUP1 REVERT JUMPDEST POP PUSH1 0x40 MLOAD PUSH3 0x26D0 CODESIZE SUB DUP1 PUSH3 0x26D0 DUP4 CODECOPY DUP2 ADD PUSH1 0x40 DUP2 SWAP1 MSTORE PUSH3 0xB1 SWAP2 PUSH3 0x31E JUMP JUMPDEST CALLER DUP1 PUSH3 0xD8 JUMPI PUSH1 0x40 MLOAD PUSH4 0x1E4FBDF7 PUSH1 0xE0 SHL DUP2 MSTORE PUSH1 0x0 PUSH1 0x4 DUP3 ADD MSTORE PUSH1 0x24 ADD PUSH1 0x40 MLOAD DUP1 SWAP2 SUB SWAP1 REVERT JUMPDEST PUSH3 0xE3 DUP2 PUSH3 0x15B JUMP JUMPDEST POP PUSH1 0x3 SLOAD PUSH3 0xF7 SWAP1 PUSH1 0xFF AND PUSH1 0xA PUSH3 0x44D JUMP JUMPDEST PUSH3 0x103 SWAP1 DUP3 PUSH3 0x462 JUMP JUMPDEST PUSH1 0x4 DUP2 SWAP1 SSTORE CALLER PUSH1 0x0 DUP2 DUP2 MSTORE PUSH1 0x5 PUSH1 0x20 SWAP1 DUP2 MSTORE PUSH1 0x40 DUP1 DUP4 KECCAK256 DUP6 SWAP1 SSTORE MLOAD SWAP4 DUP5 MSTORE SWAP2 SWAP3 SWAP1 SWAP2 PUSH32 0xDDF252AD1BE2C89B69C2B068FC378DAA952BA7F163C4A11628F55A4DF523B3EF SWAP2 ADD PUSH1 0x40 MLOAD DUP1 SWAP2 SUB SWAP1 LOG3 POP TIMESTAMP PUSH1 0xA SSTORE PUSH3 0x47C JUMP JUMPDEST PUSH1 0x0 DUP1 SLOAD PUSH1 0x1 PUSH1 0x1 PUSH1 0xA0 SHL SUB DUP4 DUP2 AND PUSH1 0x1 PUSH1 0x1 PUSH1 0xA0 SHL SUB NOT DUP4 AND DUP2 OR DUP5 SSTORE PUSH1 0x40 MLOAD SWAP2 SWAP1 SWAP3 AND SWAP3 DUP4 SWAP2 PUSH32 0x8BE0079C531659141344CD1FD0A4F28419497F9722A3DAAFE3B4186F6B6457E0 SWAP2 SWAP1 LOG3 POP POP JUMP JUMPDEST PUSH4 0x4E487B71 PUSH1 0xE0 SHL PUSH1 0x0 MSTORE PUSH1 0x41 PUSH1 0x4 MSTORE PUSH1 0x24 PUSH1 0x0 REVERT JUMPDEST PUSH1 0x1 DUP2 DUP2 SHR SWAP1 DUP3 AND DUP1 PUSH3 0x1D6 JUMPI PUSH1 0x7F DUP3 AND SWAP2 POP JUMPDEST PUSH1 0x20 DUP3 LT DUP2 SUB PUSH3 0x1F7 JUMPI PUSH4 0x4E487B71 PUSH1 0xE0 SHL PUSH1 0x0 MSTORE PUSH1 0x22 PUSH1 0x4 MSTORE PUSH1 0x24 PUSH1 0x0 REVERT JUMPDEST POP SWAP2 SWAP1 POP JUMP JUMPDEST PUSH1 0x1F DUP3 GT ISZERO PUSH3 0x24D JUMPI PUSH1 0x0 DUP2 PUSH1 0x0 MSTORE PUSH1 0x20 PUSH1 0x0 KECCAK256 PUSH1 0x1F DUP6 ADD PUSH1 0x5 SHR DUP2 ADD PUSH1 0x20 DUP7 LT ISZERO PUSH3 0x228 JUMPI POP DUP1 JUMPDEST PUSH1 0x1F DUP6 ADD PUSH1 0x5 SHR DUP3 ADD SWAP2 POP JUMPDEST DUP2 DUP2 LT ISZERO PUSH3 0x249 JUMPI DUP3 DUP2 SSTORE PUSH1 0x1 ADD PUSH3 0x234 JUMP JUMPDEST POP POP POP JUMPDEST POP POP POP JUMP JUMPDEST DUP2 MLOAD PUSH1 0x1 PUSH1 0x1 PUSH1 0x40 SHL SUB DUP2 GT ISZERO PUSH3 0x26E JUMPI PUSH3 0x26E PUSH3 0x1AB JUMP JUMPDEST PUSH3 0x286 DUP2 PUSH3 0x27F DUP5 SLOAD PUSH3 0x1C1 JUMP JUMPDEST DUP5 PUSH3 0x1FD JUMP JUMPDEST PUSH1 0x20 DUP1 PUSH1 0x1F DUP4 GT PUSH1 0x1 DUP2 EQ PUSH3 0x2BE JUMPI PUSH1 0x0 DUP5 ISZERO PUSH3 0x2A5 JUMPI POP DUP6 DUP4 ADD MLOAD JUMPDEST PUSH1 0x0 NOT PUSH1 0x3 DUP7 SWAP1 SHL SHR NOT AND PUSH1 0x1 DUP6 SWAP1 SHL OR DUP6 SSTORE PUSH3 0x249 JUMP JUMPDEST PUSH1 0x0 DUP6 DUP2 MSTORE PUSH1 0x20 DUP2 KECCAK256 PUSH1 0x1F NOT DUP7 AND SWAP2 JUMPDEST DUP3 DUP2 LT ISZERO PUSH3 0x2EF JUMPI DUP9 DUP7 ADD MLOAD DUP3 SSTORE SWAP5 DUP5 ADD SWAP5 PUSH1 0x1 SWAP1 SWAP2 ADD SWAP1 DUP5 ADD PUSH3 0x2CE JUMP JUMPDEST POP DUP6 DUP3 LT ISZERO PUSH3 0x30E JUMPI DUP8 DUP6 ADD MLOAD PUSH1 0x0 NOT PUSH1 0x3 DUP9 SWAP1 SHL PUSH1 0xF8 AND SHR NOT AND DUP2 SSTORE JUMPDEST POP POP POP POP POP PUSH1 0x1 SWAP1 DUP2 SHL ADD SWAP1 SSTORE POP JUMP JUMPDEST PUSH1 0x0 PUSH1 0x20 DUP3 DUP5 SUB SLT ISZERO PUSH3 0x331 JUMPI PUSH1 0x0 DUP1 REVERT JUMPDEST POP MLOAD SWAP2 SWAP1 POP JUMP JUMPDEST PUSH4 0x4E487B71 PUSH1 0xE0 SHL PUSH1 0x0 MSTORE PUSH1 0x11 PUSH1 0x4 MSTORE PUSH1 0x24 PUSH1 0x0 REVERT JUMPDEST PUSH1 0x1 DUP2 DUP2 JUMPDEST DUP1 DUP6 GT ISZERO PUSH3 0x38F JUMPI DUP2 PUSH1 0x0 NOT DIV DUP3 GT ISZERO PUSH3 0x373 JUMPI PUSH3 0x373 PUSH3 0x338 JUMP JUMPDEST DUP1 DUP6 AND ISZERO PUSH3 0x381 JUMPI SWAP2 DUP2 MUL SWAP2 JUMPDEST SWAP4 DUP5 SHR SWAP4 SWAP1 DUP1 MUL SWAP1 PUSH3 0x353 JUMP JUMPDEST POP SWAP3 POP SWAP3 SWAP1 POP JUMP JUMPDEST PUSH1 0x0 DUP3 PUSH3 0x3A8 JUMPI POP PUSH1 0x1 PUSH3 0x447 JUMP JUMPDEST DUP2 PUSH3 0x3B7 JUMPI POP PUSH1 0x0 PUSH3 0x447 JUMP JUMPDEST DUP2 PUSH1 0x1 DUP2 EQ PUSH3 0x3D0 JUMPI PUSH1 0x2 DUP2 EQ PUSH3 0x3DB JUMPI PUSH3 0x3FB JUMP JUMPDEST PUSH1 0x1 SWAP2 POP POP PUSH3 0x447 JUMP JUMPDEST PUSH1 0xFF DUP5 GT ISZERO PUSH3 0x3EF JUMPI PUSH3 0x3EF PUSH3 0x338 JUMP JUMPDEST POP POP PUSH1 0x1 DUP3 SHL PUSH3 0x447 JUMP JUMPDEST POP PUSH1 0x20 DUP4 LT PUSH2 0x133 DUP4 LT AND PUSH1 0x4E DUP5 LT PUSH1 0xB DUP5 LT AND OR ISZERO PUSH3 0x420 JUMPI POP DUP2 DUP2 EXP PUSH3 0x447 JUMP JUMPDEST PUSH3 0x42C DUP4 DUP4 PUSH3 0x34E JUMP JUMPDEST DUP1 PUSH1 0x0 NOT DIV DUP3 GT ISZERO PUSH3 0x443 JUMPI PUSH3 0x443 PUSH3 0x338 JUMP JUMPDEST MUL SWAP1 POP JUMPDEST SWAP3 SWAP2 POP POP JUMP JUMPDEST PUSH1 0x0 PUSH3 0x45B DUP4 DUP4 PUSH3 0x397 JUMP JUMPDEST SWAP4 SWAP3 POP POP POP JUMP JUMPDEST DUP1 DUP3 MUL DUP2 ISZERO DUP3 DUP3 DIV DUP5 EQ OR PUSH3 0x447 JUMPI PUSH3 0x447 PUSH3 0x338 JUMP JUMPDEST PUSH2 0x2244 DUP1 PUSH3 0x48C PUSH1 0x0 CODECOPY PUSH1 0x0 RETURN INVALID PUSH1 0x80 PUSH1 0x40 MSTORE CALLVALUE DUP1 ISZERO PUSH2 0x10 JUMPI PUSH1 0x0 DUP1 REVERT JUMPDEST POP PUSH1 0x4 CALLDATASIZE LT PUSH2 0x23D JUMPI PUSH1 0x0 CALLDATALOAD PUSH1 0xE0 SHR DUP1 PUSH4 0x8772AE3C GT PUSH2 0x13B JUMPI DUP1 PUSH4 0xA9059CBB GT PUSH2 0xB8 JUMPI DUP1 PUSH4 0xC4A7761E GT PUSH2 0x7C JUMPI DUP1 PUSH4 0xC4A7761E EQ PUSH2 0x4FA JUMPI DUP1 PUSH4 0xD10057AD EQ PUSH2 0x502 JUMPI DUP1 PUSH4 0xDD62ED3E EQ PUSH2 0x50B JUMPI DUP1 PUSH4 0xEA2EA085 EQ PUSH2 0x544 JUMPI DUP1 PUSH4 0xF2FDE38B EQ PUSH2 0x56C JUMPI PUSH1 0x0 DUP1 REVERT JUMPDEST DUP1 PUSH4 0xA9059CBB EQ PUSH2 0x4AD JUMPI DUP1 PUSH4 0xB416052D EQ PUSH2 0x4C0 JUMPI DUP1 PUSH4 0xB5EF6D86 EQ PUSH2 0x4C9 JUMPI DUP1 PUSH4 0xC32A6F6D EQ PUSH2 0x4DE JUMPI DUP1 PUSH4 0xC38A8AFD EQ PUSH2 0x4F1 JUMPI PUSH1 0x0 DUP1 REVERT JUMPDEST DUP1 PUSH4 0x997E84D2 GT PUSH2 0xFF JUMPI DUP1 PUSH4 0x997E84D2 EQ PUSH2 0x42E JUMPI DUP1 PUSH4 0xA167A09D EQ PUSH2 0x441 JUMPI DUP1 PUSH4 0xA3CB679D EQ PUSH2 0x489 JUMPI DUP1 PUSH4 0xA457C2D7 EQ PUSH2 0x491 JUMPI DUP1 PUSH4 0xA73C7140 EQ PUSH2 0x4A4 JUMPI PUSH1 0x0 DUP1 REVERT JUMPDEST DUP1 PUSH4 0x8772AE3C EQ PUSH2 0x3E7 JUMPI DUP1 PUSH4 0x8C21460B EQ PUSH2 0x3FA JUMPI DUP1 PUSH4 0x8DA5CB5B EQ PUSH2 0x403 JUMPI DUP1 PUSH4 0x91578F11 EQ PUSH2 0x41E JUMPI DUP1 PUSH4 0x95D89B41 EQ PUSH2 0x426 JUMPI PUSH1 0x0 DUP1 REVERT JUMPDEST DUP1 PUSH4 0x24AC60A7 GT PUSH2 0x1C9 JUMPI DUP1 PUSH4 0x6F9FB98A GT PUSH2 0x18D JUMPI DUP1 PUSH4 0x6F9FB98A EQ PUSH2 0x379 JUMPI DUP1 PUSH4 0x70A08231 EQ PUSH2 0x38E JUMPI DUP1 PUSH4 0x715018A6 EQ PUSH2 0x3B7 JUMPI DUP1 PUSH4 0x7932F9EC EQ PUSH2 0x3BF JUMPI DUP1 PUSH4 0x7A20CF86 EQ PUSH2 0x3D4 JUMPI PUSH1 0x0 DUP1 REVERT JUMPDEST DUP1 PUSH4 0x24AC60A7 EQ PUSH2 0x323 JUMPI DUP1 PUSH4 0x313CE567 EQ PUSH2 0x32C JUMPI DUP1 PUSH4 0x39509351 EQ PUSH2 0x34B JUMPI DUP1 PUSH4 0x5F2B877D EQ PUSH2 0x35E JUMPI DUP1 PUSH4 0x64589654 EQ PUSH2 0x371 JUMPI PUSH1 0x0 DUP1 REVERT JUMPDEST DUP1 PUSH4 0x186EEE8B GT PUSH2 0x210 JUMPI DUP1 PUSH4 0x186EEE8B EQ PUSH2 0x29F JUMPI DUP1 PUSH4 0x20AE2059 EQ PUSH2 0x2B4 JUMPI DUP1 PUSH4 0x227CADE5 EQ PUSH2 0x2C7 JUMPI DUP1 PUSH4 0x22AF00FA EQ PUSH2 0x2D0 JUMPI DUP1 PUSH4 0x23B872DD EQ PUSH2 0x310 JUMPI PUSH1 0x0 DUP1 REVERT JUMPDEST DUP1 PUSH4 0x6FDDE03 EQ PUSH2 0x242 JUMPI DUP1 PUSH4 0x95EA7B3 EQ PUSH2 0x260 JUMPI DUP1 PUSH4 0xEECAE21 EQ PUSH2 0x283 JUMPI DUP1 PUSH4 0x18160DDD EQ PUSH2 0x28D JUMPI JUMPDEST PUSH1 0x0 DUP1 REVERT JUMPDEST PUSH2 0x24A PUSH2 0x57F JUMP JUMPDEST PUSH1 0x40 MLOAD PUSH2 0x257 SWAP2 SWAP1 PUSH2 0x1AB0 JUMP JUMPDEST PUSH1 0x40 MLOAD DUP1 SWAP2 SUB SWAP1 RETURN JUMPDEST PUSH2 0x273 PUSH2 0x26E CALLDATASIZE PUSH1 0x4 PUSH2 0x1B1B JUMP JUMPDEST PUSH2 0x60D JUMP JUMPDEST PUSH1 0x40 MLOAD SWAP1 ISZERO ISZERO DUP2 MSTORE PUSH1 0x20 ADD PUSH2 0x257 JUMP JUMPDEST PUSH2 0x28B PUSH2 0x624 JUMP JUMPDEST STOP JUMPDEST PUSH1 0x4 SLOAD JUMPDEST PUSH1 0x40 MLOAD SWAP1 DUP2 MSTORE PUSH1 0x20 ADD PUSH2 0x257 JUMP JUMPDEST PUSH2 0x2A7 PUSH2 0xD18 JUMP JUMPDEST PUSH1 0x40 MLOAD PUSH2 0x257 SWAP2 SWAP1 PUSH2 0x1B45 JUMP JUMPDEST PUSH2 0x28B PUSH2 0x2C2 CALLDATASIZE PUSH1 0x4 PUSH2 0x1BB5 JUMP JUMPDEST PUSH2 0xE79 JUMP JUMPDEST PUSH2 0x291 PUSH1 0x8 SLOAD DUP2 JUMP JUMPDEST PUSH2 0x2E3 PUSH2 0x2DE CALLDATASIZE PUSH1 0x4 PUSH2 0x1BB5 JUMP JUMPDEST PUSH2 0xE86 JUMP JUMPDEST PUSH1 0x40 DUP1 MLOAD PUSH1 0x1 PUSH1 0x1 PUSH1 0xA0 SHL SUB SWAP1 SWAP6 AND DUP6 MSTORE PUSH1 0x20 DUP6 ADD SWAP4 SWAP1 SWAP4 MSTORE SWAP2 DUP4 ADD MSTORE PUSH1 0xFF AND PUSH1 0x60 DUP3 ADD MSTORE PUSH1 0x80 ADD PUSH2 0x257 JUMP JUMPDEST PUSH2 0x273 PUSH2 0x31E CALLDATASIZE PUSH1 0x4 PUSH2 0x1BCE JUMP JUMPDEST PUSH2 0xECD JUMP JUMPDEST PUSH2 0x291 PUSH1 0x9 SLOAD DUP2 JUMP JUMPDEST PUSH1 0x3 SLOAD PUSH2 0x339 SWAP1 PUSH1 0xFF AND DUP2 JUMP JUMPDEST PUSH1 0x40 MLOAD PUSH1 0xFF SWAP1 SWAP2 AND DUP2 MSTORE PUSH1 0x20 ADD PUSH2 0x257 JUMP JUMPDEST PUSH2 0x273 PUSH2 0x359 CALLDATASIZE PUSH1 0x4 PUSH2 0x1B1B JUMP JUMPDEST PUSH2 0xF1F JUMP JUMPDEST PUSH2 0x28B PUSH2 0x36C CALLDATASIZE PUSH1 0x4 PUSH2 0x1D53 JUMP JUMPDEST PUSH2 0xF56 JUMP JUMPDEST PUSH1 0xA SLOAD PUSH2 0x291 JUMP JUMPDEST ADDRESS PUSH1 0x0 SWAP1 DUP2 MSTORE PUSH1 0x5 PUSH1 0x20 MSTORE PUSH1 0x40 SWAP1 KECCAK256 SLOAD PUSH2 0x291 JUMP JUMPDEST PUSH2 0x291 PUSH2 0x39C CALLDATASIZE PUSH1 0x4 PUSH2 0x1E41 JUMP JUMPDEST PUSH1 0x1 PUSH1 0x1 PUSH1 0xA0 SHL SUB AND PUSH1 0x0 SWAP1 DUP2 MSTORE PUSH1 0x5 PUSH1 0x20 MSTORE PUSH1 0x40 SWAP1 KECCAK256 SLOAD SWAP1 JUMP JUMPDEST PUSH2 0x28B PUSH2 0x13B2 JUMP JUMPDEST PUSH2 0x3C7 PUSH2 0x13C6 JUMP JUMPDEST PUSH1 0x40 MLOAD PUSH2 0x257 SWAP2 SWAP1 PUSH2 0x1E63 JUMP JUMPDEST PUSH2 0x28B PUSH2 0x3E2 CALLDATASIZE PUSH1 0x4 PUSH2 0x1BB5 JUMP JUMPDEST PUSH2 0x145D JUMP JUMPDEST PUSH2 0x28B PUSH2 0x3F5 CALLDATASIZE PUSH1 0x4 PUSH2 0x1BB5 JUMP JUMPDEST PUSH2 0x14B3 JUMP JUMPDEST PUSH2 0x291 PUSH1 0xA SLOAD DUP2 JUMP JUMPDEST PUSH1 0x0 SLOAD PUSH1 0x40 MLOAD PUSH1 0x1 PUSH1 0x1 PUSH1 0xA0 SHL SUB SWAP1 SWAP2 AND DUP2 MSTORE PUSH1 0x20 ADD PUSH2 0x257 JUMP JUMPDEST PUSH1 0xB SLOAD PUSH2 0x291 JUMP JUMPDEST PUSH2 0x24A PUSH2 0x14C0 JUMP JUMPDEST PUSH2 0x28B PUSH2 0x43C CALLDATASIZE PUSH1 0x4 PUSH2 0x1BB5 JUMP JUMPDEST PUSH2 0x14CD JUMP JUMPDEST PUSH2 0x454 PUSH2 0x44F CALLDATASIZE PUSH1 0x4 PUSH2 0x1BB5 JUMP JUMPDEST PUSH2 0x14DA JUMP JUMPDEST PUSH1 0x40 DUP1 MLOAD PUSH1 0x1 PUSH1 0x1 PUSH1 0xA0 SHL SUB SWAP1 SWAP7 AND DUP7 MSTORE PUSH1 0x20 DUP7 ADD SWAP5 SWAP1 SWAP5 MSTORE SWAP3 DUP5 ADD SWAP2 SWAP1 SWAP2 MSTORE PUSH1 0x60 DUP4 ADD MSTORE PUSH1 0xFF AND PUSH1 0x80 DUP3 ADD MSTORE PUSH1 0xA0 ADD PUSH2 0x257 JUMP JUMPDEST PUSH1 0xD SLOAD PUSH2 0x291 JUMP JUMPDEST PUSH2 0x273 PUSH2 0x49F CALLDATASIZE PUSH1 0x4 PUSH2 0x1B1B JUMP JUMPDEST PUSH2 0x1528 JUMP JUMPDEST PUSH2 0x291 PUSH1 0xE SLOAD DUP2 JUMP JUMPDEST PUSH2 0x273 PUSH2 0x4BB CALLDATASIZE PUSH1 0x4 PUSH2 0x1B1B JUMP JUMPDEST PUSH2 0x155F JUMP JUMPDEST PUSH2 0x291 PUSH1 0xB SLOAD DUP2 JUMP JUMPDEST PUSH2 0x4D1 PUSH2 0x156C JUMP JUMPDEST PUSH1 0x40 MLOAD PUSH2 0x257 SWAP2 SWAP1 PUSH2 0x1ED0 JUMP JUMPDEST PUSH2 0x291 PUSH2 0x4EC CALLDATASIZE PUSH1 0x4 PUSH2 0x1F12 JUMP JUMPDEST PUSH2 0x15D6 JUMP JUMPDEST PUSH2 0x291 PUSH1 0x7 SLOAD DUP2 JUMP JUMPDEST PUSH1 0xE SLOAD PUSH2 0x291 JUMP JUMPDEST PUSH2 0x291 PUSH1 0xD SLOAD DUP2 JUMP JUMPDEST PUSH2 0x291 PUSH2 0x519 CALLDATASIZE PUSH1 0x4 PUSH2 0x1FA7 JUMP JUMPDEST PUSH1 0x1 PUSH1 0x1 PUSH1 0xA0 SHL SUB SWAP2 DUP3 AND PUSH1 0x0 SWAP1 DUP2 MSTORE PUSH1 0x6 PUSH1 0x20 SWAP1 DUP2 MSTORE PUSH1 0x40 DUP1 DUP4 KECCAK256 SWAP4 SWAP1 SWAP5 AND DUP3 MSTORE SWAP2 SWAP1 SWAP2 MSTORE KECCAK256 SLOAD SWAP1 JUMP JUMPDEST PUSH2 0x557 PUSH2 0x552 CALLDATASIZE PUSH1 0x4 PUSH2 0x1BB5 JUMP JUMPDEST PUSH2 0x1633 JUMP JUMPDEST PUSH1 0x40 DUP1 MLOAD SWAP3 DUP4 MSTORE PUSH1 0x20 DUP4 ADD SWAP2 SWAP1 SWAP2 MSTORE ADD PUSH2 0x257 JUMP JUMPDEST PUSH2 0x28B PUSH2 0x57A CALLDATASIZE PUSH1 0x4 PUSH2 0x1E41 JUMP JUMPDEST PUSH2 0x1661 JUMP JUMPDEST PUSH1 0x1 DUP1 SLOAD PUSH2 0x58C SWAP1 PUSH2 0x1FDA JUMP JUMPDEST DUP1 PUSH1 0x1F ADD PUSH1 0x20 DUP1 SWAP2 DIV MUL PUSH1 0x20 ADD PUSH1 0x40 MLOAD SWAP1 DUP2 ADD PUSH1 0x40 MSTORE DUP1 SWAP3 SWAP2 SWAP1 DUP2 DUP2 MSTORE PUSH1 0x20 ADD DUP3 DUP1 SLOAD PUSH2 0x5B8 SWAP1 PUSH2 0x1FDA JUMP JUMPDEST DUP1 ISZERO PUSH2 0x605 JUMPI DUP1 PUSH1 0x1F LT PUSH2 0x5DA JUMPI PUSH2 0x100 DUP1 DUP4 SLOAD DIV MUL DUP4 MSTORE SWAP2 PUSH1 0x20 ADD SWAP2 PUSH2 0x605 JUMP JUMPDEST DUP3 ADD SWAP2 SWAP1 PUSH1 0x0 MSTORE PUSH1 0x20 PUSH1 0x0 KECCAK256 SWAP1 JUMPDEST DUP2 SLOAD DUP2 MSTORE SWAP1 PUSH1 0x1 ADD SWAP1 PUSH1 0x20 ADD DUP1 DUP4 GT PUSH2 0x5E8 JUMPI DUP3 SWAP1 SUB PUSH1 0x1F AND DUP3 ADD SWAP2 JUMPDEST POP POP POP POP POP DUP2 JUMP JUMPDEST PUSH1 0x0 PUSH2 0x61A CALLER DUP5 DUP5 PUSH2 0x169C JUMP JUMPDEST POP PUSH1 0x1 JUMPDEST SWAP3 SWAP2 POP POP JUMP JUMPDEST PUSH1 0x9 SLOAD PUSH1 0xA SLOAD PUSH2 0x634 SWAP2 SWAP1 PUSH2 0x2024 JUMP JUMPDEST TIMESTAMP LT ISZERO PUSH2 0x688 JUMPI PUSH1 0x40 MLOAD PUSH3 0x461BCD PUSH1 0xE5 SHL DUP2 MSTORE PUSH1 0x20 PUSH1 0x4 DUP3 ADD MSTORE PUSH1 0x1C PUSH1 0x24 DUP3 ADD MSTORE PUSH32 0x447261772074696D6520686173206E6F74207061737365642079657400000000 PUSH1 0x44 DUP3 ADD MSTORE PUSH1 0x64 ADD JUMPDEST PUSH1 0x40 MLOAD DUP1 SWAP2 SUB SWAP1 REVERT JUMPDEST PUSH1 0x0 PUSH2 0x2710 TIMESTAMP PREVRANDAO PUSH1 0x40 MLOAD PUSH1 0x20 ADD PUSH2 0x6A9 SWAP3 SWAP2 SWAP1 SWAP2 DUP3 MSTORE PUSH1 0x20 DUP3 ADD MSTORE PUSH1 0x40 ADD SWAP1 JUMP JUMPDEST PUSH1 0x40 MLOAD PUSH1 0x20 DUP2 DUP4 SUB SUB DUP2 MSTORE SWAP1 PUSH1 0x40 MSTORE DUP1 MLOAD SWAP1 PUSH1 0x20 ADD KECCAK256 PUSH1 0x0 SHR PUSH2 0x6CC SWAP2 SWAP1 PUSH2 0x204D JUMP JUMPDEST SWAP1 POP PUSH1 0x0 PUSH2 0x6DB DUP3 PUSH1 0x4 PUSH2 0x17AA JUMP JUMPDEST SWAP1 POP PUSH2 0x6E6 DUP2 PUSH2 0x15D6 JUMP JUMPDEST PUSH1 0xB DUP2 SWAP1 SSTORE PUSH1 0x40 MLOAD SWAP1 DUP2 MSTORE PUSH32 0x3FD10E0B772395F38AB47FC59126002084CE1E04D2B65432F5C90BBD9E233999 SWAP1 PUSH1 0x20 ADD PUSH1 0x40 MLOAD DUP1 SWAP2 SUB SWAP1 LOG1 PUSH1 0x40 DUP1 MLOAD DUP1 DUP3 ADD SWAP1 SWAP2 MSTORE PUSH1 0xB SLOAD DUP2 MSTORE TIMESTAMP PUSH1 0x20 DUP3 ADD SWAP1 DUP2 MSTORE PUSH1 0xC DUP1 SLOAD PUSH1 0x1 DUP2 ADD DUP3 SSTORE PUSH1 0x0 SWAP2 DUP3 MSTORE SWAP3 MLOAD PUSH32 0xDF6966C971051C3D54EC59162606531493A51404A002842F56009D7E5CF4A8C7 PUSH1 0x2 SWAP1 SWAP5 MUL SWAP4 DUP5 ADD SSTORE SWAP1 MLOAD PUSH32 0xDF6966C971051C3D54EC59162606531493A51404A002842F56009D7E5CF4A8C8 SWAP1 SWAP3 ADD SWAP2 SWAP1 SWAP2 SSTORE DUP1 JUMPDEST PUSH1 0x10 SLOAD DUP2 LT ISZERO PUSH2 0xC51 JUMPI PUSH1 0x0 PUSH1 0x10 DUP3 DUP2 SLOAD DUP2 LT PUSH2 0x7BB JUMPI PUSH2 0x7BB PUSH2 0x2061 JUMP JUMPDEST PUSH1 0x0 SWAP2 DUP3 MSTORE PUSH1 0x20 SWAP2 DUP3 SWAP1 KECCAK256 PUSH1 0x40 DUP1 MLOAD PUSH1 0x80 DUP2 ADD DUP3 MSTORE PUSH1 0x4 SWAP4 DUP5 MUL SWAP1 SWAP3 ADD DUP1 SLOAD PUSH1 0x1 PUSH1 0x1 PUSH1 0xA0 SHL SUB AND DUP4 MSTORE PUSH1 0x1 DUP2 ADD SLOAD SWAP5 DUP4 ADD SWAP5 SWAP1 SWAP5 MSTORE PUSH1 0x2 DUP5 ADD SLOAD SWAP1 DUP3 ADD MSTORE PUSH1 0x3 SWAP1 SWAP3 ADD SLOAD PUSH1 0xFF AND PUSH1 0x60 DUP4 ADD DUP2 SWAP1 MSTORE SWAP2 SWAP3 POP EQ DUP1 ISZERO PUSH2 0x81F JUMPI POP PUSH1 0xB SLOAD DUP2 PUSH1 0x40 ADD MLOAD EQ JUMPDEST ISZERO PUSH2 0x9F6 JUMPI PUSH1 0x20 DUP2 ADD MLOAD PUSH2 0x835 SWAP1 PUSH2 0xFA0 PUSH2 0x2077 JUMP JUMPDEST ADDRESS PUSH1 0x0 SWAP1 DUP2 MSTORE PUSH1 0x5 PUSH1 0x20 MSTORE PUSH1 0x40 SWAP1 KECCAK256 SLOAD SWAP1 SWAP4 POP DUP4 GT ISZERO PUSH2 0x867 JUMPI PUSH1 0x40 MLOAD PUSH3 0x461BCD PUSH1 0xE5 SHL DUP2 MSTORE PUSH1 0x4 ADD PUSH2 0x67F SWAP1 PUSH2 0x208E JUMP JUMPDEST DUP1 MLOAD PUSH1 0x1 PUSH1 0x1 PUSH1 0xA0 SHL SUB AND PUSH1 0x0 SWAP1 DUP2 MSTORE PUSH1 0x5 PUSH1 0x20 MSTORE PUSH1 0x40 DUP2 KECCAK256 DUP1 SLOAD DUP6 SWAP3 SWAP1 PUSH2 0x890 SWAP1 DUP5 SWAP1 PUSH2 0x2024 JUMP JUMPDEST SWAP1 SWAP2 SSTORE POP POP ADDRESS PUSH1 0x0 SWAP1 DUP2 MSTORE PUSH1 0x5 PUSH1 0x20 MSTORE PUSH1 0x40 DUP2 KECCAK256 DUP1 SLOAD DUP6 SWAP3 SWAP1 PUSH2 0x8B4 SWAP1 DUP5 SWAP1 PUSH2 0x20C5 JUMP JUMPDEST SWAP1 SWAP2 SSTORE POP POP PUSH1 0x40 DUP1 MLOAD PUSH1 0xA0 DUP2 ADD DUP3 MSTORE DUP3 MLOAD PUSH1 0x1 PUSH1 0x1 PUSH1 0xA0 SHL SUB SWAP1 DUP2 AND DUP3 MSTORE PUSH1 0xB SLOAD PUSH1 0x20 DUP1 DUP5 ADD SWAP2 DUP3 MSTORE DUP6 ADD MLOAD SWAP4 DUP4 ADD SWAP4 DUP5 MSTORE PUSH1 0x60 DUP1 DUP5 ADD DUP9 DUP2 MSTORE SWAP1 DUP7 ADD MLOAD PUSH1 0xFF SWAP1 DUP2 AND PUSH1 0x80 DUP7 ADD SWAP1 DUP2 MSTORE PUSH1 0xF DUP1 SLOAD PUSH1 0x1 DUP2 ADD DUP3 SSTORE PUSH1 0x0 SWAP2 SWAP1 SWAP2 MSTORE SWAP6 MLOAD PUSH32 0x8D1108E10BCB7C27DDDFC02ED9D693A074039D026CF4EA4240B40F7D581AC802 PUSH1 0x5 SWAP1 SWAP8 MUL SWAP7 DUP8 ADD DUP1 SLOAD PUSH1 0x1 PUSH1 0x1 PUSH1 0xA0 SHL SUB NOT AND SWAP2 SWAP1 SWAP7 AND OR SWAP1 SWAP5 SSTORE SWAP2 MLOAD PUSH32 0x8D1108E10BCB7C27DDDFC02ED9D693A074039D026CF4EA4240B40F7D581AC803 DUP6 ADD SSTORE SWAP4 MLOAD PUSH32 0x8D1108E10BCB7C27DDDFC02ED9D693A074039D026CF4EA4240B40F7D581AC804 DUP5 ADD SSTORE SWAP3 MLOAD PUSH32 0x8D1108E10BCB7C27DDDFC02ED9D693A074039D026CF4EA4240B40F7D581AC805 DUP4 ADD SSTORE MLOAD PUSH32 0x8D1108E10BCB7C27DDDFC02ED9D693A074039D026CF4EA4240B40F7D581AC806 SWAP1 SWAP2 ADD DUP1 SLOAD PUSH1 0xFF NOT AND SWAP2 SWAP1 SWAP3 AND OR SWAP1 SSTORE PUSH2 0xC48 JUMP JUMPDEST DUP1 PUSH1 0x60 ADD MLOAD PUSH1 0xFF AND PUSH1 0x3 EQ DUP1 ISZERO PUSH2 0xA2C JUMPI POP PUSH2 0x3E8 PUSH1 0xB SLOAD PUSH2 0xA18 SWAP2 SWAP1 PUSH2 0x204D JUMP JUMPDEST PUSH2 0x3E8 DUP3 PUSH1 0x40 ADD MLOAD PUSH2 0xA2A SWAP2 SWAP1 PUSH2 0x204D JUMP JUMPDEST EQ JUMPDEST ISZERO PUSH2 0xA42 JUMPI PUSH1 0x20 DUP2 ADD MLOAD PUSH2 0x835 SWAP1 PUSH2 0x15E PUSH2 0x2077 JUMP JUMPDEST DUP1 PUSH1 0x60 ADD MLOAD PUSH1 0xFF AND PUSH1 0x2 EQ DUP1 ISZERO PUSH2 0xA76 JUMPI POP PUSH1 0x64 PUSH1 0xB SLOAD PUSH2 0xA63 SWAP2 SWAP1 PUSH2 0x204D JUMP JUMPDEST PUSH1 0x64 DUP3 PUSH1 0x40 ADD MLOAD PUSH2 0xA74 SWAP2 SWAP1 PUSH2 0x204D JUMP JUMPDEST EQ JUMPDEST ISZERO PUSH2 0xC48 JUMPI PUSH1 0x20 DUP2 ADD MLOAD PUSH2 0xA8B SWAP1 PUSH1 0x46 PUSH2 0x2077 JUMP JUMPDEST ADDRESS PUSH1 0x0 SWAP1 DUP2 MSTORE PUSH1 0x5 PUSH1 0x20 MSTORE PUSH1 0x40 SWAP1 KECCAK256 SLOAD SWAP1 SWAP4 POP DUP4 GT ISZERO PUSH2 0xABD JUMPI PUSH1 0x40 MLOAD PUSH3 0x461BCD PUSH1 0xE5 SHL DUP2 MSTORE PUSH1 0x4 ADD PUSH2 0x67F SWAP1 PUSH2 0x208E JUMP JUMPDEST DUP1 MLOAD PUSH1 0x1 PUSH1 0x1 PUSH1 0xA0 SHL SUB AND PUSH1 0x0 SWAP1 DUP2 MSTORE PUSH1 0x5 PUSH1 0x20 MSTORE PUSH1 0x40 DUP2 KECCAK256 DUP1 SLOAD DUP6 SWAP3 SWAP1 PUSH2 0xAE6 SWAP1 DUP5 SWAP1 PUSH2 0x2024 JUMP JUMPDEST SWAP1 SWAP2 SSTORE POP POP ADDRESS PUSH1 0x0 SWAP1 DUP2 MSTORE PUSH1 0x5 PUSH1 0x20 MSTORE PUSH1 0x40 DUP2 KECCAK256 DUP1 SLOAD DUP6 SWAP3 SWAP1 PUSH2 0xB0A SWAP1 DUP5 SWAP1 PUSH2 0x20C5 JUMP JUMPDEST SWAP1 SWAP2 SSTORE POP POP PUSH1 0x40 DUP1 MLOAD PUSH1 0xA0 DUP2 ADD DUP3 MSTORE DUP3 MLOAD PUSH1 0x1 PUSH1 0x1 PUSH1 0xA0 SHL SUB SWAP1 DUP2 AND DUP3 MSTORE PUSH1 0xB SLOAD PUSH1 0x20 DUP1 DUP5 ADD SWAP2 DUP3 MSTORE DUP6 ADD MLOAD SWAP4 DUP4 ADD SWAP4 DUP5 MSTORE PUSH1 0x60 DUP1 DUP5 ADD DUP9 DUP2 MSTORE SWAP1 DUP7 ADD MLOAD PUSH1 0xFF SWAP1 DUP2 AND PUSH1 0x80 DUP7 ADD SWAP1 DUP2 MSTORE PUSH1 0xF DUP1 SLOAD PUSH1 0x1 DUP2 ADD DUP3 SSTORE PUSH1 0x0 SWAP2 SWAP1 SWAP2 MSTORE SWAP6 MLOAD PUSH32 0x8D1108E10BCB7C27DDDFC02ED9D693A074039D026CF4EA4240B40F7D581AC802 PUSH1 0x5 SWAP1 SWAP8 MUL SWAP7 DUP8 ADD DUP1 SLOAD PUSH1 0x1 PUSH1 0x1 PUSH1 0xA0 SHL SUB NOT AND SWAP2 SWAP1 SWAP7 AND OR SWAP1 SWAP5 SSTORE SWAP2 MLOAD PUSH32 0x8D1108E10BCB7C27DDDFC02ED9D693A074039D026CF4EA4240B40F7D581AC803 DUP6 ADD SSTORE SWAP4 MLOAD PUSH32 0x8D1108E10BCB7C27DDDFC02ED9D693A074039D026CF4EA4240B40F7D581AC804 DUP5 ADD SSTORE SWAP3 MLOAD PUSH32 0x8D1108E10BCB7C27DDDFC02ED9D693A074039D026CF4EA4240B40F7D581AC805 DUP4 ADD SSTORE MLOAD PUSH32 0x8D1108E10BCB7C27DDDFC02ED9D693A074039D026CF4EA4240B40F7D581AC806 SWAP1 SWAP2 ADD DUP1 SLOAD PUSH1 0xFF NOT AND SWAP2 SWAP1 SWAP3 AND OR SWAP1 SSTORE JUMPDEST POP PUSH1 0x1 ADD PUSH2 0x79C JUMP JUMPDEST POP PUSH1 0x0 JUMPDEST PUSH1 0x10 SLOAD DUP2 LT ISZERO PUSH2 0xCB0 JUMPI PUSH1 0x10 DUP2 DUP2 SLOAD DUP2 LT PUSH2 0xC72 JUMPI PUSH2 0xC72 PUSH2 0x2061 JUMP JUMPDEST PUSH1 0x0 SWAP2 DUP3 MSTORE PUSH1 0x20 DUP3 KECCAK256 PUSH1 0x4 SWAP1 SWAP2 MUL ADD DUP1 SLOAD PUSH1 0x1 PUSH1 0x1 PUSH1 0xA0 SHL SUB NOT AND DUP2 SSTORE PUSH1 0x1 DUP1 DUP3 ADD DUP4 SWAP1 SSTORE PUSH1 0x2 DUP3 ADD SWAP3 SWAP1 SWAP3 SSTORE PUSH1 0x3 ADD DUP1 SLOAD PUSH1 0xFF NOT AND SWAP1 SSTORE ADD PUSH2 0xC55 JUMP JUMPDEST POP JUMPDEST PUSH1 0x10 SLOAD ISZERO PUSH2 0xD0F JUMPI PUSH1 0x10 DUP1 SLOAD DUP1 PUSH2 0xCCB JUMPI PUSH2 0xCCB PUSH2 0x20D8 JUMP JUMPDEST PUSH1 0x0 DUP3 DUP2 MSTORE PUSH1 0x20 DUP2 KECCAK256 PUSH1 0x4 PUSH1 0x0 NOT SWAP1 SWAP4 ADD SWAP3 DUP4 MUL ADD DUP1 SLOAD PUSH1 0x1 PUSH1 0x1 PUSH1 0xA0 SHL SUB NOT AND DUP2 SSTORE PUSH1 0x1 DUP2 ADD DUP3 SWAP1 SSTORE PUSH1 0x2 DUP2 ADD SWAP2 SWAP1 SWAP2 SSTORE PUSH1 0x3 ADD DUP1 SLOAD PUSH1 0xFF NOT AND SWAP1 SSTORE SWAP1 SSTORE PUSH2 0xCB2 JUMP JUMPDEST POP POP TIMESTAMP PUSH1 0xA SSTORE POP JUMP JUMPDEST PUSH1 0x10 SLOAD PUSH1 0x60 SWAP1 PUSH1 0x0 SWAP1 PUSH8 0xFFFFFFFFFFFFFFFF DUP2 GT ISZERO PUSH2 0xD39 JUMPI PUSH2 0xD39 PUSH2 0x1C0A JUMP JUMPDEST PUSH1 0x40 MLOAD SWAP1 DUP1 DUP3 MSTORE DUP1 PUSH1 0x20 MUL PUSH1 0x20 ADD DUP3 ADD PUSH1 0x40 MSTORE DUP1 ISZERO PUSH2 0xD8B JUMPI DUP2 PUSH1 0x20 ADD JUMPDEST PUSH1 0x40 DUP1 MLOAD PUSH1 0x80 DUP2 ADD DUP3 MSTORE PUSH1 0x0 DUP1 DUP3 MSTORE PUSH1 0x20 DUP1 DUP4 ADD DUP3 SWAP1 MSTORE SWAP3 DUP3 ADD DUP2 SWAP1 MSTORE PUSH1 0x60 DUP3 ADD MSTORE DUP3 MSTORE PUSH1 0x0 NOT SWAP1 SWAP3 ADD SWAP2 ADD DUP2 PUSH2 0xD57 JUMPI SWAP1 POP JUMPDEST POP SWAP1 POP PUSH1 0x0 JUMPDEST PUSH1 0x10 SLOAD DUP2 LT ISZERO PUSH2 0xE73 JUMPI PUSH1 0x0 PUSH1 0x10 DUP3 DUP2 SLOAD DUP2 LT PUSH2 0xDB0 JUMPI PUSH2 0xDB0 PUSH2 0x2061 JUMP JUMPDEST PUSH1 0x0 SWAP2 DUP3 MSTORE PUSH1 0x20 DUP1 DUP4 KECCAK256 PUSH1 0x40 DUP1 MLOAD PUSH1 0x80 DUP2 ADD DUP3 MSTORE PUSH1 0x4 SWAP5 DUP6 MUL SWAP1 SWAP3 ADD DUP1 SLOAD PUSH1 0x1 PUSH1 0x1 PUSH1 0xA0 SHL SUB AND DUP4 MSTORE PUSH1 0x1 DUP2 ADD SLOAD SWAP4 DUP4 ADD SWAP4 SWAP1 SWAP4 MSTORE PUSH1 0x2 DUP4 ADD SLOAD SWAP1 DUP3 ADD DUP2 SWAP1 MSTORE PUSH1 0x3 SWAP1 SWAP3 ADD SLOAD PUSH1 0xFF AND PUSH1 0x60 DUP3 ADD MSTORE SWAP4 POP PUSH2 0xE09 SWAP2 PUSH2 0x17AA JUMP JUMPDEST SWAP1 POP PUSH1 0x40 MLOAD DUP1 PUSH1 0x80 ADD PUSH1 0x40 MSTORE DUP1 DUP4 PUSH1 0x0 ADD MLOAD PUSH1 0x1 PUSH1 0x1 PUSH1 0xA0 SHL SUB AND DUP2 MSTORE PUSH1 0x20 ADD DUP4 PUSH1 0x20 ADD MLOAD DUP2 MSTORE PUSH1 0x20 ADD PUSH2 0xE3C DUP4 PUSH2 0x15D6 JUMP JUMPDEST DUP2 MSTORE PUSH1 0x20 ADD DUP4 PUSH1 0x60 ADD MLOAD PUSH1 0xFF AND DUP2 MSTORE POP DUP5 DUP5 DUP2 MLOAD DUP2 LT PUSH2 0xE5E JUMPI PUSH2 0xE5E PUSH2 0x2061 JUMP JUMPDEST PUSH1 0x20 SWAP1 DUP2 MUL SWAP2 SWAP1 SWAP2 ADD ADD MSTORE POP POP PUSH1 0x1 ADD PUSH2 0xD91 JUMP JUMPDEST POP SWAP2 SWAP1 POP JUMP JUMPDEST PUSH2 0xE81 PUSH2 0x1887 JUMP JUMPDEST PUSH1 0x8 SSTORE JUMP JUMPDEST PUSH1 0x10 DUP2 DUP2 SLOAD DUP2 LT PUSH2 0xE96 JUMPI PUSH1 0x0 DUP1 REVERT JUMPDEST PUSH1 0x0 SWAP2 DUP3 MSTORE PUSH1 0x20 SWAP1 SWAP2 KECCAK256 PUSH1 0x4 SWAP1 SWAP2 MUL ADD DUP1 SLOAD PUSH1 0x1 DUP3 ADD SLOAD PUSH1 0x2 DUP4 ADD SLOAD PUSH1 0x3 SWAP1 SWAP4 ADD SLOAD PUSH1 0x1 PUSH1 0x1 PUSH1 0xA0 SHL SUB SWAP1 SWAP3 AND SWAP4 POP SWAP2 SWAP1 PUSH1 0xFF AND DUP5 JUMP JUMPDEST PUSH1 0x0 PUSH2 0xEDA DUP5 DUP5 DUP5 PUSH2 0x18B4 JUMP JUMPDEST PUSH1 0x1 PUSH1 0x1 PUSH1 0xA0 SHL SUB DUP5 AND PUSH1 0x0 SWAP1 DUP2 MSTORE PUSH1 0x6 PUSH1 0x20 SWAP1 DUP2 MSTORE PUSH1 0x40 DUP1 DUP4 KECCAK256 CALLER DUP1 DUP6 MSTORE SWAP3 MSTORE SWAP1 SWAP2 KECCAK256 SLOAD PUSH2 0xF15 SWAP2 DUP7 SWAP2 PUSH2 0xF10 SWAP1 DUP7 SWAP1 PUSH2 0x20C5 JUMP JUMPDEST PUSH2 0x169C JUMP JUMPDEST POP PUSH1 0x1 SWAP4 SWAP3 POP POP POP JUMP JUMPDEST CALLER PUSH1 0x0 DUP2 DUP2 MSTORE PUSH1 0x6 PUSH1 0x20 SWAP1 DUP2 MSTORE PUSH1 0x40 DUP1 DUP4 KECCAK256 PUSH1 0x1 PUSH1 0x1 PUSH1 0xA0 SHL SUB DUP8 AND DUP5 MSTORE SWAP1 SWAP2 MSTORE DUP2 KECCAK256 SLOAD SWAP1 SWAP2 PUSH2 0x61A SWAP2 DUP6 SWAP1 PUSH2 0xF10 SWAP1 DUP7 SWAP1 PUSH2 0x2024 JUMP JUMPDEST PUSH1 0x9 SLOAD PUSH1 0xA SLOAD PUSH2 0xF66 SWAP2 SWAP1 PUSH2 0x2024 JUMP JUMPDEST TIMESTAMP LT PUSH2 0xFAB JUMPI PUSH1 0x40 MLOAD PUSH3 0x461BCD PUSH1 0xE5 SHL DUP2 MSTORE PUSH1 0x20 PUSH1 0x4 DUP3 ADD MSTORE PUSH1 0x14 PUSH1 0x24 DUP3 ADD MSTORE PUSH20 0x111C985DC81D1A5B59481A185CC81C185CDCD959 PUSH1 0x62 SHL PUSH1 0x44 DUP3 ADD MSTORE PUSH1 0x64 ADD PUSH2 0x67F JUMP JUMPDEST PUSH1 0x0 DUP4 MLOAD GT DUP1 ISZERO PUSH2 0xFBD JUMPI POP DUP2 MLOAD DUP4 MLOAD EQ JUMPDEST PUSH2 0x1002 JUMPI PUSH1 0x40 MLOAD PUSH3 0x461BCD PUSH1 0xE5 SHL DUP2 MSTORE PUSH1 0x20 PUSH1 0x4 DUP3 ADD MSTORE PUSH1 0x16 PUSH1 0x24 DUP3 ADD MSTORE PUSH22 0x496E76616C6964206261746368206265742064617461 PUSH1 0x50 SHL PUSH1 0x44 DUP3 ADD MSTORE PUSH1 0x64 ADD PUSH2 0x67F JUMP JUMPDEST PUSH1 0x0 DUP1 PUSH1 0x0 JUMPDEST DUP6 MLOAD DUP2 LT ISZERO PUSH2 0x131B JUMPI PUSH1 0x7 SLOAD DUP6 DUP3 DUP2 MLOAD DUP2 LT PUSH2 0x1026 JUMPI PUSH2 0x1026 PUSH2 0x2061 JUMP JUMPDEST PUSH1 0x20 MUL PUSH1 0x20 ADD ADD MLOAD LT ISZERO DUP1 ISZERO PUSH2 0x1057 JUMPI POP PUSH1 0x8 SLOAD DUP6 DUP3 DUP2 MLOAD DUP2 LT PUSH2 0x104C JUMPI PUSH2 0x104C PUSH2 0x2061 JUMP JUMPDEST PUSH1 0x20 MUL PUSH1 0x20 ADD ADD MLOAD GT ISZERO JUMPDEST PUSH2 0x1098 JUMPI PUSH1 0x40 MLOAD PUSH3 0x461BCD PUSH1 0xE5 SHL DUP2 MSTORE PUSH1 0x20 PUSH1 0x4 DUP3 ADD MSTORE PUSH1 0x12 PUSH1 0x24 DUP3 ADD MSTORE PUSH18 0x125B9D985B1A590818995D08185B5BDD5B9D PUSH1 0x72 SHL PUSH1 0x44 DUP3 ADD MSTORE PUSH1 0x64 ADD PUSH2 0x67F JUMP JUMPDEST DUP5 DUP2 DUP2 MLOAD DUP2 LT PUSH2 0x10AA JUMPI PUSH2 0x10AA PUSH2 0x2061 JUMP JUMPDEST PUSH1 0x20 MUL PUSH1 0x20 ADD ADD MLOAD PUSH1 0x5 PUSH1 0x0 CALLER PUSH1 0x1 PUSH1 0x1 PUSH1 0xA0 SHL SUB AND PUSH1 0x1 PUSH1 0x1 PUSH1 0xA0 SHL SUB AND DUP2 MSTORE PUSH1 0x20 ADD SWAP1 DUP2 MSTORE PUSH1 0x20 ADD PUSH1 0x0 KECCAK256 SLOAD LT ISZERO PUSH2 0x1126 JUMPI PUSH1 0x40 MLOAD PUSH3 0x461BCD PUSH1 0xE5 SHL DUP2 MSTORE PUSH1 0x20 PUSH1 0x4 DUP3 ADD MSTORE PUSH1 0x1A PUSH1 0x24 DUP3 ADD MSTORE PUSH32 0x496E73756666696369656E7420746F6B656E2062616C616E6365000000000000 PUSH1 0x44 DUP3 ADD MSTORE PUSH1 0x64 ADD PUSH2 0x67F JUMP JUMPDEST PUSH2 0x114A CALLER ADDRESS DUP8 DUP5 DUP2 MLOAD DUP2 LT PUSH2 0x113D JUMPI PUSH2 0x113D PUSH2 0x2061 JUMP JUMPDEST PUSH1 0x20 MUL PUSH1 0x20 ADD ADD MLOAD PUSH2 0x18B4 JUMP JUMPDEST PUSH1 0x10 PUSH1 0x40 MLOAD DUP1 PUSH1 0x80 ADD PUSH1 0x40 MSTORE DUP1 CALLER PUSH1 0x1 PUSH1 0x1 PUSH1 0xA0 SHL SUB AND DUP2 MSTORE PUSH1 0x20 ADD DUP8 DUP5 DUP2 MLOAD DUP2 LT PUSH2 0x1178 JUMPI PUSH2 0x1178 PUSH2 0x2061 JUMP JUMPDEST PUSH1 0x20 MUL PUSH1 0x20 ADD ADD MLOAD DUP2 MSTORE PUSH1 0x20 ADD DUP9 DUP5 DUP2 MLOAD DUP2 LT PUSH2 0x1197 JUMPI PUSH2 0x1197 PUSH2 0x2061 JUMP JUMPDEST PUSH1 0x20 MUL PUSH1 0x20 ADD ADD MLOAD PUSH2 0xFFFF AND DUP2 MSTORE PUSH1 0x20 ADD DUP7 DUP5 DUP2 MLOAD DUP2 LT PUSH2 0x11BA JUMPI PUSH2 0x11BA PUSH2 0x2061 JUMP JUMPDEST PUSH1 0x20 SWAP1 DUP2 MUL SWAP2 SWAP1 SWAP2 ADD DUP2 ADD MLOAD PUSH1 0xFF SWAP1 DUP2 AND SWAP1 SWAP3 MSTORE DUP4 SLOAD PUSH1 0x1 DUP1 DUP3 ADD DUP7 SSTORE PUSH1 0x0 SWAP6 DUP7 MSTORE SWAP5 DUP3 SWAP1 KECCAK256 DUP5 MLOAD PUSH1 0x4 SWAP1 SWAP3 MUL ADD DUP1 SLOAD PUSH1 0x1 PUSH1 0x1 PUSH1 0xA0 SHL SUB NOT AND PUSH1 0x1 PUSH1 0x1 PUSH1 0xA0 SHL SUB SWAP1 SWAP3 AND SWAP2 SWAP1 SWAP2 OR DUP2 SSTORE SWAP1 DUP4 ADD MLOAD SWAP4 DUP2 ADD SWAP4 SWAP1 SWAP4 SSTORE PUSH1 0x40 DUP3 ADD MLOAD PUSH1 0x2 DUP5 ADD SSTORE PUSH1 0x60 SWAP1 SWAP2 ADD MLOAD PUSH1 0x3 SWAP1 SWAP3 ADD DUP1 SLOAD PUSH1 0xFF NOT AND SWAP3 SWAP1 SWAP2 AND SWAP2 SWAP1 SWAP2 OR SWAP1 SSTORE DUP5 MLOAD DUP6 SWAP1 DUP3 SWAP1 DUP2 LT PUSH2 0x1249 JUMPI PUSH2 0x1249 PUSH2 0x2061 JUMP JUMPDEST PUSH1 0x20 MUL PUSH1 0x20 ADD ADD MLOAD DUP4 PUSH2 0x125C SWAP2 SWAP1 PUSH2 0x2024 JUMP JUMPDEST SWAP3 POP PUSH2 0x1269 PUSH1 0x1 DUP4 PUSH2 0x2024 JUMP JUMPDEST SWAP2 POP CALLER PUSH1 0x1 PUSH1 0x1 PUSH1 0xA0 SHL SUB AND PUSH32 0xF1F7AB530F4E4459175331D052687384CC5DB58D6DC4A5999F06998B5C34523C DUP7 DUP4 DUP2 MLOAD DUP2 LT PUSH2 0x12A8 JUMPI PUSH2 0x12A8 PUSH2 0x2061 JUMP JUMPDEST PUSH1 0x20 MUL PUSH1 0x20 ADD ADD MLOAD DUP9 DUP5 DUP2 MLOAD DUP2 LT PUSH2 0x12C2 JUMPI PUSH2 0x12C2 PUSH2 0x2061 JUMP JUMPDEST PUSH1 0x20 MUL PUSH1 0x20 ADD ADD MLOAD DUP8 DUP6 DUP2 MLOAD DUP2 LT PUSH2 0x12DC JUMPI PUSH2 0x12DC PUSH2 0x2061 JUMP JUMPDEST PUSH1 0x20 MUL PUSH1 0x20 ADD ADD MLOAD PUSH1 0x40 MLOAD PUSH2 0x130B SWAP4 SWAP3 SWAP2 SWAP1 SWAP3 DUP4 MSTORE PUSH2 0xFFFF SWAP2 SWAP1 SWAP2 AND PUSH1 0x20 DUP4 ADD MSTORE PUSH1 0xFF AND PUSH1 0x40 DUP3 ADD MSTORE PUSH1 0x60 ADD SWAP1 JUMP JUMPDEST PUSH1 0x40 MLOAD DUP1 SWAP2 SUB SWAP1 LOG2 PUSH1 0x1 ADD PUSH2 0x1008 JUMP JUMPDEST POP DUP1 PUSH1 0xD PUSH1 0x0 DUP3 DUP3 SLOAD PUSH2 0x132E SWAP2 SWAP1 PUSH2 0x2024 JUMP JUMPDEST SWAP3 POP POP DUP2 SWAP1 SSTORE POP DUP2 PUSH1 0xE PUSH1 0x0 DUP3 DUP3 SLOAD PUSH2 0x1347 SWAP2 SWAP1 PUSH2 0x2024 JUMP JUMPDEST SWAP1 SWAP2 SSTORE POP POP CALLER PUSH1 0x0 SWAP1 DUP2 MSTORE PUSH1 0x5 PUSH1 0x20 MSTORE PUSH1 0x40 SWAP1 KECCAK256 SLOAD DUP3 GT ISZERO PUSH2 0x13AB JUMPI PUSH1 0x40 MLOAD PUSH3 0x461BCD PUSH1 0xE5 SHL DUP2 MSTORE PUSH1 0x20 PUSH1 0x4 DUP3 ADD MSTORE PUSH1 0x1A PUSH1 0x24 DUP3 ADD MSTORE PUSH32 0x496E73756666696369656E7420746F6B656E2062616C616E6365000000000000 PUSH1 0x44 DUP3 ADD MSTORE PUSH1 0x64 ADD PUSH2 0x67F JUMP JUMPDEST POP POP POP POP POP JUMP JUMPDEST PUSH2 0x13BA PUSH2 0x1887 JUMP JUMPDEST PUSH2 0x13C4 PUSH1 0x0 PUSH2 0x1A60 JUMP JUMPDEST JUMP JUMPDEST PUSH1 0x60 PUSH1 0xF DUP1 SLOAD DUP1 PUSH1 0x20 MUL PUSH1 0x20 ADD PUSH1 0x40 MLOAD SWAP1 DUP2 ADD PUSH1 0x40 MSTORE DUP1 SWAP3 SWAP2 SWAP1 DUP2 DUP2 MSTORE PUSH1 0x20 ADD PUSH1 0x0 SWAP1 JUMPDEST DUP3 DUP3 LT ISZERO PUSH2 0x1454 JUMPI PUSH1 0x0 DUP5 DUP2 MSTORE PUSH1 0x20 SWAP1 DUP2 SWAP1 KECCAK256 PUSH1 0x40 DUP1 MLOAD PUSH1 0xA0 DUP2 ADD DUP3 MSTORE PUSH1 0x5 DUP7 MUL SWAP1 SWAP3 ADD DUP1 SLOAD PUSH1 0x1 PUSH1 0x1 PUSH1 0xA0 SHL SUB AND DUP4 MSTORE PUSH1 0x1 DUP1 DUP3 ADD SLOAD DUP5 DUP7 ADD MSTORE PUSH1 0x2 DUP3 ADD SLOAD SWAP3 DUP5 ADD SWAP3 SWAP1 SWAP3 MSTORE PUSH1 0x3 DUP2 ADD SLOAD PUSH1 0x60 DUP5 ADD MSTORE PUSH1 0x4 ADD SLOAD PUSH1 0xFF AND PUSH1 0x80 DUP4 ADD MSTORE SWAP1 DUP4 MSTORE SWAP1 SWAP3 ADD SWAP2 ADD PUSH2 0x13EA JUMP JUMPDEST POP POP POP POP SWAP1 POP SWAP1 JUMP JUMPDEST PUSH2 0x1465 PUSH2 0x1887 JUMP JUMPDEST ADDRESS PUSH1 0x0 SWAP1 DUP2 MSTORE PUSH1 0x5 PUSH1 0x20 MSTORE PUSH1 0x40 SWAP1 KECCAK256 SLOAD DUP2 GT ISZERO PUSH2 0x1494 JUMPI PUSH1 0x40 MLOAD PUSH3 0x461BCD PUSH1 0xE5 SHL DUP2 MSTORE PUSH1 0x4 ADD PUSH2 0x67F SWAP1 PUSH2 0x208E JUMP JUMPDEST PUSH2 0x14B0 ADDRESS PUSH2 0x14AA PUSH1 0x0 SLOAD PUSH1 0x1 PUSH1 0x1 PUSH1 0xA0 SHL SUB AND SWAP1 JUMP JUMPDEST DUP4 PUSH2 0x18B4 JUMP JUMPDEST POP JUMP JUMPDEST PUSH2 0x14BB PUSH2 0x1887 JUMP JUMPDEST PUSH1 0x7 SSTORE JUMP JUMPDEST PUSH1 0x2 DUP1 SLOAD PUSH2 0x58C SWAP1 PUSH2 0x1FDA JUMP JUMPDEST PUSH2 0x14D5 PUSH2 0x1887 JUMP JUMPDEST PUSH1 0x9 SSTORE JUMP JUMPDEST PUSH1 0xF DUP2 DUP2 SLOAD DUP2 LT PUSH2 0x14EA JUMPI PUSH1 0x0 DUP1 REVERT JUMPDEST PUSH1 0x0 SWAP2 DUP3 MSTORE PUSH1 0x20 SWAP1 SWAP2 KECCAK256 PUSH1 0x5 SWAP1 SWAP2 MUL ADD DUP1 SLOAD PUSH1 0x1 DUP3 ADD SLOAD PUSH1 0x2 DUP4 ADD SLOAD PUSH1 0x3 DUP5 ADD SLOAD PUSH1 0x4 SWAP1 SWAP5 ADD SLOAD PUSH1 0x1 PUSH1 0x1 PUSH1 0xA0 SHL SUB SWAP1 SWAP4 AND SWAP5 POP SWAP1 SWAP3 SWAP1 SWAP2 PUSH1 0xFF AND DUP6 JUMP JUMPDEST CALLER PUSH1 0x0 DUP2 DUP2 MSTORE PUSH1 0x6 PUSH1 0x20 SWAP1 DUP2 MSTORE PUSH1 0x40 DUP1 DUP4 KECCAK256 PUSH1 0x1 PUSH1 0x1 PUSH1 0xA0 SHL SUB DUP8 AND DUP5 MSTORE SWAP1 SWAP2 MSTORE DUP2 KECCAK256 SLOAD SWAP1 SWAP2 PUSH2 0x61A SWAP2 DUP6 SWAP1 PUSH2 0xF10 SWAP1 DUP7 SWAP1 PUSH2 0x20C5 JUMP JUMPDEST PUSH1 0x0 PUSH2 0x61A CALLER DUP5 DUP5 PUSH2 0x18B4 JUMP JUMPDEST PUSH1 0x60 PUSH1 0xC DUP1 SLOAD DUP1 PUSH1 0x20 MUL PUSH1 0x20 ADD PUSH1 0x40 MLOAD SWAP1 DUP2 ADD PUSH1 0x40 MSTORE DUP1 SWAP3 SWAP2 SWAP1 DUP2 DUP2 MSTORE PUSH1 0x20 ADD PUSH1 0x0 SWAP1 JUMPDEST DUP3 DUP3 LT ISZERO PUSH2 0x1454 JUMPI DUP4 DUP3 SWAP1 PUSH1 0x0 MSTORE PUSH1 0x20 PUSH1 0x0 KECCAK256 SWAP1 PUSH1 0x2 MUL ADD PUSH1 0x40 MLOAD DUP1 PUSH1 0x40 ADD PUSH1 0x40 MSTORE SWAP1 DUP2 PUSH1 0x0 DUP3 ADD SLOAD DUP2 MSTORE PUSH1 0x20 ADD PUSH1 0x1 DUP3 ADD SLOAD DUP2 MSTORE POP POP DUP2 MSTORE PUSH1 0x20 ADD SWAP1 PUSH1 0x1 ADD SWAP1 PUSH2 0x1590 JUMP JUMPDEST PUSH1 0x0 DUP1 DUP1 JUMPDEST DUP4 MLOAD DUP2 LT ISZERO PUSH2 0x162C JUMPI PUSH1 0x30 DUP5 DUP3 DUP2 MLOAD DUP2 LT PUSH2 0x15F8 JUMPI PUSH2 0x15F8 PUSH2 0x2061 JUMP JUMPDEST ADD PUSH1 0x20 ADD MLOAD PUSH2 0x160A SWAP2 SWAP1 PUSH1 0xF8 SHR PUSH2 0x20EE JUMP JUMPDEST PUSH1 0xFF AND PUSH2 0x1618 DUP4 PUSH1 0xA PUSH2 0x2077 JUMP JUMPDEST PUSH2 0x1622 SWAP2 SWAP1 PUSH2 0x2024 JUMP JUMPDEST SWAP2 POP PUSH1 0x1 ADD PUSH2 0x15DB JUMP JUMPDEST POP SWAP3 SWAP2 POP POP JUMP JUMPDEST PUSH1 0xC DUP2 DUP2 SLOAD DUP2 LT PUSH2 0x1643 JUMPI PUSH1 0x0 DUP1 REVERT JUMPDEST PUSH1 0x0 SWAP2 DUP3 MSTORE PUSH1 0x20 SWAP1 SWAP2 KECCAK256 PUSH1 0x2 SWAP1 SWAP2 MUL ADD DUP1 SLOAD PUSH1 0x1 SWAP1 SWAP2 ADD SLOAD SWAP1 SWAP2 POP DUP3 JUMP JUMPDEST PUSH2 0x1669 PUSH2 0x1887 JUMP JUMPDEST PUSH1 0x1 PUSH1 0x1 PUSH1 0xA0 SHL SUB DUP2 AND PUSH2 0x1693 JUMPI PUSH1 0x40 MLOAD PUSH4 0x1E4FBDF7 PUSH1 0xE0 SHL DUP2 MSTORE PUSH1 0x0 PUSH1 0x4 DUP3 ADD MSTORE PUSH1 0x24 ADD PUSH2 0x67F JUMP JUMPDEST PUSH2 0x14B0 DUP2 PUSH2 0x1A60 JUMP JUMPDEST PUSH1 0x1 PUSH1 0x1 PUSH1 0xA0 SHL SUB DUP4 AND PUSH2 0x16F2 JUMPI PUSH1 0x40 MLOAD PUSH3 0x461BCD PUSH1 0xE5 SHL DUP2 MSTORE PUSH1 0x20 PUSH1 0x4 DUP3 ADD MSTORE PUSH1 0x1D PUSH1 0x24 DUP3 ADD MSTORE PUSH32 0x417070726F76652066726F6D20746865207A65726F2061646472657373000000 PUSH1 0x44 DUP3 ADD MSTORE PUSH1 0x64 ADD PUSH2 0x67F JUMP JUMPDEST PUSH1 0x1 PUSH1 0x1 PUSH1 0xA0 SHL SUB DUP3 AND PUSH2 0x1748 JUMPI PUSH1 0x40 MLOAD PUSH3 0x461BCD PUSH1 0xE5 SHL DUP2 MSTORE PUSH1 0x20 PUSH1 0x4 DUP3 ADD MSTORE PUSH1 0x1B PUSH1 0x24 DUP3 ADD MSTORE PUSH32 0x417070726F766520746F20746865207A65726F20616464726573730000000000 PUSH1 0x44 DUP3 ADD MSTORE PUSH1 0x64 ADD PUSH2 0x67F JUMP JUMPDEST PUSH1 0x1 PUSH1 0x1 PUSH1 0xA0 SHL SUB DUP4 DUP2 AND PUSH1 0x0 DUP2 DUP2 MSTORE PUSH1 0x6 PUSH1 0x20 SWAP1 DUP2 MSTORE PUSH1 0x40 DUP1 DUP4 KECCAK256 SWAP5 DUP8 AND DUP1 DUP5 MSTORE SWAP5 DUP3 MSTORE SWAP2 DUP3 SWAP1 KECCAK256 DUP6 SWAP1 SSTORE SWAP1 MLOAD DUP5 DUP2 MSTORE PUSH32 0x8C5BE1E5EBEC7D5BD14F71427D1E84F3DD0314C0F7B2291E5B200AC8C7C3B925 SWAP2 ADD JUMPDEST PUSH1 0x40 MLOAD DUP1 SWAP2 SUB SWAP1 LOG3 POP POP POP JUMP JUMPDEST PUSH1 0x60 PUSH1 0x0 DUP3 PUSH1 0xFF AND PUSH8 0xFFFFFFFFFFFFFFFF DUP2 GT ISZERO PUSH2 0x17CA JUMPI PUSH2 0x17CA PUSH2 0x1C0A JUMP JUMPDEST PUSH1 0x40 MLOAD SWAP1 DUP1 DUP3 MSTORE DUP1 PUSH1 0x1F ADD PUSH1 0x1F NOT AND PUSH1 0x20 ADD DUP3 ADD PUSH1 0x40 MSTORE DUP1 ISZERO PUSH2 0x17F4 JUMPI PUSH1 0x20 DUP3 ADD DUP2 DUP1 CALLDATASIZE DUP4 CALLDATACOPY ADD SWAP1 POP JUMPDEST POP SWAP1 POP PUSH1 0x0 JUMPDEST DUP4 PUSH1 0xFF AND DUP2 PUSH1 0xFF AND LT ISZERO PUSH2 0x187F JUMPI PUSH1 0xA PUSH2 0x1814 DUP3 DUP3 PUSH2 0x21EB JUMP JUMPDEST PUSH2 0x181E SWAP1 DUP8 PUSH2 0x21FA JUMP JUMPDEST PUSH2 0x1828 SWAP2 SWAP1 PUSH2 0x204D JUMP JUMPDEST PUSH2 0x1833 SWAP1 PUSH1 0x30 PUSH2 0x2024 JUMP JUMPDEST PUSH1 0xF8 SHL DUP3 DUP3 PUSH2 0x1843 PUSH1 0x1 DUP9 PUSH2 0x20EE JUMP JUMPDEST PUSH2 0x184D SWAP2 SWAP1 PUSH2 0x20EE JUMP JUMPDEST PUSH1 0xFF AND DUP2 MLOAD DUP2 LT PUSH2 0x1860 JUMPI PUSH2 0x1860 PUSH2 0x2061 JUMP JUMPDEST PUSH1 0x20 ADD ADD SWAP1 PUSH1 0x1 PUSH1 0x1 PUSH1 0xF8 SHL SUB NOT AND SWAP1 DUP2 PUSH1 0x0 BYTE SWAP1 MSTORE8 POP PUSH1 0x1 ADD PUSH2 0x17FA JUMP JUMPDEST POP SWAP4 SWAP3 POP POP POP JUMP JUMPDEST PUSH1 0x0 SLOAD PUSH1 0x1 PUSH1 0x1 PUSH1 0xA0 SHL SUB AND CALLER EQ PUSH2 0x13C4 JUMPI PUSH1 0x40 MLOAD PUSH4 0x118CDAA7 PUSH1 0xE0 SHL DUP2 MSTORE CALLER PUSH1 0x4 DUP3 ADD MSTORE PUSH1 0x24 ADD PUSH2 0x67F JUMP JUMPDEST PUSH1 0x1 PUSH1 0x1 PUSH1 0xA0 SHL SUB DUP4 AND PUSH2 0x190A JUMPI PUSH1 0x40 MLOAD PUSH3 0x461BCD PUSH1 0xE5 SHL DUP2 MSTORE PUSH1 0x20 PUSH1 0x4 DUP3 ADD MSTORE PUSH1 0x1E PUSH1 0x24 DUP3 ADD MSTORE PUSH32 0x5472616E736665722066726F6D20746865207A65726F20616464726573730000 PUSH1 0x44 DUP3 ADD MSTORE PUSH1 0x64 ADD PUSH2 0x67F JUMP JUMPDEST PUSH1 0x1 PUSH1 0x1 PUSH1 0xA0 SHL SUB DUP3 AND PUSH2 0x1960 JUMPI PUSH1 0x40 MLOAD PUSH3 0x461BCD PUSH1 0xE5 SHL DUP2 MSTORE PUSH1 0x20 PUSH1 0x4 DUP3 ADD MSTORE PUSH1 0x1C PUSH1 0x24 DUP3 ADD MSTORE PUSH32 0x5472616E7366657220746F20746865207A65726F206164647265737300000000 PUSH1 0x44 DUP3 ADD MSTORE PUSH1 0x64 ADD PUSH2 0x67F JUMP JUMPDEST PUSH1 0x1 PUSH1 0x1 PUSH1 0xA0 SHL SUB DUP4 AND PUSH1 0x0 SWAP1 DUP2 MSTORE PUSH1 0x5 PUSH1 0x20 MSTORE PUSH1 0x40 SWAP1 KECCAK256 SLOAD DUP2 GT ISZERO PUSH2 0x19BF JUMPI PUSH1 0x40 MLOAD PUSH3 0x461BCD PUSH1 0xE5 SHL DUP2 MSTORE PUSH1 0x20 PUSH1 0x4 DUP3 ADD MSTORE PUSH1 0x14 PUSH1 0x24 DUP3 ADD MSTORE PUSH20 0x496E73756666696369656E742062616C616E6365 PUSH1 0x60 SHL PUSH1 0x44 DUP3 ADD MSTORE PUSH1 0x64 ADD PUSH2 0x67F JUMP JUMPDEST PUSH1 0x1 PUSH1 0x1 PUSH1 0xA0 SHL SUB DUP4 AND PUSH1 0x0 SWAP1 DUP2 MSTORE PUSH1 0x5 PUSH1 0x20 MSTORE PUSH1 0x40 DUP2 KECCAK256 DUP1 SLOAD DUP4 SWAP3 SWAP1 PUSH2 0x19E7 SWAP1 DUP5 SWAP1 PUSH2 0x20C5 JUMP JUMPDEST SWAP1 SWAP2 SSTORE POP POP PUSH1 0x1 PUSH1 0x1 PUSH1 0xA0 SHL SUB DUP3 AND PUSH1 0x0 SWAP1 DUP2 MSTORE PUSH1 0x5 PUSH1 0x20 MSTORE PUSH1 0x40 DUP2 KECCAK256 DUP1 SLOAD DUP4 SWAP3 SWAP1 PUSH2 0x1A14 SWAP1 DUP5 SWAP1 PUSH2 0x2024 JUMP JUMPDEST SWAP3 POP POP DUP2 SWAP1 SSTORE POP DUP2 PUSH1 0x1 PUSH1 0x1 PUSH1 0xA0 SHL SUB AND DUP4 PUSH1 0x1 PUSH1 0x1 PUSH1 0xA0 SHL SUB AND PUSH32 0xDDF252AD1BE2C89B69C2B068FC378DAA952BA7F163C4A11628F55A4DF523B3EF DUP4 PUSH1 0x40 MLOAD PUSH2 0x179D SWAP2 DUP2 MSTORE PUSH1 0x20 ADD SWAP1 JUMP JUMPDEST PUSH1 0x0 DUP1 SLOAD PUSH1 0x1 PUSH1 0x1 PUSH1 0xA0 SHL SUB DUP4 DUP2 AND PUSH1 0x1 PUSH1 0x1 PUSH1 0xA0 SHL SUB NOT DUP4 AND DUP2 OR DUP5 SSTORE PUSH1 0x40 MLOAD SWAP2 SWAP1 SWAP3 AND SWAP3 DUP4 SWAP2 PUSH32 0x8BE0079C531659141344CD1FD0A4F28419497F9722A3DAAFE3B4186F6B6457E0 SWAP2 SWAP1 LOG3 POP POP JUMP JUMPDEST PUSH1 0x0 PUSH1 0x20 DUP1 DUP4 MSTORE DUP4 MLOAD DUP1 PUSH1 0x20 DUP6 ADD MSTORE PUSH1 0x0 JUMPDEST DUP2 DUP2 LT ISZERO PUSH2 0x1ADE JUMPI DUP6 DUP2 ADD DUP4 ADD MLOAD DUP6 DUP3 ADD PUSH1 0x40 ADD MSTORE DUP3 ADD PUSH2 0x1AC2 JUMP JUMPDEST POP PUSH1 0x0 PUSH1 0x40 DUP3 DUP7 ADD ADD MSTORE PUSH1 0x40 PUSH1 0x1F NOT PUSH1 0x1F DUP4 ADD AND DUP6 ADD ADD SWAP3 POP POP POP SWAP3 SWAP2 POP POP JUMP JUMPDEST DUP1 CALLDATALOAD PUSH1 0x1 PUSH1 0x1 PUSH1 0xA0 SHL SUB DUP2 AND DUP2 EQ PUSH2 0x1B16 JUMPI PUSH1 0x0 DUP1 REVERT JUMPDEST SWAP2 SWAP1 POP JUMP JUMPDEST PUSH1 0x0 DUP1 PUSH1 0x40 DUP4 DUP6 SUB SLT ISZERO PUSH2 0x1B2E JUMPI PUSH1 0x0 DUP1 REVERT JUMPDEST PUSH2 0x1B37 DUP4 PUSH2 0x1AFF JUMP JUMPDEST SWAP5 PUSH1 0x20 SWAP4 SWAP1 SWAP4 ADD CALLDATALOAD SWAP4 POP POP POP JUMP JUMPDEST PUSH1 0x20 DUP1 DUP3 MSTORE DUP3 MLOAD DUP3 DUP3 ADD DUP2 SWAP1 MSTORE PUSH1 0x0 SWAP2 SWAP1 PUSH1 0x40 SWAP1 DUP2 DUP6 ADD SWAP1 DUP7 DUP5 ADD DUP6 JUMPDEST DUP3 DUP2 LT ISZERO PUSH2 0x1BA8 JUMPI DUP2 MLOAD DUP1 MLOAD PUSH1 0x1 PUSH1 0x1 PUSH1 0xA0 SHL SUB AND DUP6 MSTORE DUP7 DUP2 ADD MLOAD DUP8 DUP7 ADD MSTORE DUP6 DUP2 ADD MLOAD DUP7 DUP7 ADD MSTORE PUSH1 0x60 SWAP1 DUP2 ADD MLOAD PUSH1 0xFF AND SWAP1 DUP6 ADD MSTORE PUSH1 0x80 SWAP1 SWAP4 ADD SWAP3 SWAP1 DUP6 ADD SWAP1 PUSH1 0x1 ADD PUSH2 0x1B62 JUMP JUMPDEST POP SWAP2 SWAP8 SWAP7 POP POP POP POP POP POP POP JUMP JUMPDEST PUSH1 0x0 PUSH1 0x20 DUP3 DUP5 SUB SLT ISZERO PUSH2 0x1BC7 JUMPI PUSH1 0x0 DUP1 REVERT JUMPDEST POP CALLDATALOAD SWAP2 SWAP1 POP JUMP JUMPDEST PUSH1 0x0 DUP1 PUSH1 0x0 PUSH1 0x60 DUP5 DUP7 SUB SLT ISZERO PUSH2 0x1BE3 JUMPI PUSH1 0x0 DUP1 REVERT JUMPDEST PUSH2 0x1BEC DUP5 PUSH2 0x1AFF JUMP JUMPDEST SWAP3 POP PUSH2 0x1BFA PUSH1 0x20 DUP6 ADD PUSH2 0x1AFF JUMP JUMPDEST SWAP2 POP PUSH1 0x40 DUP5 ADD CALLDATALOAD SWAP1 POP SWAP3 POP SWAP3 POP SWAP3 JUMP JUMPDEST PUSH4 0x4E487B71 PUSH1 0xE0 SHL PUSH1 0x0 MSTORE PUSH1 0x41 PUSH1 0x4 MSTORE PUSH1 0x24 PUSH1 0x0 REVERT JUMPDEST PUSH1 0x40 MLOAD PUSH1 0x1F DUP3 ADD PUSH1 0x1F NOT AND DUP2 ADD PUSH8 0xFFFFFFFFFFFFFFFF DUP2 GT DUP3 DUP3 LT OR ISZERO PUSH2 0x1C49 JUMPI PUSH2 0x1C49 PUSH2 0x1C0A JUMP JUMPDEST PUSH1 0x40 MSTORE SWAP2 SWAP1 POP JUMP JUMPDEST PUSH1 0x0 PUSH8 0xFFFFFFFFFFFFFFFF DUP3 GT ISZERO PUSH2 0x1C6B JUMPI PUSH2 0x1C6B PUSH2 0x1C0A JUMP JUMPDEST POP PUSH1 0x5 SHL PUSH1 0x20 ADD SWAP1 JUMP JUMPDEST PUSH1 0x0 DUP3 PUSH1 0x1F DUP4 ADD SLT PUSH2 0x1C86 JUMPI PUSH1 0x0 DUP1 REVERT JUMPDEST DUP2 CALLDATALOAD PUSH1 0x20 PUSH2 0x1C9B PUSH2 0x1C96 DUP4 PUSH2 0x1C51 JUMP JUMPDEST PUSH2 0x1C20 JUMP JUMPDEST DUP1 DUP4 DUP3 MSTORE PUSH1 0x20 DUP3 ADD SWAP2 POP PUSH1 0x20 DUP5 PUSH1 0x5 SHL DUP8 ADD ADD SWAP4 POP DUP7 DUP5 GT ISZERO PUSH2 0x1CBD JUMPI PUSH1 0x0 DUP1 REVERT JUMPDEST PUSH1 0x20 DUP7 ADD JUMPDEST DUP5 DUP2 LT ISZERO PUSH2 0x1CD9 JUMPI DUP1 CALLDATALOAD DUP4 MSTORE SWAP2 DUP4 ADD SWAP2 DUP4 ADD PUSH2 0x1CC2 JUMP JUMPDEST POP SWAP7 SWAP6 POP POP POP POP POP POP JUMP JUMPDEST PUSH1 0x0 DUP3 PUSH1 0x1F DUP4 ADD SLT PUSH2 0x1CF5 JUMPI PUSH1 0x0 DUP1 REVERT JUMPDEST DUP2 CALLDATALOAD PUSH1 0x20 PUSH2 0x1D05 PUSH2 0x1C96 DUP4 PUSH2 0x1C51 JUMP JUMPDEST DUP1 DUP4 DUP3 MSTORE PUSH1 0x20 DUP3 ADD SWAP2 POP PUSH1 0x20 DUP5 PUSH1 0x5 SHL DUP8 ADD ADD SWAP4 POP DUP7 DUP5 GT ISZERO PUSH2 0x1D27 JUMPI PUSH1 0x0 DUP1 REVERT JUMPDEST PUSH1 0x20 DUP7 ADD JUMPDEST DUP5 DUP2 LT ISZERO PUSH2 0x1CD9 JUMPI DUP1 CALLDATALOAD PUSH1 0xFF DUP2 AND DUP2 EQ PUSH2 0x1D46 JUMPI PUSH1 0x0 DUP1 DUP2 REVERT JUMPDEST DUP4 MSTORE SWAP2 DUP4 ADD SWAP2 DUP4 ADD PUSH2 0x1D2C JUMP JUMPDEST PUSH1 0x0 DUP1 PUSH1 0x0 PUSH1 0x60 DUP5 DUP7 SUB SLT ISZERO PUSH2 0x1D68 JUMPI PUSH1 0x0 DUP1 REVERT JUMPDEST DUP4 CALLDATALOAD PUSH8 0xFFFFFFFFFFFFFFFF DUP1 DUP3 GT ISZERO PUSH2 0x1D80 JUMPI PUSH1 0x0 DUP1 REVERT JUMPDEST DUP2 DUP7 ADD SWAP2 POP DUP7 PUSH1 0x1F DUP4 ADD SLT PUSH2 0x1D94 JUMPI PUSH1 0x0 DUP1 REVERT JUMPDEST DUP2 CALLDATALOAD PUSH1 0x20 PUSH2 0x1DA4 PUSH2 0x1C96 DUP4 PUSH2 0x1C51 JUMP JUMPDEST DUP3 DUP2 MSTORE PUSH1 0x5 SWAP3 SWAP1 SWAP3 SHL DUP5 ADD DUP2 ADD SWAP2 DUP2 DUP2 ADD SWAP1 DUP11 DUP5 GT ISZERO PUSH2 0x1DC3 JUMPI PUSH1 0x0 DUP1 REVERT JUMPDEST SWAP5 DUP3 ADD SWAP5 JUMPDEST DUP4 DUP7 LT ISZERO PUSH2 0x1DF2 JUMPI DUP6 CALLDATALOAD PUSH2 0xFFFF DUP2 AND DUP2 EQ PUSH2 0x1DE3 JUMPI PUSH1 0x0 DUP1 DUP2 REVERT JUMPDEST DUP3 MSTORE SWAP5 DUP3 ADD SWAP5 SWAP1 DUP3 ADD SWAP1 PUSH2 0x1DC8 JUMP JUMPDEST SWAP8 POP POP DUP8 ADD CALLDATALOAD SWAP3 POP POP DUP1 DUP3 GT ISZERO PUSH2 0x1E08 JUMPI PUSH1 0x0 DUP1 REVERT JUMPDEST PUSH2 0x1E14 DUP8 DUP4 DUP9 ADD PUSH2 0x1C75 JUMP JUMPDEST SWAP4 POP PUSH1 0x40 DUP7 ADD CALLDATALOAD SWAP2 POP DUP1 DUP3 GT ISZERO PUSH2 0x1E2A JUMPI PUSH1 0x0 DUP1 REVERT JUMPDEST POP PUSH2 0x1E37 DUP7 DUP3 DUP8 ADD PUSH2 0x1CE4 JUMP JUMPDEST SWAP2 POP POP SWAP3 POP SWAP3 POP SWAP3 JUMP JUMPDEST PUSH1 0x0 PUSH1 0x20 DUP3 DUP5 SUB SLT ISZERO PUSH2 0x1E53 JUMPI PUSH1 0x0 DUP1 REVERT JUMPDEST PUSH2 0x1E5C DUP3 PUSH2 0x1AFF JUMP JUMPDEST SWAP4 SWAP3 POP POP POP JUMP JUMPDEST PUSH1 0x20 DUP1 DUP3 MSTORE DUP3 MLOAD DUP3 DUP3 ADD DUP2 SWAP1 MSTORE PUSH1 0x0 SWAP2 SWAP1 PUSH1 0x40 SWAP1 DUP2 DUP6 ADD SWAP1 DUP7 DUP5 ADD DUP6 JUMPDEST DUP3 DUP2 LT ISZERO PUSH2 0x1BA8 JUMPI DUP2 MLOAD DUP1 MLOAD PUSH1 0x1 PUSH1 0x1 PUSH1 0xA0 SHL SUB AND DUP6 MSTORE DUP7 DUP2 ADD MLOAD DUP8 DUP7 ADD MSTORE DUP6 DUP2 ADD MLOAD DUP7 DUP7 ADD MSTORE PUSH1 0x60 DUP1 DUP3 ADD MLOAD SWAP1 DUP7 ADD MSTORE PUSH1 0x80 SWAP1 DUP2 ADD MLOAD PUSH1 0xFF AND SWAP1 DUP6 ADD MSTORE PUSH1 0xA0 SWAP1 SWAP4 ADD SWAP3 SWAP1 DUP6 ADD SWAP1 PUSH1 0x1 ADD PUSH2 0x1E80 JUMP JUMPDEST PUSH1 0x20 DUP1 DUP3 MSTORE DUP3 MLOAD DUP3 DUP3 ADD DUP2 SWAP1 MSTORE PUSH1 0x0 SWAP2 SWAP1 PUSH1 0x40 SWAP1 DUP2 DUP6 ADD SWAP1 DUP7 DUP5 ADD DUP6 JUMPDEST DUP3 DUP2 LT ISZERO PUSH2 0x1BA8 JUMPI DUP2 MLOAD DUP1 MLOAD DUP6 MSTORE DUP7 ADD MLOAD DUP7 DUP6 ADD MSTORE SWAP3 DUP5 ADD SWAP3 SWAP1 DUP6 ADD SWAP1 PUSH1 0x1 ADD PUSH2 0x1EED JUMP JUMPDEST PUSH1 0x0 PUSH1 0x20 DUP1 DUP4 DUP6 SUB SLT ISZERO PUSH2 0x1F25 JUMPI PUSH1 0x0 DUP1 REVERT JUMPDEST DUP3 CALLDATALOAD PUSH8 0xFFFFFFFFFFFFFFFF DUP1 DUP3 GT ISZERO PUSH2 0x1F3D JUMPI PUSH1 0x0 DUP1 REVERT JUMPDEST DUP2 DUP6 ADD SWAP2 POP DUP6 PUSH1 0x1F DUP4 ADD SLT PUSH2 0x1F51 JUMPI PUSH1 0x0 DUP1 REVERT JUMPDEST DUP2 CALLDATALOAD DUP2 DUP2 GT ISZERO PUSH2 0x1F63 JUMPI PUSH2 0x1F63 PUSH2 0x1C0A JUMP JUMPDEST PUSH2 0x1F75 PUSH1 0x1F DUP3 ADD PUSH1 0x1F NOT AND DUP6 ADD PUSH2 0x1C20 JUMP JUMPDEST SWAP2 POP DUP1 DUP3 MSTORE DUP7 DUP5 DUP3 DUP6 ADD ADD GT ISZERO PUSH2 0x1F8B JUMPI PUSH1 0x0 DUP1 REVERT JUMPDEST DUP1 DUP5 DUP5 ADD DUP6 DUP5 ADD CALLDATACOPY PUSH1 0x0 SWAP1 DUP3 ADD SWAP1 SWAP4 ADD SWAP3 SWAP1 SWAP3 MSTORE POP SWAP4 SWAP3 POP POP POP JUMP JUMPDEST PUSH1 0x0 DUP1 PUSH1 0x40 DUP4 DUP6 SUB SLT ISZERO PUSH2 0x1FBA JUMPI PUSH1 0x0 DUP1 REVERT JUMPDEST PUSH2 0x1FC3 DUP4 PUSH2 0x1AFF JUMP JUMPDEST SWAP2 POP PUSH2 0x1FD1 PUSH1 0x20 DUP5 ADD PUSH2 0x1AFF JUMP JUMPDEST SWAP1 POP SWAP3 POP SWAP3 SWAP1 POP JUMP JUMPDEST PUSH1 0x1 DUP2 DUP2 SHR SWAP1 DUP3 AND DUP1 PUSH2 0x1FEE JUMPI PUSH1 0x7F DUP3 AND SWAP2 POP JUMPDEST PUSH1 0x20 DUP3 LT DUP2 SUB PUSH2 0xE73 JUMPI PUSH4 0x4E487B71 PUSH1 0xE0 SHL PUSH1 0x0 MSTORE PUSH1 0x22 PUSH1 0x4 MSTORE PUSH1 0x24 PUSH1 0x0 REVERT JUMPDEST PUSH4 0x4E487B71 PUSH1 0xE0 SHL PUSH1 0x0 MSTORE PUSH1 0x11 PUSH1 0x4 MSTORE PUSH1 0x24 PUSH1 0x0 REVERT JUMPDEST DUP1 DUP3 ADD DUP1 DUP3 GT ISZERO PUSH2 0x61E JUMPI PUSH2 0x61E PUSH2 0x200E JUMP JUMPDEST PUSH4 0x4E487B71 PUSH1 0xE0 SHL PUSH1 0x0 MSTORE PUSH1 0x12 PUSH1 0x4 MSTORE PUSH1 0x24 PUSH1 0x0 REVERT JUMPDEST PUSH1 0x0 DUP3 PUSH2 0x205C JUMPI PUSH2 0x205C PUSH2 0x2037 JUMP JUMPDEST POP MOD SWAP1 JUMP JUMPDEST PUSH4 0x4E487B71 PUSH1 0xE0 SHL PUSH1 0x0 MSTORE PUSH1 0x32 PUSH1 0x4 MSTORE PUSH1 0x24 PUSH1 0x0 REVERT JUMPDEST DUP1 DUP3 MUL DUP2 ISZERO DUP3 DUP3 DIV DUP5 EQ OR PUSH2 0x61E JUMPI PUSH2 0x61E PUSH2 0x200E JUMP JUMPDEST PUSH1 0x20 DUP1 DUP3 MSTORE PUSH1 0x1D SWAP1 DUP3 ADD MSTORE PUSH32 0x496E73756666696369656E7420636F6E74726163742062616C616E6365000000 PUSH1 0x40 DUP3 ADD MSTORE PUSH1 0x60 ADD SWAP1 JUMP JUMPDEST DUP2 DUP2 SUB DUP2 DUP2 GT ISZERO PUSH2 0x61E JUMPI PUSH2 0x61E PUSH2 0x200E JUMP JUMPDEST PUSH4 0x4E487B71 PUSH1 0xE0 SHL PUSH1 0x0 MSTORE PUSH1 0x31 PUSH1 0x4 MSTORE PUSH1 0x24 PUSH1 0x0 REVERT JUMPDEST PUSH1 0xFF DUP3 DUP2 AND DUP3 DUP3 AND SUB SWAP1 DUP2 GT ISZERO PUSH2 0x61E JUMPI PUSH2 0x61E PUSH2 0x200E JUMP JUMPDEST PUSH1 0x1 DUP2 DUP2 JUMPDEST DUP1 DUP6 GT ISZERO PUSH2 0x2142 JUMPI DUP2 PUSH1 0x0 NOT DIV DUP3 GT ISZERO PUSH2 0x2128 JUMPI PUSH2 0x2128 PUSH2 0x200E JUMP JUMPDEST DUP1 DUP6 AND ISZERO PUSH2 0x2135 JUMPI SWAP2 DUP2 MUL SWAP2 JUMPDEST SWAP4 DUP5 SHR SWAP4 SWAP1 DUP1 MUL SWAP1 PUSH2 0x210C JUMP JUMPDEST POP SWAP3 POP SWAP3 SWAP1 POP JUMP JUMPDEST PUSH1 0x0 DUP3 PUSH2 0x2159 JUMPI POP PUSH1 0x1 PUSH2 0x61E JUMP JUMPDEST DUP2 PUSH2 0x2166 JUMPI POP PUSH1 0x0 PUSH2 0x61E JUMP JUMPDEST DUP2 PUSH1 0x1 DUP2 EQ PUSH2 0x217C JUMPI PUSH1 0x2 DUP2 EQ PUSH2 0x2186 JUMPI PUSH2 0x21A2 JUMP JUMPDEST PUSH1 0x1 SWAP2 POP POP PUSH2 0x61E JUMP JUMPDEST PUSH1 0xFF DUP5 GT ISZERO PUSH2 0x2197 JUMPI PUSH2 0x2197 PUSH2 0x200E JUMP JUMPDEST POP POP PUSH1 0x1 DUP3 SHL PUSH2 0x61E JUMP JUMPDEST POP PUSH1 0x20 DUP4 LT PUSH2 0x133 DUP4 LT AND PUSH1 0x4E DUP5 LT PUSH1 0xB DUP5 LT AND OR ISZERO PUSH2 0x21C5 JUMPI POP DUP2 DUP2 EXP PUSH2 0x61E JUMP JUMPDEST PUSH2 0x21CF DUP4 DUP4 PUSH2 0x2107 JUMP JUMPDEST DUP1 PUSH1 0x0 NOT DIV DUP3 GT ISZERO PUSH2 0x21E3 JUMPI PUSH2 0x21E3 PUSH2 0x200E JUMP JUMPDEST MUL SWAP4 SWAP3 POP POP POP JUMP JUMPDEST PUSH1 0x0 PUSH2 0x1E5C PUSH1 0xFF DUP5 AND DUP4 PUSH2 0x214A JUMP JUMPDEST PUSH1 0x0 DUP3 PUSH2 0x2209 JUMPI PUSH2 0x2209 PUSH2 0x2037 JUMP JUMPDEST POP DIV SWAP1 JUMP INVALID LOG2 PUSH5 0x6970667358 0x22 SLT KECCAK256 DUP10 SGT PUSH6 0xECDBEF2AEFC9 STATICCALL 0x4B EXTCODECOPY TIMESTAMP SWAP6 SWAP10 MOD 0xAC SWAP8 RETURNDATASIZE 0xF RETURN MULMOD 0x4E REVERT CREATE 0xC7 0x5D 0x22 ISZERO POP 0xDD DUP9 PUSH5 0x736F6C6343 STOP ADDMOD AND STOP CALLER "
				},
				"gasEstimates": {
					"creation": {
						"codeDepositCost": "1754400",
						"executionCost": "infinite",
						"totalCost": "infinite"
					},
					"external": {
						"allowance(address,address)": "infinite",
						"amountTotal()": "2428",
						"approve(address,uint256)": "24667",
						"balanceOf(address)": "2604",
						"betTotal()": "2361",
						"bets(uint256)": "11154",
						"decimals()": "2381",
						"decreaseAllowance(address,uint256)": "infinite",
						"draw()": "infinite",
						"drawResults(uint256)": "6841",
						"drawTime()": "2341",
						"getAllDrawResults()": "infinite",
						"getBetHistory()": "infinite",
						"getContractBalance()": "2405",
						"getLastDrawResult()": "2404",
						"getLastDrawTime()": "2426",
						"getTotalAmounts()": "2336",
						"getTotalBets()": "2381",
						"getWinnerLists()": "infinite",
						"increaseAllowance(address,uint256)": "infinite",
						"lastDrawResult()": "2362",
						"lastDrawTimestamp()": "2363",
						"maximumBet()": "2385",
						"minimumBet()": "2428",
						"name()": "infinite",
						"owner()": "2391",
						"placeBatchBetsWithToken(uint16[],uint256[],uint8[])": "infinite",
						"renounceOwnership()": "infinite",
						"setDrawTime(uint256)": "24533",
						"setMaximumBet(uint256)": "24556",
						"setMinimumBet(uint256)": "24534",
						"symbol()": "infinite",
						"toUint(string)": "infinite",
						"totalSupply()": "2394",
						"transfer(address,uint256)": "infinite",
						"transferFrom(address,address,uint256)": "infinite",
						"transferOwnership(address)": "28465",
						"winnerLists(uint256)": "13248",
						"withdrawL4D(uint256)": "infinite"
					},
					"internal": {
						"_approve(address,address,uint256)": "infinite",
						"_transfer(address,address,uint256)": "infinite",
						"compareStrings(string memory,string memory)": "infinite"
					}
				},
				"methodIdentifiers": {
					"allowance(address,address)": "dd62ed3e",
					"amountTotal()": "a73c7140",
					"approve(address,uint256)": "095ea7b3",
					"balanceOf(address)": "70a08231",
					"betTotal()": "d10057ad",
					"bets(uint256)": "22af00fa",
					"decimals()": "313ce567",
					"decreaseAllowance(address,uint256)": "a457c2d7",
					"draw()": "0eecae21",
					"drawResults(uint256)": "ea2ea085",
					"drawTime()": "24ac60a7",
					"getAllDrawResults()": "b5ef6d86",
					"getBetHistory()": "186eee8b",
					"getContractBalance()": "6f9fb98a",
					"getLastDrawResult()": "91578f11",
					"getLastDrawTime()": "64589654",
					"getTotalAmounts()": "c4a7761e",
					"getTotalBets()": "a3cb679d",
					"getWinnerLists()": "7932f9ec",
					"increaseAllowance(address,uint256)": "39509351",
					"lastDrawResult()": "b416052d",
					"lastDrawTimestamp()": "8c21460b",
					"maximumBet()": "227cade5",
					"minimumBet()": "c38a8afd",
					"name()": "06fdde03",
					"owner()": "8da5cb5b",
					"placeBatchBetsWithToken(uint16[],uint256[],uint8[])": "5f2b877d",
					"renounceOwnership()": "715018a6",
					"setDrawTime(uint256)": "997e84d2",
					"setMaximumBet(uint256)": "20ae2059",
					"setMinimumBet(uint256)": "8772ae3c",
					"symbol()": "95d89b41",
					"toUint(string)": "c32a6f6d",
					"totalSupply()": "18160ddd",
					"transfer(address,uint256)": "a9059cbb",
					"transferFrom(address,address,uint256)": "23b872dd",
					"transferOwnership(address)": "f2fde38b",
					"winnerLists(uint256)": "a167a09d",
					"withdrawL4D(uint256)": "7a20cf86"
				}
			},
			"storageLayout": {
				"storage": [
					{
						"astId": 8,
						"contract": "lotto4d.sol:Lotto4DToken",
						"label": "_owner",
						"offset": 0,
						"slot": "0",
						"type": "t_address"
					},
					{
						"astId": 261,
						"contract": "lotto4d.sol:Lotto4DToken",
						"label": "name",
						"offset": 0,
						"slot": "1",
						"type": "t_string_storage"
					},
					{
						"astId": 264,
						"contract": "lotto4d.sol:Lotto4DToken",
						"label": "symbol",
						"offset": 0,
						"slot": "2",
						"type": "t_string_storage"
					},
					{
						"astId": 267,
						"contract": "lotto4d.sol:Lotto4DToken",
						"label": "decimals",
						"offset": 0,
						"slot": "3",
						"type": "t_uint8"
					},
					{
						"astId": 269,
						"contract": "lotto4d.sol:Lotto4DToken",
						"label": "_totalSupply",
						"offset": 0,
						"slot": "4",
						"type": "t_uint256"
					},
					{
						"astId": 273,
						"contract": "lotto4d.sol:Lotto4DToken",
						"label": "_balances",
						"offset": 0,
						"slot": "5",
						"type": "t_mapping(t_address,t_uint256)"
					},
					{
						"astId": 279,
						"contract": "lotto4d.sol:Lotto4DToken",
						"label": "_allowances",
						"offset": 0,
						"slot": "6",
						"type": "t_mapping(t_address,t_mapping(t_address,t_uint256))"
					},
					{
						"astId": 282,
						"contract": "lotto4d.sol:Lotto4DToken",
						"label": "minimumBet",
						"offset": 0,
						"slot": "7",
						"type": "t_uint256"
					},
					{
						"astId": 285,
						"contract": "lotto4d.sol:Lotto4DToken",
						"label": "maximumBet",
						"offset": 0,
						"slot": "8",
						"type": "t_uint256"
					},
					{
						"astId": 288,
						"contract": "lotto4d.sol:Lotto4DToken",
						"label": "drawTime",
						"offset": 0,
						"slot": "9",
						"type": "t_uint256"
					},
					{
						"astId": 290,
						"contract": "lotto4d.sol:Lotto4DToken",
						"label": "lastDrawTimestamp",
						"offset": 0,
						"slot": "10",
						"type": "t_uint256"
					},
					{
						"astId": 292,
						"contract": "lotto4d.sol:Lotto4DToken",
						"label": "lastDrawResult",
						"offset": 0,
						"slot": "11",
						"type": "t_uint256"
					},
					{
						"astId": 301,
						"contract": "lotto4d.sol:Lotto4DToken",
						"label": "drawResults",
						"offset": 0,
						"slot": "12",
						"type": "t_array(t_struct(DrawResult)297_storage)dyn_storage"
					},
					{
						"astId": 303,
						"contract": "lotto4d.sol:Lotto4DToken",
						"label": "betTotal",
						"offset": 0,
						"slot": "13",
						"type": "t_uint256"
					},
					{
						"astId": 305,
						"contract": "lotto4d.sol:Lotto4DToken",
						"label": "amountTotal",
						"offset": 0,
						"slot": "14",
						"type": "t_uint256"
					},
					{
						"astId": 320,
						"contract": "lotto4d.sol:Lotto4DToken",
						"label": "winnerLists",
						"offset": 0,
						"slot": "15",
						"type": "t_array(t_struct(WinnerLists)316_storage)dyn_storage"
					},
					{
						"astId": 673,
						"contract": "lotto4d.sol:Lotto4DToken",
						"label": "bets",
						"offset": 0,
						"slot": "16",
						"type": "t_array(t_struct(Bet)669_storage)dyn_storage"
					}
				],
				"types": {
					"t_address": {
						"encoding": "inplace",
						"label": "address",
						"numberOfBytes": "20"
					},
					"t_array(t_struct(Bet)669_storage)dyn_storage": {
						"base": "t_struct(Bet)669_storage",
						"encoding": "dynamic_array",
						"label": "struct Lotto4DToken.Bet[]",
						"numberOfBytes": "32"
					},
					"t_array(t_struct(DrawResult)297_storage)dyn_storage": {
						"base": "t_struct(DrawResult)297_storage",
						"encoding": "dynamic_array",
						"label": "struct Lotto4DToken.DrawResult[]",
						"numberOfBytes": "32"
					},
					"t_array(t_struct(WinnerLists)316_storage)dyn_storage": {
						"base": "t_struct(WinnerLists)316_storage",
						"encoding": "dynamic_array",
						"label": "struct Lotto4DToken.WinnerLists[]",
						"numberOfBytes": "32"
					},
					"t_mapping(t_address,t_mapping(t_address,t_uint256))": {
						"encoding": "mapping",
						"key": "t_address",
						"label": "mapping(address => mapping(address => uint256))",
						"numberOfBytes": "32",
						"value": "t_mapping(t_address,t_uint256)"
					},
					"t_mapping(t_address,t_uint256)": {
						"encoding": "mapping",
						"key": "t_address",
						"label": "mapping(address => uint256)",
						"numberOfBytes": "32",
						"value": "t_uint256"
					},
					"t_string_storage": {
						"encoding": "bytes",
						"label": "string",
						"numberOfBytes": "32"
					},
					"t_struct(Bet)669_storage": {
						"encoding": "inplace",
						"label": "struct Lotto4DToken.Bet",
						"members": [
							{
								"astId": 662,
								"contract": "lotto4d.sol:Lotto4DToken",
								"label": "player",
								"offset": 0,
								"slot": "0",
								"type": "t_address"
							},
							{
								"astId": 664,
								"contract": "lotto4d.sol:Lotto4DToken",
								"label": "amount",
								"offset": 0,
								"slot": "1",
								"type": "t_uint256"
							},
							{
								"astId": 666,
								"contract": "lotto4d.sol:Lotto4DToken",
								"label": "guess",
								"offset": 0,
								"slot": "2",
								"type": "t_uint256"
							},
							{
								"astId": 668,
								"contract": "lotto4d.sol:Lotto4DToken",
								"label": "numDigit",
								"offset": 0,
								"slot": "3",
								"type": "t_uint8"
							}
						],
						"numberOfBytes": "128"
					},
					"t_struct(DrawResult)297_storage": {
						"encoding": "inplace",
						"label": "struct Lotto4DToken.DrawResult",
						"members": [
							{
								"astId": 294,
								"contract": "lotto4d.sol:Lotto4DToken",
								"label": "result",
								"offset": 0,
								"slot": "0",
								"type": "t_uint256"
							},
							{
								"astId": 296,
								"contract": "lotto4d.sol:Lotto4DToken",
								"label": "timestamp",
								"offset": 0,
								"slot": "1",
								"type": "t_uint256"
							}
						],
						"numberOfBytes": "64"
					},
					"t_struct(WinnerLists)316_storage": {
						"encoding": "inplace",
						"label": "struct Lotto4DToken.WinnerLists",
						"members": [
							{
								"astId": 307,
								"contract": "lotto4d.sol:Lotto4DToken",
								"label": "addressWin",
								"offset": 0,
								"slot": "0",
								"type": "t_address"
							},
							{
								"astId": 309,
								"contract": "lotto4d.sol:Lotto4DToken",
								"label": "drawNum",
								"offset": 0,
								"slot": "1",
								"type": "t_uint256"
							},
							{
								"astId": 311,
								"contract": "lotto4d.sol:Lotto4DToken",
								"label": "betAmount",
								"offset": 0,
								"slot": "2",
								"type": "t_uint256"
							},
							{
								"astId": 313,
								"contract": "lotto4d.sol:Lotto4DToken",
								"label": "winAmount",
								"offset": 0,
								"slot": "3",
								"type": "t_uint256"
							},
							{
								"astId": 315,
								"contract": "lotto4d.sol:Lotto4DToken",
								"label": "digit",
								"offset": 0,
								"slot": "4",
								"type": "t_uint8"
							}
						],
						"numberOfBytes": "160"
					},
					"t_uint256": {
						"encoding": "inplace",
						"label": "uint256",
						"numberOfBytes": "32"
					},
					"t_uint8": {
						"encoding": "inplace",
						"label": "uint8",
						"numberOfBytes": "1"
					}
				}
			},
			"userdoc": {
				"kind": "user",
				"methods": {},
				"version": 1
			}
		}
	}
}